{"abi":[{"inputs":[{"internalType":"address","name":"Factory","type":"address"},{"internalType":"address","name":"tracking","type":"address"}],"stateMutability":"nonpayable","type":"constructor"},{"inputs":[{"internalType":"uint256","name":"_id","type":"uint256"},{"internalType":"uint256","name":"_quantity","type":"uint256"},{"internalType":"address","name":"_origin","type":"address"},{"internalType":"string","name":"_name","type":"string"}],"name":"addInput","outputs":[],"stateMutability":"nonpayable","type":"function"},{"inputs":[{"internalType":"uint256[]","name":"_inputs","type":"uint256[]"},{"internalType":"uint256[]","name":"_quantities","type":"uint256[]"},{"internalType":"uint256","name":"_quantity","type":"uint256"},{"internalType":"string","name":"_name","type":"string"}],"name":"addOutput","outputs":[{"internalType":"uint256","name":"","type":"uint256"}],"stateMutability":"nonpayable","type":"function"},{"inputs":[{"internalType":"uint256","name":"_id","type":"uint256"},{"internalType":"uint256","name":"_quantity","type":"uint256"},{"internalType":"string","name":"_name","type":"string"}],"name":"addResource","outputs":[],"stateMutability":"nonpayable","type":"function"},{"inputs":[],"name":"factory","outputs":[{"internalType":"address","name":"","type":"address"}],"stateMutability":"view","type":"function"},{"inputs":[{"internalType":"uint256","name":"_id","type":"uint256"}],"name":"getOutputItem","outputs":[{"internalType":"uint256[]","name":"","type":"uint256[]"},{"internalType":"uint256[]","name":"","type":"uint256[]"}],"stateMutability":"view","type":"function"},{"inputs":[{"internalType":"uint256","name":"","type":"uint256"}],"name":"inputs","outputs":[{"internalType":"uint256","name":"quantity","type":"uint256"},{"internalType":"string","name":"name","type":"string"},{"internalType":"address","name":"origin","type":"address"}],"stateMutability":"view","type":"function"},{"inputs":[{"internalType":"uint256","name":"","type":"uint256"}],"name":"outputs","outputs":[{"internalType":"string","name":"name","type":"string"},{"internalType":"uint256","name":"quantity","type":"uint256"}],"stateMutability":"view","type":"function"},{"inputs":[{"internalType":"uint256","name":"_id","type":"uint256"},{"internalType":"uint256","name":"_quantity","type":"uint256"},{"internalType":"address","name":"_addr","type":"address"}],"name":"sendOutput","outputs":[],"stateMutability":"nonpayable","type":"function"}],"devdoc":{"kind":"dev","methods":{},"version":1},"evm":{"assembly":"    /* \"Process.sol\":585:3466  contract Process{... */\n  mstore(0x40, 0x80)\n    /* \"Process.sol\":1407:1543  constructor(address Factory, address tracking){... */\n  callvalue\n  dup1\n  iszero\n  tag_1\n  jumpi\n  0x00\n  dup1\n  revert\ntag_1:\n  pop\n  mload(0x40)\n  sub(codesize, bytecodeSize)\n  dup1\n  bytecodeSize\n  dup4\n  codecopy\n  dup2\n  dup2\n  add\n  0x40\n  mstore\n  dup2\n  add\n  swap1\n  tag_2\n  swap2\n  swap1\n  tag_3\n  jump\t// in\ntag_2:\n    /* \"Process.sol\":1473:1480  Factory */\n  dup2\n    /* \"Process.sol\":1463:1470  factory */\n  0x00\n  dup1\n    /* \"Process.sol\":1463:1480  factory = Factory */\n  0x0100\n  exp\n  dup2\n  sload\n  dup2\n  0xffffffffffffffffffffffffffffffffffffffff\n  mul\n  not\n  and\n  swap1\n  dup4\n  0xffffffffffffffffffffffffffffffffffffffff\n  and\n  mul\n  or\n  swap1\n  sstore\n  pop\n    /* \"Process.sol\":1509:1517  tracking */\n  dup1\n    /* \"Process.sol\":1490:1506  process_tracking */\n  0x01\n  0x00\n    /* \"Process.sol\":1490:1517  process_tracking = tracking */\n  0x0100\n  exp\n  dup2\n  sload\n  dup2\n  0xffffffffffffffffffffffffffffffffffffffff\n  mul\n  not\n  and\n  swap1\n  dup4\n  0xffffffffffffffffffffffffffffffffffffffff\n  and\n  mul\n  or\n  swap1\n  sstore\n  pop\n    /* \"Process.sol\":1532:1536  1000 */\n  0x03e8\n    /* \"Process.sol\":1527:1529  id */\n  0x04\n    /* \"Process.sol\":1527:1536  id = 1000 */\n  dup2\n  swap1\n  sstore\n  pop\n    /* \"Process.sol\":1407:1543  constructor(address Factory, address tracking){... */\n  pop\n  pop\n    /* \"Process.sol\":585:3466  contract Process{... */\n  jump(tag_6)\n    /* \"#utility.yul\":88:205   */\ntag_8:\n    /* \"#utility.yul\":197:198   */\n  0x00\n    /* \"#utility.yul\":194:195   */\n  dup1\n    /* \"#utility.yul\":187:199   */\n  revert\n    /* \"#utility.yul\":334:460   */\ntag_10:\n    /* \"#utility.yul\":371:378   */\n  0x00\n    /* \"#utility.yul\":411:453   */\n  0xffffffffffffffffffffffffffffffffffffffff\n    /* \"#utility.yul\":404:409   */\n  dup3\n    /* \"#utility.yul\":400:454   */\n  and\n    /* \"#utility.yul\":389:454   */\n  swap1\n  pop\n    /* \"#utility.yul\":334:460   */\n  swap2\n  swap1\n  pop\n  jump\t// out\n    /* \"#utility.yul\":466:562   */\ntag_11:\n    /* \"#utility.yul\":503:510   */\n  0x00\n    /* \"#utility.yul\":532:556   */\n  tag_20\n    /* \"#utility.yul\":550:555   */\n  dup3\n    /* \"#utility.yul\":532:556   */\n  tag_10\n  jump\t// in\ntag_20:\n    /* \"#utility.yul\":521:556   */\n  swap1\n  pop\n    /* \"#utility.yul\":466:562   */\n  swap2\n  swap1\n  pop\n  jump\t// out\n    /* \"#utility.yul\":568:690   */\ntag_12:\n    /* \"#utility.yul\":641:665   */\n  tag_22\n    /* \"#utility.yul\":659:664   */\n  dup2\n    /* \"#utility.yul\":641:665   */\n  tag_11\n  jump\t// in\ntag_22:\n    /* \"#utility.yul\":634:639   */\n  dup2\n    /* \"#utility.yul\":631:666   */\n  eq\n    /* \"#utility.yul\":621:684   */\n  tag_23\n  jumpi\n    /* \"#utility.yul\":680:681   */\n  0x00\n    /* \"#utility.yul\":677:678   */\n  dup1\n    /* \"#utility.yul\":670:682   */\n  revert\n    /* \"#utility.yul\":621:684   */\ntag_23:\n    /* \"#utility.yul\":568:690   */\n  pop\n  jump\t// out\n    /* \"#utility.yul\":696:839   */\ntag_13:\n    /* \"#utility.yul\":753:758   */\n  0x00\n    /* \"#utility.yul\":784:790   */\n  dup2\n    /* \"#utility.yul\":778:791   */\n  mload\n    /* \"#utility.yul\":769:791   */\n  swap1\n  pop\n    /* \"#utility.yul\":800:833   */\n  tag_25\n    /* \"#utility.yul\":827:832   */\n  dup2\n    /* \"#utility.yul\":800:833   */\n  tag_12\n  jump\t// in\ntag_25:\n    /* \"#utility.yul\":696:839   */\n  swap3\n  swap2\n  pop\n  pop\n  jump\t// out\n    /* \"#utility.yul\":845:1352   */\ntag_3:\n    /* \"#utility.yul\":924:930   */\n  0x00\n    /* \"#utility.yul\":932:938   */\n  dup1\n    /* \"#utility.yul\":981:983   */\n  0x40\n    /* \"#utility.yul\":969:978   */\n  dup4\n    /* \"#utility.yul\":960:967   */\n  dup6\n    /* \"#utility.yul\":956:979   */\n  sub\n    /* \"#utility.yul\":952:984   */\n  slt\n    /* \"#utility.yul\":949:1068   */\n  iszero\n  tag_27\n  jumpi\n    /* \"#utility.yul\":987:1066   */\n  tag_28\n  tag_8\n  jump\t// in\ntag_28:\n    /* \"#utility.yul\":949:1068   */\ntag_27:\n    /* \"#utility.yul\":1107:1108   */\n  0x00\n    /* \"#utility.yul\":1132:1196   */\n  tag_29\n    /* \"#utility.yul\":1188:1195   */\n  dup6\n    /* \"#utility.yul\":1179:1185   */\n  dup3\n    /* \"#utility.yul\":1168:1177   */\n  dup7\n    /* \"#utility.yul\":1164:1186   */\n  add\n    /* \"#utility.yul\":1132:1196   */\n  tag_13\n  jump\t// in\ntag_29:\n    /* \"#utility.yul\":1122:1196   */\n  swap3\n  pop\n    /* \"#utility.yul\":1078:1206   */\n  pop\n    /* \"#utility.yul\":1245:1247   */\n  0x20\n    /* \"#utility.yul\":1271:1335   */\n  tag_30\n    /* \"#utility.yul\":1327:1334   */\n  dup6\n    /* \"#utility.yul\":1318:1324   */\n  dup3\n    /* \"#utility.yul\":1307:1316   */\n  dup7\n    /* \"#utility.yul\":1303:1325   */\n  add\n    /* \"#utility.yul\":1271:1335   */\n  tag_13\n  jump\t// in\ntag_30:\n    /* \"#utility.yul\":1261:1335   */\n  swap2\n  pop\n    /* \"#utility.yul\":1216:1345   */\n  pop\n    /* \"#utility.yul\":845:1352   */\n  swap3\n  pop\n  swap3\n  swap1\n  pop\n  jump\t// out\n    /* \"Process.sol\":585:3466  contract Process{... */\ntag_6:\n  dataSize(sub_0)\n  dup1\n  dataOffset(sub_0)\n  0x00\n  codecopy\n  0x00\n  return\nstop\n\nsub_0: assembly {\n        /* \"Process.sol\":585:3466  contract Process{... */\n      mstore(0x40, 0x80)\n      callvalue\n      dup1\n      iszero\n      tag_1\n      jumpi\n      0x00\n      dup1\n      revert\n    tag_1:\n      pop\n      jumpi(tag_2, lt(calldatasize, 0x04))\n      shr(0xe0, calldataload(0x00))\n      dup1\n      0xc45a0155\n      gt\n      tag_11\n      jumpi\n      dup1\n      0xc45a0155\n      eq\n      tag_7\n      jumpi\n      dup1\n      0xd6d81e30\n      eq\n      tag_8\n      jumpi\n      dup1\n      0xddef9ea1\n      eq\n      tag_9\n      jumpi\n      dup1\n      0xfacf65fd\n      eq\n      tag_10\n      jumpi\n      jump(tag_2)\n    tag_11:\n      dup1\n      0x4011dcb6\n      eq\n      tag_3\n      jumpi\n      dup1\n      0x763d2a3e\n      eq\n      tag_4\n      jumpi\n      dup1\n      0x9149bdf2\n      eq\n      tag_5\n      jumpi\n      dup1\n      0x96c49f05\n      eq\n      tag_6\n      jumpi\n    tag_2:\n      0x00\n      dup1\n      revert\n        /* \"Process.sol\":2390:3128  function addOutput(uint[] memory _inputs, uint[] memory _quantities,... */\n    tag_3:\n      tag_12\n      0x04\n      dup1\n      calldatasize\n      sub\n      dup2\n      add\n      swap1\n      tag_13\n      swap2\n      swap1\n      tag_14\n      jump\t// in\n    tag_13:\n      tag_15\n      jump\t// in\n    tag_12:\n      mload(0x40)\n      tag_16\n      swap2\n      swap1\n      tag_17\n      jump\t// in\n    tag_16:\n      mload(0x40)\n      dup1\n      swap2\n      sub\n      swap1\n      return\n        /* \"Process.sol\":3134:3464  function sendOutput(uint _id, uint _quantity, address _addr) public restricted{... */\n    tag_4:\n      tag_18\n      0x04\n      dup1\n      calldatasize\n      sub\n      dup2\n      add\n      swap1\n      tag_19\n      swap2\n      swap1\n      tag_20\n      jump\t// in\n    tag_19:\n      tag_21\n      jump\t// in\n    tag_18:\n      stop\n        /* \"Process.sol\":977:1015  mapping(uint => Output) public outputs */\n    tag_5:\n      tag_22\n      0x04\n      dup1\n      calldatasize\n      sub\n      dup2\n      add\n      swap1\n      tag_23\n      swap2\n      swap1\n      tag_24\n      jump\t// in\n    tag_23:\n      tag_25\n      jump\t// in\n    tag_22:\n      mload(0x40)\n      tag_26\n      swap3\n      swap2\n      swap1\n      tag_27\n      jump\t// in\n    tag_26:\n      mload(0x40)\n      dup1\n      swap2\n      sub\n      swap1\n      return\n        /* \"Process.sol\":1566:1725  function getOutputItem(uint _id) public view returns (uint[] memory, uint[] memory){... */\n    tag_6:\n      tag_28\n      0x04\n      dup1\n      calldatasize\n      sub\n      dup2\n      add\n      swap1\n      tag_29\n      swap2\n      swap1\n      tag_24\n      jump\t// in\n    tag_29:\n      tag_30\n      jump\t// in\n    tag_28:\n      mload(0x40)\n      tag_31\n      swap3\n      swap2\n      swap1\n      tag_32\n      jump\t// in\n    tag_31:\n      mload(0x40)\n      dup1\n      swap2\n      sub\n      swap1\n      return\n        /* \"Process.sol\":863:885  address public factory */\n    tag_7:\n      tag_33\n      tag_34\n      jump\t// in\n    tag_33:\n      mload(0x40)\n      tag_35\n      swap2\n      swap1\n      tag_36\n      jump\t// in\n    tag_35:\n      mload(0x40)\n      dup1\n      swap2\n      sub\n      swap1\n      return\n        /* \"Process.sol\":2072:2384  function addResource(uint _id, uint _quantity,... */\n    tag_8:\n      tag_37\n      0x04\n      dup1\n      calldatasize\n      sub\n      dup2\n      add\n      swap1\n      tag_38\n      swap2\n      swap1\n      tag_39\n      jump\t// in\n    tag_38:\n      tag_40\n      jump\t// in\n    tag_37:\n      stop\n        /* \"Process.sol\":929:971  mapping(uint => Information) public inputs */\n    tag_9:\n      tag_41\n      0x04\n      dup1\n      calldatasize\n      sub\n      dup2\n      add\n      swap1\n      tag_42\n      swap2\n      swap1\n      tag_24\n      jump\t// in\n    tag_42:\n      tag_43\n      jump\t// in\n    tag_41:\n      mload(0x40)\n      tag_44\n      swap4\n      swap3\n      swap2\n      swap1\n      tag_45\n      jump\t// in\n    tag_44:\n      mload(0x40)\n      dup1\n      swap2\n      sub\n      swap1\n      return\n        /* \"Process.sol\":1747:2066  function addInput(uint _id, uint _quantity, address _origin,... */\n    tag_10:\n      tag_46\n      0x04\n      dup1\n      calldatasize\n      sub\n      dup2\n      add\n      swap1\n      tag_47\n      swap2\n      swap1\n      tag_48\n      jump\t// in\n    tag_47:\n      tag_49\n      jump\t// in\n    tag_46:\n      stop\n        /* \"Process.sol\":2390:3128  function addOutput(uint[] memory _inputs, uint[] memory _quantities,... */\n    tag_15:\n        /* \"Process.sol\":2526:2530  uint */\n      0x00\n        /* \"Process.sol\":1111:1118  factory */\n      dup1\n      0x00\n      swap1\n      sload\n      swap1\n      0x0100\n      exp\n      swap1\n      div\n      0xffffffffffffffffffffffffffffffffffffffff\n      and\n        /* \"Process.sol\":1097:1118  msg.sender == factory */\n      0xffffffffffffffffffffffffffffffffffffffff\n      and\n        /* \"Process.sol\":1097:1107  msg.sender */\n      caller\n        /* \"Process.sol\":1097:1118  msg.sender == factory */\n      0xffffffffffffffffffffffffffffffffffffffff\n      and\n      eq\n        /* \"Process.sol\":1089:1161  require(msg.sender == factory, \"You don't have access to this function\") */\n      tag_51\n      jumpi\n      mload(0x40)\n      0x08c379a000000000000000000000000000000000000000000000000000000000\n      dup2\n      mstore\n      0x04\n      add\n      tag_52\n      swap1\n      tag_53\n      jump\t// in\n    tag_52:\n      mload(0x40)\n      dup1\n      swap2\n      sub\n      swap1\n      revert\n    tag_51:\n        /* \"Process.sol\":2572:2583  _quantities */\n      dup4\n        /* \"Process.sol\":2572:2590  _quantities.length */\n      mload\n        /* \"Process.sol\":2554:2561  _inputs */\n      dup6\n        /* \"Process.sol\":2554:2568  _inputs.length */\n      mload\n        /* \"Process.sol\":2554:2590  _inputs.length == _quantities.length */\n      eq\n        /* \"Process.sol\":2546:2628  require(_inputs.length == _quantities.length, \"Not enougth arguments in the list\") */\n      tag_55\n      jumpi\n      mload(0x40)\n      0x08c379a000000000000000000000000000000000000000000000000000000000\n      dup2\n      mstore\n      0x04\n      add\n      tag_56\n      swap1\n      tag_57\n      jump\t// in\n    tag_56:\n      mload(0x40)\n      dup1\n      swap2\n      sub\n      swap1\n      revert\n    tag_55:\n        /* \"Process.sol\":2638:2659  Output storage output */\n      0x00\n        /* \"Process.sol\":2662:2669  outputs */\n      0x03\n        /* \"Process.sol\":2662:2673  outputs[id] */\n      0x00\n        /* \"Process.sol\":2670:2672  id */\n      sload(0x04)\n        /* \"Process.sol\":2662:2673  outputs[id] */\n      dup2\n      mstore\n      0x20\n      add\n      swap1\n      dup2\n      mstore\n      0x20\n      add\n      0x00\n      keccak256\n        /* \"Process.sol\":2638:2673  Output storage output = outputs[id] */\n      swap1\n      pop\n        /* \"Process.sol\":2687:2695  uint idx */\n      0x00\n        /* \"Process.sol\":2683:3015  for(uint idx=0; idx <_inputs.length; idx++){... */\n    tag_58:\n        /* \"Process.sol\":2704:2711  _inputs */\n      dup7\n        /* \"Process.sol\":2704:2718  _inputs.length */\n      mload\n        /* \"Process.sol\":2699:2702  idx */\n      dup2\n        /* \"Process.sol\":2699:2718  idx <_inputs.length */\n      lt\n        /* \"Process.sol\":2683:3015  for(uint idx=0; idx <_inputs.length; idx++){... */\n      iszero\n      tag_59\n      jumpi\n        /* \"Process.sol\":2781:2792  _quantities */\n      dup6\n        /* \"Process.sol\":2793:2796  idx */\n      dup2\n        /* \"Process.sol\":2781:2797  _quantities[idx] */\n      dup2\n      mload\n      dup2\n      lt\n      tag_61\n      jumpi\n      tag_62\n      tag_63\n      jump\t// in\n    tag_62:\n    tag_61:\n      0x20\n      mul\n      0x20\n      add\n      add\n      mload\n        /* \"Process.sol\":2748:2754  inputs */\n      0x02\n        /* \"Process.sol\":2748:2768  inputs[_inputs[idx]] */\n      0x00\n        /* \"Process.sol\":2755:2762  _inputs */\n      dup10\n        /* \"Process.sol\":2763:2766  idx */\n      dup5\n        /* \"Process.sol\":2755:2767  _inputs[idx] */\n      dup2\n      mload\n      dup2\n      lt\n      tag_64\n      jumpi\n      tag_65\n      tag_63\n      jump\t// in\n    tag_65:\n    tag_64:\n      0x20\n      mul\n      0x20\n      add\n      add\n      mload\n        /* \"Process.sol\":2748:2768  inputs[_inputs[idx]] */\n      dup2\n      mstore\n      0x20\n      add\n      swap1\n      dup2\n      mstore\n      0x20\n      add\n      0x00\n      keccak256\n        /* \"Process.sol\":2748:2777  inputs[_inputs[idx]].quantity */\n      0x00\n      add\n      sload\n        /* \"Process.sol\":2748:2797  inputs[_inputs[idx]].quantity >= _quantities[idx] */\n      lt\n      iszero\n        /* \"Process.sol\":2740:2835  require(inputs[_inputs[idx]].quantity >= _quantities[idx], \"Not enougth quantity in the stock\") */\n      tag_66\n      jumpi\n      mload(0x40)\n      0x08c379a000000000000000000000000000000000000000000000000000000000\n      dup2\n      mstore\n      0x04\n      add\n      tag_67\n      swap1\n      tag_68\n      jump\t// in\n    tag_67:\n      mload(0x40)\n      dup1\n      swap2\n      sub\n      swap1\n      revert\n    tag_66:\n        /* \"Process.sol\":2882:2893  _quantities */\n      dup6\n        /* \"Process.sol\":2894:2897  idx */\n      dup2\n        /* \"Process.sol\":2882:2898  _quantities[idx] */\n      dup2\n      mload\n      dup2\n      lt\n      tag_69\n      jumpi\n      tag_70\n      tag_63\n      jump\t// in\n    tag_70:\n    tag_69:\n      0x20\n      mul\n      0x20\n      add\n      add\n      mload\n        /* \"Process.sol\":2849:2855  inputs */\n      0x02\n        /* \"Process.sol\":2849:2869  inputs[_inputs[idx]] */\n      0x00\n        /* \"Process.sol\":2856:2863  _inputs */\n      dup10\n        /* \"Process.sol\":2864:2867  idx */\n      dup5\n        /* \"Process.sol\":2856:2868  _inputs[idx] */\n      dup2\n      mload\n      dup2\n      lt\n      tag_71\n      jumpi\n      tag_72\n      tag_63\n      jump\t// in\n    tag_72:\n    tag_71:\n      0x20\n      mul\n      0x20\n      add\n      add\n      mload\n        /* \"Process.sol\":2849:2869  inputs[_inputs[idx]] */\n      dup2\n      mstore\n      0x20\n      add\n      swap1\n      dup2\n      mstore\n      0x20\n      add\n      0x00\n      keccak256\n        /* \"Process.sol\":2849:2878  inputs[_inputs[idx]].quantity */\n      0x00\n      add\n      0x00\n        /* \"Process.sol\":2849:2898  inputs[_inputs[idx]].quantity -= _quantities[idx] */\n      dup3\n      dup3\n      sload\n      tag_73\n      swap2\n      swap1\n      tag_74\n      jump\t// in\n    tag_73:\n      swap3\n      pop\n      pop\n      dup2\n      swap1\n      sstore\n      pop\n        /* \"Process.sol\":2912:2918  output */\n      dup2\n        /* \"Process.sol\":2912:2925  output.inputs */\n      0x00\n      add\n        /* \"Process.sol\":2931:2938  _inputs */\n      dup8\n        /* \"Process.sol\":2939:2942  idx */\n      dup3\n        /* \"Process.sol\":2931:2943  _inputs[idx] */\n      dup2\n      mload\n      dup2\n      lt\n      tag_75\n      jumpi\n      tag_76\n      tag_63\n      jump\t// in\n    tag_76:\n    tag_75:\n      0x20\n      mul\n      0x20\n      add\n      add\n      mload\n        /* \"Process.sol\":2912:2944  output.inputs.push(_inputs[idx]) */\n      swap1\n      dup1\n      0x01\n      dup2\n      sload\n      add\n      dup1\n      dup3\n      sstore\n      dup1\n      swap2\n      pop\n      pop\n      0x01\n      swap1\n      sub\n      swap1\n      0x00\n      mstore\n      keccak256(0x00, 0x20)\n      add\n      0x00\n      swap1\n      swap2\n      swap1\n      swap2\n      swap1\n      swap2\n      pop\n      sstore\n        /* \"Process.sol\":2958:2964  output */\n      dup2\n        /* \"Process.sol\":2958:2981  output.inputsQuantities */\n      0x01\n      add\n        /* \"Process.sol\":2987:2998  _quantities */\n      dup7\n        /* \"Process.sol\":2999:3002  idx */\n      dup3\n        /* \"Process.sol\":2987:3003  _quantities[idx] */\n      dup2\n      mload\n      dup2\n      lt\n      tag_78\n      jumpi\n      tag_79\n      tag_63\n      jump\t// in\n    tag_79:\n    tag_78:\n      0x20\n      mul\n      0x20\n      add\n      add\n      mload\n        /* \"Process.sol\":2958:3004  output.inputsQuantities.push(_quantities[idx]) */\n      swap1\n      dup1\n      0x01\n      dup2\n      sload\n      add\n      dup1\n      dup3\n      sstore\n      dup1\n      swap2\n      pop\n      pop\n      0x01\n      swap1\n      sub\n      swap1\n      0x00\n      mstore\n      keccak256(0x00, 0x20)\n      add\n      0x00\n      swap1\n      swap2\n      swap1\n      swap2\n      swap1\n      swap2\n      pop\n      sstore\n        /* \"Process.sol\":2720:2725  idx++ */\n      dup1\n      dup1\n      tag_81\n      swap1\n      tag_82\n      jump\t// in\n    tag_81:\n      swap2\n      pop\n      pop\n        /* \"Process.sol\":2683:3015  for(uint idx=0; idx <_inputs.length; idx++){... */\n      jump(tag_58)\n    tag_59:\n      pop\n        /* \"Process.sol\":3042:3051  _quantity */\n      dup4\n        /* \"Process.sol\":3024:3030  output */\n      dup2\n        /* \"Process.sol\":3024:3039  output.quantity */\n      0x03\n      add\n        /* \"Process.sol\":3024:3051  output.quantity = _quantity */\n      dup2\n      swap1\n      sstore\n      pop\n        /* \"Process.sol\":3075:3080  _name */\n      dup3\n        /* \"Process.sol\":3061:3067  output */\n      dup2\n        /* \"Process.sol\":3061:3072  output.name */\n      0x02\n      add\n        /* \"Process.sol\":3061:3080  output.name = _name */\n      swap1\n      dup2\n      tag_83\n      swap2\n      swap1\n      tag_84\n      jump\t// in\n    tag_83:\n      pop\n        /* \"Process.sol\":3097:3098  1 */\n      0x01\n        /* \"Process.sol\":3091:3093  id */\n      0x04\n      0x00\n        /* \"Process.sol\":3091:3098  id += 1 */\n      dup3\n      dup3\n      sload\n      tag_85\n      swap2\n      swap1\n      tag_86\n      jump\t// in\n    tag_85:\n      swap3\n      pop\n      pop\n      dup2\n      swap1\n      sstore\n      pop\n        /* \"Process.sol\":3120:3121  1 */\n      0x01\n        /* \"Process.sol\":3115:3117  id */\n      sload(0x04)\n        /* \"Process.sol\":3115:3121  id - 1 */\n      tag_87\n      swap2\n      swap1\n      tag_74\n      jump\t// in\n    tag_87:\n        /* \"Process.sol\":3108:3121  return id - 1 */\n      swap2\n      pop\n      pop\n        /* \"Process.sol\":2390:3128  function addOutput(uint[] memory _inputs, uint[] memory _quantities,... */\n      swap5\n      swap4\n      pop\n      pop\n      pop\n      pop\n      jump\t// out\n        /* \"Process.sol\":3134:3464  function sendOutput(uint _id, uint _quantity, address _addr) public restricted{... */\n    tag_21:\n        /* \"Process.sol\":1111:1118  factory */\n      0x00\n      dup1\n      sload\n      swap1\n      0x0100\n      exp\n      swap1\n      div\n      0xffffffffffffffffffffffffffffffffffffffff\n      and\n        /* \"Process.sol\":1097:1118  msg.sender == factory */\n      0xffffffffffffffffffffffffffffffffffffffff\n      and\n        /* \"Process.sol\":1097:1107  msg.sender */\n      caller\n        /* \"Process.sol\":1097:1118  msg.sender == factory */\n      0xffffffffffffffffffffffffffffffffffffffff\n      and\n      eq\n        /* \"Process.sol\":1089:1161  require(msg.sender == factory, \"You don't have access to this function\") */\n      tag_89\n      jumpi\n      mload(0x40)\n      0x08c379a000000000000000000000000000000000000000000000000000000000\n      dup2\n      mstore\n      0x04\n      add\n      tag_90\n      swap1\n      tag_53\n      jump\t// in\n    tag_90:\n      mload(0x40)\n      dup1\n      swap2\n      sub\n      swap1\n      revert\n    tag_89:\n        /* \"Process.sol\":3222:3243  Output storage output */\n      0x00\n        /* \"Process.sol\":3246:3253  outputs */\n      0x03\n        /* \"Process.sol\":3246:3258  outputs[_id] */\n      0x00\n        /* \"Process.sol\":3254:3257  _id */\n      dup6\n        /* \"Process.sol\":3246:3258  outputs[_id] */\n      dup2\n      mstore\n      0x20\n      add\n      swap1\n      dup2\n      mstore\n      0x20\n      add\n      0x00\n      keccak256\n        /* \"Process.sol\":3222:3258  Output storage output = outputs[_id] */\n      swap1\n      pop\n        /* \"Process.sol\":3295:3304  _quantity */\n      dup3\n        /* \"Process.sol\":3276:3282  output */\n      dup2\n        /* \"Process.sol\":3276:3291  output.quantity */\n      0x03\n      add\n      sload\n        /* \"Process.sol\":3276:3304  output.quantity >= _quantity */\n      lt\n      iszero\n        /* \"Process.sol\":3268:3342  require(output.quantity >= _quantity, \"Not enougth quantity in the stock\") */\n      tag_92\n      jumpi\n      mload(0x40)\n      0x08c379a000000000000000000000000000000000000000000000000000000000\n      dup2\n      mstore\n      0x04\n      add\n      tag_93\n      swap1\n      tag_68\n      jump\t// in\n    tag_93:\n      mload(0x40)\n      dup1\n      swap2\n      sub\n      swap1\n      revert\n    tag_92:\n        /* \"Process.sol\":3371:3380  _quantity */\n      dup3\n        /* \"Process.sol\":3352:3358  output */\n      dup2\n        /* \"Process.sol\":3352:3367  output.quantity */\n      0x03\n      add\n      0x00\n        /* \"Process.sol\":3352:3380  output.quantity -= _quantity */\n      dup3\n      dup3\n      sload\n      tag_94\n      swap2\n      swap1\n      tag_74\n      jump\t// in\n    tag_94:\n      swap3\n      pop\n      pop\n      dup2\n      swap1\n      sstore\n      pop\n        /* \"Process.sol\":3398:3403  _addr */\n      dup2\n        /* \"Process.sol\":3390:3413  Process(_addr).addInput */\n      0xffffffffffffffffffffffffffffffffffffffff\n      and\n      0xfacf65fd\n        /* \"Process.sol\":3414:3417  _id */\n      dup6\n        /* \"Process.sol\":3419:3428  _quantity */\n      dup6\n        /* \"Process.sol\":3438:3442  this */\n      address\n        /* \"Process.sol\":3445:3451  output */\n      dup6\n        /* \"Process.sol\":3445:3456  output.name */\n      0x02\n      add\n        /* \"Process.sol\":3390:3457  Process(_addr).addInput(_id, _quantity, address(this), output.name) */\n      mload(0x40)\n      dup6\n      0xffffffff\n      and\n      0xe0\n      shl\n      dup2\n      mstore\n      0x04\n      add\n      tag_95\n      swap5\n      swap4\n      swap3\n      swap2\n      swap1\n      tag_96\n      jump\t// in\n    tag_95:\n      0x00\n      mload(0x40)\n      dup1\n      dup4\n      sub\n      dup2\n      0x00\n      dup8\n      dup1\n      extcodesize\n      iszero\n      dup1\n      iszero\n      tag_97\n      jumpi\n      0x00\n      dup1\n      revert\n    tag_97:\n      pop\n      gas\n      call\n      iszero\n      dup1\n      iszero\n      tag_99\n      jumpi\n      returndatasize\n      0x00\n      dup1\n      returndatacopy\n      revert(0x00, returndatasize)\n    tag_99:\n      pop\n      pop\n      pop\n      pop\n        /* \"Process.sol\":3212:3464  {... */\n      pop\n        /* \"Process.sol\":3134:3464  function sendOutput(uint _id, uint _quantity, address _addr) public restricted{... */\n      pop\n      pop\n      pop\n      jump\t// out\n        /* \"Process.sol\":977:1015  mapping(uint => Output) public outputs */\n    tag_25:\n      mstore(0x20, 0x03)\n      dup1\n      0x00\n      mstore\n      keccak256(0x00, 0x40)\n      0x00\n      swap2\n      pop\n      swap1\n      pop\n      dup1\n      0x02\n      add\n      dup1\n      sload\n      tag_100\n      swap1\n      tag_101\n      jump\t// in\n    tag_100:\n      dup1\n      0x1f\n      add\n      0x20\n      dup1\n      swap2\n      div\n      mul\n      0x20\n      add\n      mload(0x40)\n      swap1\n      dup2\n      add\n      0x40\n      mstore\n      dup1\n      swap3\n      swap2\n      swap1\n      dup2\n      dup2\n      mstore\n      0x20\n      add\n      dup3\n      dup1\n      sload\n      tag_102\n      swap1\n      tag_101\n      jump\t// in\n    tag_102:\n      dup1\n      iszero\n      tag_103\n      jumpi\n      dup1\n      0x1f\n      lt\n      tag_104\n      jumpi\n      0x0100\n      dup1\n      dup4\n      sload\n      div\n      mul\n      dup4\n      mstore\n      swap2\n      0x20\n      add\n      swap2\n      jump(tag_103)\n    tag_104:\n      dup3\n      add\n      swap2\n      swap1\n      0x00\n      mstore\n      keccak256(0x00, 0x20)\n      swap1\n    tag_105:\n      dup2\n      sload\n      dup2\n      mstore\n      swap1\n      0x01\n      add\n      swap1\n      0x20\n      add\n      dup1\n      dup4\n      gt\n      tag_105\n      jumpi\n      dup3\n      swap1\n      sub\n      0x1f\n      and\n      dup3\n      add\n      swap2\n    tag_103:\n      pop\n      pop\n      pop\n      pop\n      pop\n      swap1\n      dup1\n      0x03\n      add\n      sload\n      swap1\n      pop\n      dup3\n      jump\t// out\n        /* \"Process.sol\":1566:1725  function getOutputItem(uint _id) public view returns (uint[] memory, uint[] memory){... */\n    tag_30:\n        /* \"Process.sol\":1620:1633  uint[] memory */\n      0x60\n        /* \"Process.sol\":1635:1648  uint[] memory */\n      dup1\n        /* \"Process.sol\":1667:1674  outputs */\n      0x03\n        /* \"Process.sol\":1667:1679  outputs[_id] */\n      0x00\n        /* \"Process.sol\":1675:1678  _id */\n      dup5\n        /* \"Process.sol\":1667:1679  outputs[_id] */\n      dup2\n      mstore\n      0x20\n      add\n      swap1\n      dup2\n      mstore\n      0x20\n      add\n      0x00\n      keccak256\n        /* \"Process.sol\":1667:1686  outputs[_id].inputs */\n      0x00\n      add\n        /* \"Process.sol\":1688:1695  outputs */\n      0x03\n        /* \"Process.sol\":1688:1700  outputs[_id] */\n      0x00\n        /* \"Process.sol\":1696:1699  _id */\n      dup6\n        /* \"Process.sol\":1688:1700  outputs[_id] */\n      dup2\n      mstore\n      0x20\n      add\n      swap1\n      dup2\n      mstore\n      0x20\n      add\n      0x00\n      keccak256\n        /* \"Process.sol\":1688:1717  outputs[_id].inputsQuantities */\n      0x01\n      add\n        /* \"Process.sol\":1659:1718  return (outputs[_id].inputs, outputs[_id].inputsQuantities) */\n      dup2\n      dup1\n      sload\n      dup1\n      0x20\n      mul\n      0x20\n      add\n      mload(0x40)\n      swap1\n      dup2\n      add\n      0x40\n      mstore\n      dup1\n      swap3\n      swap2\n      swap1\n      dup2\n      dup2\n      mstore\n      0x20\n      add\n      dup3\n      dup1\n      sload\n      dup1\n      iszero\n      tag_107\n      jumpi\n      0x20\n      mul\n      dup3\n      add\n      swap2\n      swap1\n      0x00\n      mstore\n      keccak256(0x00, 0x20)\n      swap1\n    tag_108:\n      dup2\n      sload\n      dup2\n      mstore\n      0x20\n      add\n      swap1\n      0x01\n      add\n      swap1\n      dup1\n      dup4\n      gt\n      tag_108\n      jumpi\n    tag_107:\n      pop\n      pop\n      pop\n      pop\n      pop\n      swap2\n      pop\n      dup1\n      dup1\n      sload\n      dup1\n      0x20\n      mul\n      0x20\n      add\n      mload(0x40)\n      swap1\n      dup2\n      add\n      0x40\n      mstore\n      dup1\n      swap3\n      swap2\n      swap1\n      dup2\n      dup2\n      mstore\n      0x20\n      add\n      dup3\n      dup1\n      sload\n      dup1\n      iszero\n      tag_109\n      jumpi\n      0x20\n      mul\n      dup3\n      add\n      swap2\n      swap1\n      0x00\n      mstore\n      keccak256(0x00, 0x20)\n      swap1\n    tag_110:\n      dup2\n      sload\n      dup2\n      mstore\n      0x20\n      add\n      swap1\n      0x01\n      add\n      swap1\n      dup1\n      dup4\n      gt\n      tag_110\n      jumpi\n    tag_109:\n      pop\n      pop\n      pop\n      pop\n      pop\n      swap1\n      pop\n      swap2\n      pop\n      swap2\n      pop\n        /* \"Process.sol\":1566:1725  function getOutputItem(uint _id) public view returns (uint[] memory, uint[] memory){... */\n      swap2\n      pop\n      swap2\n      jump\t// out\n        /* \"Process.sol\":863:885  address public factory */\n    tag_34:\n      0x00\n      dup1\n      sload\n      swap1\n      0x0100\n      exp\n      swap1\n      div\n      0xffffffffffffffffffffffffffffffffffffffff\n      and\n      dup2\n      jump\t// out\n        /* \"Process.sol\":2072:2384  function addResource(uint _id, uint _quantity,... */\n    tag_40:\n        /* \"Process.sol\":1111:1118  factory */\n      0x00\n      dup1\n      sload\n      swap1\n      0x0100\n      exp\n      swap1\n      div\n      0xffffffffffffffffffffffffffffffffffffffff\n      and\n        /* \"Process.sol\":1097:1118  msg.sender == factory */\n      0xffffffffffffffffffffffffffffffffffffffff\n      and\n        /* \"Process.sol\":1097:1107  msg.sender */\n      caller\n        /* \"Process.sol\":1097:1118  msg.sender == factory */\n      0xffffffffffffffffffffffffffffffffffffffff\n      and\n      eq\n        /* \"Process.sol\":1089:1161  require(msg.sender == factory, \"You don't have access to this function\") */\n      tag_112\n      jumpi\n      mload(0x40)\n      0x08c379a000000000000000000000000000000000000000000000000000000000\n      dup2\n      mstore\n      0x04\n      add\n      tag_113\n      swap1\n      tag_53\n      jump\t// in\n    tag_113:\n      mload(0x40)\n      dup1\n      swap2\n      sub\n      swap1\n      revert\n    tag_112:\n        /* \"Process.sol\":2208:2209  0 */\n      0x00\n        /* \"Process.sol\":2184:2190  inputs */\n      0x02\n        /* \"Process.sol\":2184:2195  inputs[_id] */\n      0x00\n        /* \"Process.sol\":2191:2194  _id */\n      dup6\n        /* \"Process.sol\":2184:2195  inputs[_id] */\n      dup2\n      mstore\n      0x20\n      add\n      swap1\n      dup2\n      mstore\n      0x20\n      add\n      0x00\n      keccak256\n        /* \"Process.sol\":2184:2204  inputs[_id].quantity */\n      0x00\n      add\n      sload\n        /* \"Process.sol\":2184:2209  inputs[_id].quantity == 0 */\n      eq\n        /* \"Process.sol\":2176:2237  require(inputs[_id].quantity == 0, \"This id is already used\") */\n      tag_115\n      jumpi\n      mload(0x40)\n      0x08c379a000000000000000000000000000000000000000000000000000000000\n      dup2\n      mstore\n      0x04\n      add\n      tag_116\n      swap1\n      tag_117\n      jump\t// in\n    tag_116:\n      mload(0x40)\n      dup1\n      swap2\n      sub\n      swap1\n      revert\n    tag_115:\n        /* \"Process.sol\":2261:2377  Information({... */\n      mload(0x40)\n      dup1\n      0x60\n      add\n      0x40\n      mstore\n      dup1\n        /* \"Process.sol\":2297:2306  _quantity */\n      dup4\n        /* \"Process.sol\":2261:2377  Information({... */\n      dup2\n      mstore\n      0x20\n      add\n        /* \"Process.sol\":2326:2331  _name */\n      dup3\n        /* \"Process.sol\":2261:2377  Information({... */\n      dup2\n      mstore\n      0x20\n      add\n        /* \"Process.sol\":2361:2365  this */\n      address\n        /* \"Process.sol\":2261:2377  Information({... */\n      0xffffffffffffffffffffffffffffffffffffffff\n      and\n      dup2\n      mstore\n      pop\n        /* \"Process.sol\":2247:2253  inputs */\n      0x02\n        /* \"Process.sol\":2247:2258  inputs[_id] */\n      0x00\n        /* \"Process.sol\":2254:2257  _id */\n      dup6\n        /* \"Process.sol\":2247:2258  inputs[_id] */\n      dup2\n      mstore\n      0x20\n      add\n      swap1\n      dup2\n      mstore\n      0x20\n      add\n      0x00\n      keccak256\n        /* \"Process.sol\":2247:2377  inputs[_id] = Information({... */\n      0x00\n      dup3\n      add\n      mload\n      dup2\n      0x00\n      add\n      sstore\n      0x20\n      dup3\n      add\n      mload\n      dup2\n      0x01\n      add\n      swap1\n      dup2\n      tag_118\n      swap2\n      swap1\n      tag_84\n      jump\t// in\n    tag_118:\n      pop\n      0x40\n      dup3\n      add\n      mload\n      dup2\n      0x02\n      add\n      exp(0x0100, 0x00)\n      dup2\n      sload\n      dup2\n      0xffffffffffffffffffffffffffffffffffffffff\n      mul\n      not\n      and\n      swap1\n      dup4\n      0xffffffffffffffffffffffffffffffffffffffff\n      and\n      mul\n      or\n      swap1\n      sstore\n      pop\n      swap1\n      pop\n      pop\n        /* \"Process.sol\":2072:2384  function addResource(uint _id, uint _quantity,... */\n      pop\n      pop\n      pop\n      jump\t// out\n        /* \"Process.sol\":929:971  mapping(uint => Information) public inputs */\n    tag_43:\n      mstore(0x20, 0x02)\n      dup1\n      0x00\n      mstore\n      keccak256(0x00, 0x40)\n      0x00\n      swap2\n      pop\n      swap1\n      pop\n      dup1\n      0x00\n      add\n      sload\n      swap1\n      dup1\n      0x01\n      add\n      dup1\n      sload\n      tag_119\n      swap1\n      tag_101\n      jump\t// in\n    tag_119:\n      dup1\n      0x1f\n      add\n      0x20\n      dup1\n      swap2\n      div\n      mul\n      0x20\n      add\n      mload(0x40)\n      swap1\n      dup2\n      add\n      0x40\n      mstore\n      dup1\n      swap3\n      swap2\n      swap1\n      dup2\n      dup2\n      mstore\n      0x20\n      add\n      dup3\n      dup1\n      sload\n      tag_120\n      swap1\n      tag_101\n      jump\t// in\n    tag_120:\n      dup1\n      iszero\n      tag_121\n      jumpi\n      dup1\n      0x1f\n      lt\n      tag_122\n      jumpi\n      0x0100\n      dup1\n      dup4\n      sload\n      div\n      mul\n      dup4\n      mstore\n      swap2\n      0x20\n      add\n      swap2\n      jump(tag_121)\n    tag_122:\n      dup3\n      add\n      swap2\n      swap1\n      0x00\n      mstore\n      keccak256(0x00, 0x20)\n      swap1\n    tag_123:\n      dup2\n      sload\n      dup2\n      mstore\n      swap1\n      0x01\n      add\n      swap1\n      0x20\n      add\n      dup1\n      dup4\n      gt\n      tag_123\n      jumpi\n      dup3\n      swap1\n      sub\n      0x1f\n      and\n      dup3\n      add\n      swap2\n    tag_121:\n      pop\n      pop\n      pop\n      pop\n      pop\n      swap1\n      dup1\n      0x02\n      add\n      0x00\n      swap1\n      sload\n      swap1\n      0x0100\n      exp\n      swap1\n      div\n      0xffffffffffffffffffffffffffffffffffffffff\n      and\n      swap1\n      pop\n      dup4\n      jump\t// out\n        /* \"Process.sol\":1747:2066  function addInput(uint _id, uint _quantity, address _origin,... */\n    tag_49:\n        /* \"Process.sol\":1216:1239  Process_Tracking master */\n      0x00\n        /* \"Process.sol\":1259:1275  process_tracking */\n      0x01\n      0x00\n      swap1\n      sload\n      swap1\n      0x0100\n      exp\n      swap1\n      div\n      0xffffffffffffffffffffffffffffffffffffffff\n      and\n        /* \"Process.sol\":1216:1276  Process_Tracking master = Process_Tracking(process_tracking) */\n      swap1\n      pop\n        /* \"Process.sol\":1294:1300  master */\n      dup1\n        /* \"Process.sol\":1294:1310  master.factories */\n      0xffffffffffffffffffffffffffffffffffffffff\n      and\n      0xfab52689\n        /* \"Process.sol\":1311:1320  tx.origin */\n      origin\n        /* \"Process.sol\":1294:1321  master.factories(tx.origin) */\n      mload(0x40)\n      dup3\n      0xffffffff\n      and\n      0xe0\n      shl\n      dup2\n      mstore\n      0x04\n      add\n      tag_125\n      swap2\n      swap1\n      tag_36\n      jump\t// in\n    tag_125:\n      0x20\n      mload(0x40)\n      dup1\n      dup4\n      sub\n      dup2\n      dup7\n      gas\n      staticcall\n      iszero\n      dup1\n      iszero\n      tag_127\n      jumpi\n      returndatasize\n      0x00\n      dup1\n      returndatacopy\n      revert(0x00, returndatasize)\n    tag_127:\n      pop\n      pop\n      pop\n      pop\n      mload(0x40)\n      returndatasize\n      not(0x1f)\n      0x1f\n      dup3\n      add\n      and\n      dup3\n      add\n      dup1\n      0x40\n      mstore\n      pop\n      dup2\n      add\n      swap1\n      tag_128\n      swap2\n      swap1\n      tag_129\n      jump\t// in\n    tag_128:\n        /* \"Process.sol\":1286:1364  require(master.factories(tx.origin), \"You don't have access to this function\") */\n      tag_130\n      jumpi\n      mload(0x40)\n      0x08c379a000000000000000000000000000000000000000000000000000000000\n      dup2\n      mstore\n      0x04\n      add\n      tag_131\n      swap1\n      tag_53\n      jump\t// in\n    tag_131:\n      mload(0x40)\n      dup1\n      swap2\n      sub\n      swap1\n      revert\n    tag_130:\n        /* \"Process.sol\":1896:1897  0 */\n      0x00\n        /* \"Process.sol\":1872:1878  inputs */\n      0x02\n        /* \"Process.sol\":1872:1883  inputs[_id] */\n      0x00\n        /* \"Process.sol\":1879:1882  _id */\n      dup8\n        /* \"Process.sol\":1872:1883  inputs[_id] */\n      dup2\n      mstore\n      0x20\n      add\n      swap1\n      dup2\n      mstore\n      0x20\n      add\n      0x00\n      keccak256\n        /* \"Process.sol\":1872:1892  inputs[_id].quantity */\n      0x00\n      add\n      sload\n        /* \"Process.sol\":1872:1897  inputs[_id].quantity == 0 */\n      eq\n        /* \"Process.sol\":1864:1925  require(inputs[_id].quantity == 0, \"This id is already used\") */\n      tag_133\n      jumpi\n      mload(0x40)\n      0x08c379a000000000000000000000000000000000000000000000000000000000\n      dup2\n      mstore\n      0x04\n      add\n      tag_134\n      swap1\n      tag_117\n      jump\t// in\n    tag_134:\n      mload(0x40)\n      dup1\n      swap2\n      sub\n      swap1\n      revert\n    tag_133:\n        /* \"Process.sol\":1949:2059  Information({... */\n      mload(0x40)\n      dup1\n      0x60\n      add\n      0x40\n      mstore\n      dup1\n        /* \"Process.sol\":1985:1994  _quantity */\n      dup6\n        /* \"Process.sol\":1949:2059  Information({... */\n      dup2\n      mstore\n      0x20\n      add\n        /* \"Process.sol\":2014:2019  _name */\n      dup4\n        /* \"Process.sol\":1949:2059  Information({... */\n      dup2\n      mstore\n      0x20\n      add\n        /* \"Process.sol\":2041:2048  _origin */\n      dup5\n        /* \"Process.sol\":1949:2059  Information({... */\n      0xffffffffffffffffffffffffffffffffffffffff\n      and\n      dup2\n      mstore\n      pop\n        /* \"Process.sol\":1935:1941  inputs */\n      0x02\n        /* \"Process.sol\":1935:1946  inputs[_id] */\n      0x00\n        /* \"Process.sol\":1942:1945  _id */\n      dup8\n        /* \"Process.sol\":1935:1946  inputs[_id] */\n      dup2\n      mstore\n      0x20\n      add\n      swap1\n      dup2\n      mstore\n      0x20\n      add\n      0x00\n      keccak256\n        /* \"Process.sol\":1935:2059  inputs[_id] = Information({... */\n      0x00\n      dup3\n      add\n      mload\n      dup2\n      0x00\n      add\n      sstore\n      0x20\n      dup3\n      add\n      mload\n      dup2\n      0x01\n      add\n      swap1\n      dup2\n      tag_135\n      swap2\n      swap1\n      tag_84\n      jump\t// in\n    tag_135:\n      pop\n      0x40\n      dup3\n      add\n      mload\n      dup2\n      0x02\n      add\n      exp(0x0100, 0x00)\n      dup2\n      sload\n      dup2\n      0xffffffffffffffffffffffffffffffffffffffff\n      mul\n      not\n      and\n      swap1\n      dup4\n      0xffffffffffffffffffffffffffffffffffffffff\n      and\n      mul\n      or\n      swap1\n      sstore\n      pop\n      swap1\n      pop\n      pop\n        /* \"Process.sol\":1206:1382  {... */\n      pop\n        /* \"Process.sol\":1747:2066  function addInput(uint _id, uint _quantity, address _origin,... */\n      pop\n      pop\n      pop\n      pop\n      jump\t// out\n        /* \"#utility.yul\":7:82   */\n    tag_136:\n        /* \"#utility.yul\":40:46   */\n      0x00\n        /* \"#utility.yul\":73:75   */\n      0x40\n        /* \"#utility.yul\":67:76   */\n      mload\n        /* \"#utility.yul\":57:76   */\n      swap1\n      pop\n        /* \"#utility.yul\":7:82   */\n      swap1\n      jump\t// out\n        /* \"#utility.yul\":88:205   */\n    tag_137:\n        /* \"#utility.yul\":197:198   */\n      0x00\n        /* \"#utility.yul\":194:195   */\n      dup1\n        /* \"#utility.yul\":187:199   */\n      revert\n        /* \"#utility.yul\":211:328   */\n    tag_138:\n        /* \"#utility.yul\":320:321   */\n      0x00\n        /* \"#utility.yul\":317:318   */\n      dup1\n        /* \"#utility.yul\":310:322   */\n      revert\n        /* \"#utility.yul\":334:451   */\n    tag_139:\n        /* \"#utility.yul\":443:444   */\n      0x00\n        /* \"#utility.yul\":440:441   */\n      dup1\n        /* \"#utility.yul\":433:445   */\n      revert\n        /* \"#utility.yul\":457:559   */\n    tag_140:\n        /* \"#utility.yul\":498:504   */\n      0x00\n        /* \"#utility.yul\":549:551   */\n      0x1f\n        /* \"#utility.yul\":545:552   */\n      not\n        /* \"#utility.yul\":540:542   */\n      0x1f\n        /* \"#utility.yul\":533:538   */\n      dup4\n        /* \"#utility.yul\":529:543   */\n      add\n        /* \"#utility.yul\":525:553   */\n      and\n        /* \"#utility.yul\":515:553   */\n      swap1\n      pop\n        /* \"#utility.yul\":457:559   */\n      swap2\n      swap1\n      pop\n      jump\t// out\n        /* \"#utility.yul\":565:745   */\n    tag_141:\n        /* \"#utility.yul\":613:690   */\n      0x4e487b7100000000000000000000000000000000000000000000000000000000\n        /* \"#utility.yul\":610:611   */\n      0x00\n        /* \"#utility.yul\":603:691   */\n      mstore\n        /* \"#utility.yul\":710:714   */\n      0x41\n        /* \"#utility.yul\":707:708   */\n      0x04\n        /* \"#utility.yul\":700:715   */\n      mstore\n        /* \"#utility.yul\":734:738   */\n      0x24\n        /* \"#utility.yul\":731:732   */\n      0x00\n        /* \"#utility.yul\":724:739   */\n      revert\n        /* \"#utility.yul\":751:1032   */\n    tag_142:\n        /* \"#utility.yul\":834:861   */\n      tag_210\n        /* \"#utility.yul\":856:860   */\n      dup3\n        /* \"#utility.yul\":834:861   */\n      tag_140\n      jump\t// in\n    tag_210:\n        /* \"#utility.yul\":826:832   */\n      dup2\n        /* \"#utility.yul\":822:862   */\n      add\n        /* \"#utility.yul\":964:970   */\n      dup2\n        /* \"#utility.yul\":952:962   */\n      dup2\n        /* \"#utility.yul\":949:971   */\n      lt\n        /* \"#utility.yul\":928:946   */\n      0xffffffffffffffff\n        /* \"#utility.yul\":916:926   */\n      dup3\n        /* \"#utility.yul\":913:947   */\n      gt\n        /* \"#utility.yul\":910:972   */\n      or\n        /* \"#utility.yul\":907:995   */\n      iszero\n      tag_211\n      jumpi\n        /* \"#utility.yul\":975:993   */\n      tag_212\n      tag_141\n      jump\t// in\n    tag_212:\n        /* \"#utility.yul\":907:995   */\n    tag_211:\n        /* \"#utility.yul\":1015:1025   */\n      dup1\n        /* \"#utility.yul\":1011:1013   */\n      0x40\n        /* \"#utility.yul\":1004:1026   */\n      mstore\n        /* \"#utility.yul\":794:1032   */\n      pop\n        /* \"#utility.yul\":751:1032   */\n      pop\n      pop\n      jump\t// out\n        /* \"#utility.yul\":1038:1167   */\n    tag_143:\n        /* \"#utility.yul\":1072:1078   */\n      0x00\n        /* \"#utility.yul\":1099:1119   */\n      tag_214\n      tag_136\n      jump\t// in\n    tag_214:\n        /* \"#utility.yul\":1089:1119   */\n      swap1\n      pop\n        /* \"#utility.yul\":1128:1161   */\n      tag_215\n        /* \"#utility.yul\":1156:1160   */\n      dup3\n        /* \"#utility.yul\":1148:1154   */\n      dup3\n        /* \"#utility.yul\":1128:1161   */\n      tag_142\n      jump\t// in\n    tag_215:\n        /* \"#utility.yul\":1038:1167   */\n      swap2\n      swap1\n      pop\n      jump\t// out\n        /* \"#utility.yul\":1173:1484   */\n    tag_144:\n        /* \"#utility.yul\":1250:1254   */\n      0x00\n        /* \"#utility.yul\":1340:1358   */\n      0xffffffffffffffff\n        /* \"#utility.yul\":1332:1338   */\n      dup3\n        /* \"#utility.yul\":1329:1359   */\n      gt\n        /* \"#utility.yul\":1326:1382   */\n      iszero\n      tag_217\n      jumpi\n        /* \"#utility.yul\":1362:1380   */\n      tag_218\n      tag_141\n      jump\t// in\n    tag_218:\n        /* \"#utility.yul\":1326:1382   */\n    tag_217:\n        /* \"#utility.yul\":1412:1416   */\n      0x20\n        /* \"#utility.yul\":1404:1410   */\n      dup3\n        /* \"#utility.yul\":1400:1417   */\n      mul\n        /* \"#utility.yul\":1392:1417   */\n      swap1\n      pop\n        /* \"#utility.yul\":1472:1476   */\n      0x20\n        /* \"#utility.yul\":1466:1470   */\n      dup2\n        /* \"#utility.yul\":1462:1477   */\n      add\n        /* \"#utility.yul\":1454:1477   */\n      swap1\n      pop\n        /* \"#utility.yul\":1173:1484   */\n      swap2\n      swap1\n      pop\n      jump\t// out\n        /* \"#utility.yul\":1490:1607   */\n    tag_145:\n        /* \"#utility.yul\":1599:1600   */\n      0x00\n        /* \"#utility.yul\":1596:1597   */\n      dup1\n        /* \"#utility.yul\":1589:1601   */\n      revert\n        /* \"#utility.yul\":1613:1690   */\n    tag_146:\n        /* \"#utility.yul\":1650:1657   */\n      0x00\n        /* \"#utility.yul\":1679:1684   */\n      dup2\n        /* \"#utility.yul\":1668:1684   */\n      swap1\n      pop\n        /* \"#utility.yul\":1613:1690   */\n      swap2\n      swap1\n      pop\n      jump\t// out\n        /* \"#utility.yul\":1696:1818   */\n    tag_147:\n        /* \"#utility.yul\":1769:1793   */\n      tag_222\n        /* \"#utility.yul\":1787:1792   */\n      dup2\n        /* \"#utility.yul\":1769:1793   */\n      tag_146\n      jump\t// in\n    tag_222:\n        /* \"#utility.yul\":1762:1767   */\n      dup2\n        /* \"#utility.yul\":1759:1794   */\n      eq\n        /* \"#utility.yul\":1749:1812   */\n      tag_223\n      jumpi\n        /* \"#utility.yul\":1808:1809   */\n      0x00\n        /* \"#utility.yul\":1805:1806   */\n      dup1\n        /* \"#utility.yul\":1798:1810   */\n      revert\n        /* \"#utility.yul\":1749:1812   */\n    tag_223:\n        /* \"#utility.yul\":1696:1818   */\n      pop\n      jump\t// out\n        /* \"#utility.yul\":1824:1963   */\n    tag_148:\n        /* \"#utility.yul\":1870:1875   */\n      0x00\n        /* \"#utility.yul\":1908:1914   */\n      dup2\n        /* \"#utility.yul\":1895:1915   */\n      calldataload\n        /* \"#utility.yul\":1886:1915   */\n      swap1\n      pop\n        /* \"#utility.yul\":1924:1957   */\n      tag_225\n        /* \"#utility.yul\":1951:1956   */\n      dup2\n        /* \"#utility.yul\":1924:1957   */\n      tag_147\n      jump\t// in\n    tag_225:\n        /* \"#utility.yul\":1824:1963   */\n      swap3\n      swap2\n      pop\n      pop\n      jump\t// out\n        /* \"#utility.yul\":1986:2696   */\n    tag_149:\n        /* \"#utility.yul\":2082:2087   */\n      0x00\n        /* \"#utility.yul\":2107:2188   */\n      tag_227\n        /* \"#utility.yul\":2123:2187   */\n      tag_228\n        /* \"#utility.yul\":2180:2186   */\n      dup5\n        /* \"#utility.yul\":2123:2187   */\n      tag_144\n      jump\t// in\n    tag_228:\n        /* \"#utility.yul\":2107:2188   */\n      tag_143\n      jump\t// in\n    tag_227:\n        /* \"#utility.yul\":2098:2188   */\n      swap1\n      pop\n        /* \"#utility.yul\":2208:2213   */\n      dup1\n        /* \"#utility.yul\":2237:2243   */\n      dup4\n        /* \"#utility.yul\":2230:2235   */\n      dup3\n        /* \"#utility.yul\":2223:2244   */\n      mstore\n        /* \"#utility.yul\":2271:2275   */\n      0x20\n        /* \"#utility.yul\":2264:2269   */\n      dup3\n        /* \"#utility.yul\":2260:2276   */\n      add\n        /* \"#utility.yul\":2253:2276   */\n      swap1\n      pop\n        /* \"#utility.yul\":2324:2328   */\n      0x20\n        /* \"#utility.yul\":2316:2322   */\n      dup5\n        /* \"#utility.yul\":2312:2329   */\n      mul\n        /* \"#utility.yul\":2304:2310   */\n      dup4\n        /* \"#utility.yul\":2300:2330   */\n      add\n        /* \"#utility.yul\":2353:2356   */\n      dup6\n        /* \"#utility.yul\":2345:2351   */\n      dup2\n        /* \"#utility.yul\":2342:2357   */\n      gt\n        /* \"#utility.yul\":2339:2461   */\n      iszero\n      tag_229\n      jumpi\n        /* \"#utility.yul\":2372:2451   */\n      tag_230\n      tag_145\n      jump\t// in\n    tag_230:\n        /* \"#utility.yul\":2339:2461   */\n    tag_229:\n        /* \"#utility.yul\":2487:2493   */\n      dup4\n        /* \"#utility.yul\":2470:2690   */\n    tag_231:\n        /* \"#utility.yul\":2504:2510   */\n      dup2\n        /* \"#utility.yul\":2499:2502   */\n      dup2\n        /* \"#utility.yul\":2496:2511   */\n      lt\n        /* \"#utility.yul\":2470:2690   */\n      iszero\n      tag_233\n      jumpi\n        /* \"#utility.yul\":2579:2582   */\n      dup1\n        /* \"#utility.yul\":2608:2645   */\n      tag_234\n        /* \"#utility.yul\":2641:2644   */\n      dup9\n        /* \"#utility.yul\":2629:2639   */\n      dup3\n        /* \"#utility.yul\":2608:2645   */\n      tag_148\n      jump\t// in\n    tag_234:\n        /* \"#utility.yul\":2603:2606   */\n      dup5\n        /* \"#utility.yul\":2596:2646   */\n      mstore\n        /* \"#utility.yul\":2675:2679   */\n      0x20\n        /* \"#utility.yul\":2670:2673   */\n      dup5\n        /* \"#utility.yul\":2666:2680   */\n      add\n        /* \"#utility.yul\":2659:2680   */\n      swap4\n      pop\n        /* \"#utility.yul\":2546:2690   */\n      pop\n        /* \"#utility.yul\":2530:2534   */\n      0x20\n        /* \"#utility.yul\":2525:2528   */\n      dup2\n        /* \"#utility.yul\":2521:2535   */\n      add\n        /* \"#utility.yul\":2514:2535   */\n      swap1\n      pop\n        /* \"#utility.yul\":2470:2690   */\n      jump(tag_231)\n    tag_233:\n        /* \"#utility.yul\":2474:2495   */\n      pop\n        /* \"#utility.yul\":2088:2696   */\n      pop\n      pop\n        /* \"#utility.yul\":1986:2696   */\n      swap4\n      swap3\n      pop\n      pop\n      pop\n      jump\t// out\n        /* \"#utility.yul\":2719:3089   */\n    tag_150:\n        /* \"#utility.yul\":2790:2795   */\n      0x00\n        /* \"#utility.yul\":2839:2842   */\n      dup3\n        /* \"#utility.yul\":2832:2836   */\n      0x1f\n        /* \"#utility.yul\":2824:2830   */\n      dup4\n        /* \"#utility.yul\":2820:2837   */\n      add\n        /* \"#utility.yul\":2816:2843   */\n      slt\n        /* \"#utility.yul\":2806:2928   */\n      tag_236\n      jumpi\n        /* \"#utility.yul\":2847:2926   */\n      tag_237\n      tag_139\n      jump\t// in\n    tag_237:\n        /* \"#utility.yul\":2806:2928   */\n    tag_236:\n        /* \"#utility.yul\":2964:2970   */\n      dup2\n        /* \"#utility.yul\":2951:2971   */\n      calldataload\n        /* \"#utility.yul\":2989:3083   */\n      tag_238\n        /* \"#utility.yul\":3079:3082   */\n      dup5\n        /* \"#utility.yul\":3071:3077   */\n      dup3\n        /* \"#utility.yul\":3064:3068   */\n      0x20\n        /* \"#utility.yul\":3056:3062   */\n      dup7\n        /* \"#utility.yul\":3052:3069   */\n      add\n        /* \"#utility.yul\":2989:3083   */\n      tag_149\n      jump\t// in\n    tag_238:\n        /* \"#utility.yul\":2980:3083   */\n      swap2\n      pop\n        /* \"#utility.yul\":2796:3089   */\n      pop\n        /* \"#utility.yul\":2719:3089   */\n      swap3\n      swap2\n      pop\n      pop\n      jump\t// out\n        /* \"#utility.yul\":3095:3212   */\n    tag_151:\n        /* \"#utility.yul\":3204:3205   */\n      0x00\n        /* \"#utility.yul\":3201:3202   */\n      dup1\n        /* \"#utility.yul\":3194:3206   */\n      revert\n        /* \"#utility.yul\":3218:3526   */\n    tag_152:\n        /* \"#utility.yul\":3280:3284   */\n      0x00\n        /* \"#utility.yul\":3370:3388   */\n      0xffffffffffffffff\n        /* \"#utility.yul\":3362:3368   */\n      dup3\n        /* \"#utility.yul\":3359:3389   */\n      gt\n        /* \"#utility.yul\":3356:3412   */\n      iszero\n      tag_241\n      jumpi\n        /* \"#utility.yul\":3392:3410   */\n      tag_242\n      tag_141\n      jump\t// in\n    tag_242:\n        /* \"#utility.yul\":3356:3412   */\n    tag_241:\n        /* \"#utility.yul\":3430:3459   */\n      tag_243\n        /* \"#utility.yul\":3452:3458   */\n      dup3\n        /* \"#utility.yul\":3430:3459   */\n      tag_140\n      jump\t// in\n    tag_243:\n        /* \"#utility.yul\":3422:3459   */\n      swap1\n      pop\n        /* \"#utility.yul\":3514:3518   */\n      0x20\n        /* \"#utility.yul\":3508:3512   */\n      dup2\n        /* \"#utility.yul\":3504:3519   */\n      add\n        /* \"#utility.yul\":3496:3519   */\n      swap1\n      pop\n        /* \"#utility.yul\":3218:3526   */\n      swap2\n      swap1\n      pop\n      jump\t// out\n        /* \"#utility.yul\":3532:3678   */\n    tag_153:\n        /* \"#utility.yul\":3629:3635   */\n      dup3\n        /* \"#utility.yul\":3624:3627   */\n      dup2\n        /* \"#utility.yul\":3619:3622   */\n      dup4\n        /* \"#utility.yul\":3606:3636   */\n      calldatacopy\n        /* \"#utility.yul\":3670:3671   */\n      0x00\n        /* \"#utility.yul\":3661:3667   */\n      dup4\n        /* \"#utility.yul\":3656:3659   */\n      dup4\n        /* \"#utility.yul\":3652:3668   */\n      add\n        /* \"#utility.yul\":3645:3672   */\n      mstore\n        /* \"#utility.yul\":3532:3678   */\n      pop\n      pop\n      pop\n      jump\t// out\n        /* \"#utility.yul\":3684:4109   */\n    tag_154:\n        /* \"#utility.yul\":3762:3767   */\n      0x00\n        /* \"#utility.yul\":3787:3853   */\n      tag_246\n        /* \"#utility.yul\":3803:3852   */\n      tag_247\n        /* \"#utility.yul\":3845:3851   */\n      dup5\n        /* \"#utility.yul\":3803:3852   */\n      tag_152\n      jump\t// in\n    tag_247:\n        /* \"#utility.yul\":3787:3853   */\n      tag_143\n      jump\t// in\n    tag_246:\n        /* \"#utility.yul\":3778:3853   */\n      swap1\n      pop\n        /* \"#utility.yul\":3876:3882   */\n      dup3\n        /* \"#utility.yul\":3869:3874   */\n      dup2\n        /* \"#utility.yul\":3862:3883   */\n      mstore\n        /* \"#utility.yul\":3914:3918   */\n      0x20\n        /* \"#utility.yul\":3907:3912   */\n      dup2\n        /* \"#utility.yul\":3903:3919   */\n      add\n        /* \"#utility.yul\":3952:3955   */\n      dup5\n        /* \"#utility.yul\":3943:3949   */\n      dup5\n        /* \"#utility.yul\":3938:3941   */\n      dup5\n        /* \"#utility.yul\":3934:3950   */\n      add\n        /* \"#utility.yul\":3931:3956   */\n      gt\n        /* \"#utility.yul\":3928:4040   */\n      iszero\n      tag_248\n      jumpi\n        /* \"#utility.yul\":3959:4038   */\n      tag_249\n      tag_151\n      jump\t// in\n    tag_249:\n        /* \"#utility.yul\":3928:4040   */\n    tag_248:\n        /* \"#utility.yul\":4049:4103   */\n      tag_250\n        /* \"#utility.yul\":4096:4102   */\n      dup5\n        /* \"#utility.yul\":4091:4094   */\n      dup3\n        /* \"#utility.yul\":4086:4089   */\n      dup6\n        /* \"#utility.yul\":4049:4103   */\n      tag_153\n      jump\t// in\n    tag_250:\n        /* \"#utility.yul\":3768:4109   */\n      pop\n        /* \"#utility.yul\":3684:4109   */\n      swap4\n      swap3\n      pop\n      pop\n      pop\n      jump\t// out\n        /* \"#utility.yul\":4129:4469   */\n    tag_155:\n        /* \"#utility.yul\":4185:4190   */\n      0x00\n        /* \"#utility.yul\":4234:4237   */\n      dup3\n        /* \"#utility.yul\":4227:4231   */\n      0x1f\n        /* \"#utility.yul\":4219:4225   */\n      dup4\n        /* \"#utility.yul\":4215:4232   */\n      add\n        /* \"#utility.yul\":4211:4238   */\n      slt\n        /* \"#utility.yul\":4201:4323   */\n      tag_252\n      jumpi\n        /* \"#utility.yul\":4242:4321   */\n      tag_253\n      tag_139\n      jump\t// in\n    tag_253:\n        /* \"#utility.yul\":4201:4323   */\n    tag_252:\n        /* \"#utility.yul\":4359:4365   */\n      dup2\n        /* \"#utility.yul\":4346:4366   */\n      calldataload\n        /* \"#utility.yul\":4384:4463   */\n      tag_254\n        /* \"#utility.yul\":4459:4462   */\n      dup5\n        /* \"#utility.yul\":4451:4457   */\n      dup3\n        /* \"#utility.yul\":4444:4448   */\n      0x20\n        /* \"#utility.yul\":4436:4442   */\n      dup7\n        /* \"#utility.yul\":4432:4449   */\n      add\n        /* \"#utility.yul\":4384:4463   */\n      tag_154\n      jump\t// in\n    tag_254:\n        /* \"#utility.yul\":4375:4463   */\n      swap2\n      pop\n        /* \"#utility.yul\":4191:4469   */\n      pop\n        /* \"#utility.yul\":4129:4469   */\n      swap3\n      swap2\n      pop\n      pop\n      jump\t// out\n        /* \"#utility.yul\":4475:5840   */\n    tag_14:\n        /* \"#utility.yul\":4621:4627   */\n      0x00\n        /* \"#utility.yul\":4629:4635   */\n      dup1\n        /* \"#utility.yul\":4637:4643   */\n      0x00\n        /* \"#utility.yul\":4645:4651   */\n      dup1\n        /* \"#utility.yul\":4694:4697   */\n      0x80\n        /* \"#utility.yul\":4682:4691   */\n      dup6\n        /* \"#utility.yul\":4673:4680   */\n      dup8\n        /* \"#utility.yul\":4669:4692   */\n      sub\n        /* \"#utility.yul\":4665:4698   */\n      slt\n        /* \"#utility.yul\":4662:4782   */\n      iszero\n      tag_256\n      jumpi\n        /* \"#utility.yul\":4701:4780   */\n      tag_257\n      tag_137\n      jump\t// in\n    tag_257:\n        /* \"#utility.yul\":4662:4782   */\n    tag_256:\n        /* \"#utility.yul\":4849:4850   */\n      0x00\n        /* \"#utility.yul\":4838:4847   */\n      dup6\n        /* \"#utility.yul\":4834:4851   */\n      add\n        /* \"#utility.yul\":4821:4852   */\n      calldataload\n        /* \"#utility.yul\":4879:4897   */\n      0xffffffffffffffff\n        /* \"#utility.yul\":4871:4877   */\n      dup2\n        /* \"#utility.yul\":4868:4898   */\n      gt\n        /* \"#utility.yul\":4865:4982   */\n      iszero\n      tag_258\n      jumpi\n        /* \"#utility.yul\":4901:4980   */\n      tag_259\n      tag_138\n      jump\t// in\n    tag_259:\n        /* \"#utility.yul\":4865:4982   */\n    tag_258:\n        /* \"#utility.yul\":5006:5084   */\n      tag_260\n        /* \"#utility.yul\":5076:5083   */\n      dup8\n        /* \"#utility.yul\":5067:5073   */\n      dup3\n        /* \"#utility.yul\":5056:5065   */\n      dup9\n        /* \"#utility.yul\":5052:5074   */\n      add\n        /* \"#utility.yul\":5006:5084   */\n      tag_150\n      jump\t// in\n    tag_260:\n        /* \"#utility.yul\":4996:5084   */\n      swap5\n      pop\n        /* \"#utility.yul\":4792:5094   */\n      pop\n        /* \"#utility.yul\":5161:5163   */\n      0x20\n        /* \"#utility.yul\":5150:5159   */\n      dup6\n        /* \"#utility.yul\":5146:5164   */\n      add\n        /* \"#utility.yul\":5133:5165   */\n      calldataload\n        /* \"#utility.yul\":5192:5210   */\n      0xffffffffffffffff\n        /* \"#utility.yul\":5184:5190   */\n      dup2\n        /* \"#utility.yul\":5181:5211   */\n      gt\n        /* \"#utility.yul\":5178:5295   */\n      iszero\n      tag_261\n      jumpi\n        /* \"#utility.yul\":5214:5293   */\n      tag_262\n      tag_138\n      jump\t// in\n    tag_262:\n        /* \"#utility.yul\":5178:5295   */\n    tag_261:\n        /* \"#utility.yul\":5319:5397   */\n      tag_263\n        /* \"#utility.yul\":5389:5396   */\n      dup8\n        /* \"#utility.yul\":5380:5386   */\n      dup3\n        /* \"#utility.yul\":5369:5378   */\n      dup9\n        /* \"#utility.yul\":5365:5387   */\n      add\n        /* \"#utility.yul\":5319:5397   */\n      tag_150\n      jump\t// in\n    tag_263:\n        /* \"#utility.yul\":5309:5397   */\n      swap4\n      pop\n        /* \"#utility.yul\":5104:5407   */\n      pop\n        /* \"#utility.yul\":5446:5448   */\n      0x40\n        /* \"#utility.yul\":5472:5525   */\n      tag_264\n        /* \"#utility.yul\":5517:5524   */\n      dup8\n        /* \"#utility.yul\":5508:5514   */\n      dup3\n        /* \"#utility.yul\":5497:5506   */\n      dup9\n        /* \"#utility.yul\":5493:5515   */\n      add\n        /* \"#utility.yul\":5472:5525   */\n      tag_148\n      jump\t// in\n    tag_264:\n        /* \"#utility.yul\":5462:5525   */\n      swap3\n      pop\n        /* \"#utility.yul\":5417:5535   */\n      pop\n        /* \"#utility.yul\":5602:5604   */\n      0x60\n        /* \"#utility.yul\":5591:5600   */\n      dup6\n        /* \"#utility.yul\":5587:5605   */\n      add\n        /* \"#utility.yul\":5574:5606   */\n      calldataload\n        /* \"#utility.yul\":5633:5651   */\n      0xffffffffffffffff\n        /* \"#utility.yul\":5625:5631   */\n      dup2\n        /* \"#utility.yul\":5622:5652   */\n      gt\n        /* \"#utility.yul\":5619:5736   */\n      iszero\n      tag_265\n      jumpi\n        /* \"#utility.yul\":5655:5734   */\n      tag_266\n      tag_138\n      jump\t// in\n    tag_266:\n        /* \"#utility.yul\":5619:5736   */\n    tag_265:\n        /* \"#utility.yul\":5760:5823   */\n      tag_267\n        /* \"#utility.yul\":5815:5822   */\n      dup8\n        /* \"#utility.yul\":5806:5812   */\n      dup3\n        /* \"#utility.yul\":5795:5804   */\n      dup9\n        /* \"#utility.yul\":5791:5813   */\n      add\n        /* \"#utility.yul\":5760:5823   */\n      tag_155\n      jump\t// in\n    tag_267:\n        /* \"#utility.yul\":5750:5823   */\n      swap2\n      pop\n        /* \"#utility.yul\":5545:5833   */\n      pop\n        /* \"#utility.yul\":4475:5840   */\n      swap3\n      swap6\n      swap2\n      swap5\n      pop\n      swap3\n      pop\n      jump\t// out\n        /* \"#utility.yul\":5846:5964   */\n    tag_156:\n        /* \"#utility.yul\":5933:5957   */\n      tag_269\n        /* \"#utility.yul\":5951:5956   */\n      dup2\n        /* \"#utility.yul\":5933:5957   */\n      tag_146\n      jump\t// in\n    tag_269:\n        /* \"#utility.yul\":5928:5931   */\n      dup3\n        /* \"#utility.yul\":5921:5958   */\n      mstore\n        /* \"#utility.yul\":5846:5964   */\n      pop\n      pop\n      jump\t// out\n        /* \"#utility.yul\":5970:6192   */\n    tag_17:\n        /* \"#utility.yul\":6063:6067   */\n      0x00\n        /* \"#utility.yul\":6101:6103   */\n      0x20\n        /* \"#utility.yul\":6090:6099   */\n      dup3\n        /* \"#utility.yul\":6086:6104   */\n      add\n        /* \"#utility.yul\":6078:6104   */\n      swap1\n      pop\n        /* \"#utility.yul\":6114:6185   */\n      tag_271\n        /* \"#utility.yul\":6182:6183   */\n      0x00\n        /* \"#utility.yul\":6171:6180   */\n      dup4\n        /* \"#utility.yul\":6167:6184   */\n      add\n        /* \"#utility.yul\":6158:6164   */\n      dup5\n        /* \"#utility.yul\":6114:6185   */\n      tag_156\n      jump\t// in\n    tag_271:\n        /* \"#utility.yul\":5970:6192   */\n      swap3\n      swap2\n      pop\n      pop\n      jump\t// out\n        /* \"#utility.yul\":6198:6324   */\n    tag_157:\n        /* \"#utility.yul\":6235:6242   */\n      0x00\n        /* \"#utility.yul\":6275:6317   */\n      0xffffffffffffffffffffffffffffffffffffffff\n        /* \"#utility.yul\":6268:6273   */\n      dup3\n        /* \"#utility.yul\":6264:6318   */\n      and\n        /* \"#utility.yul\":6253:6318   */\n      swap1\n      pop\n        /* \"#utility.yul\":6198:6324   */\n      swap2\n      swap1\n      pop\n      jump\t// out\n        /* \"#utility.yul\":6330:6426   */\n    tag_158:\n        /* \"#utility.yul\":6367:6374   */\n      0x00\n        /* \"#utility.yul\":6396:6420   */\n      tag_274\n        /* \"#utility.yul\":6414:6419   */\n      dup3\n        /* \"#utility.yul\":6396:6420   */\n      tag_157\n      jump\t// in\n    tag_274:\n        /* \"#utility.yul\":6385:6420   */\n      swap1\n      pop\n        /* \"#utility.yul\":6330:6426   */\n      swap2\n      swap1\n      pop\n      jump\t// out\n        /* \"#utility.yul\":6432:6554   */\n    tag_159:\n        /* \"#utility.yul\":6505:6529   */\n      tag_276\n        /* \"#utility.yul\":6523:6528   */\n      dup2\n        /* \"#utility.yul\":6505:6529   */\n      tag_158\n      jump\t// in\n    tag_276:\n        /* \"#utility.yul\":6498:6503   */\n      dup2\n        /* \"#utility.yul\":6495:6530   */\n      eq\n        /* \"#utility.yul\":6485:6548   */\n      tag_277\n      jumpi\n        /* \"#utility.yul\":6544:6545   */\n      0x00\n        /* \"#utility.yul\":6541:6542   */\n      dup1\n        /* \"#utility.yul\":6534:6546   */\n      revert\n        /* \"#utility.yul\":6485:6548   */\n    tag_277:\n        /* \"#utility.yul\":6432:6554   */\n      pop\n      jump\t// out\n        /* \"#utility.yul\":6560:6699   */\n    tag_160:\n        /* \"#utility.yul\":6606:6611   */\n      0x00\n        /* \"#utility.yul\":6644:6650   */\n      dup2\n        /* \"#utility.yul\":6631:6651   */\n      calldataload\n        /* \"#utility.yul\":6622:6651   */\n      swap1\n      pop\n        /* \"#utility.yul\":6660:6693   */\n      tag_279\n        /* \"#utility.yul\":6687:6692   */\n      dup2\n        /* \"#utility.yul\":6660:6693   */\n      tag_159\n      jump\t// in\n    tag_279:\n        /* \"#utility.yul\":6560:6699   */\n      swap3\n      swap2\n      pop\n      pop\n      jump\t// out\n        /* \"#utility.yul\":6705:7324   */\n    tag_20:\n        /* \"#utility.yul\":6782:6788   */\n      0x00\n        /* \"#utility.yul\":6790:6796   */\n      dup1\n        /* \"#utility.yul\":6798:6804   */\n      0x00\n        /* \"#utility.yul\":6847:6849   */\n      0x60\n        /* \"#utility.yul\":6835:6844   */\n      dup5\n        /* \"#utility.yul\":6826:6833   */\n      dup7\n        /* \"#utility.yul\":6822:6845   */\n      sub\n        /* \"#utility.yul\":6818:6850   */\n      slt\n        /* \"#utility.yul\":6815:6934   */\n      iszero\n      tag_281\n      jumpi\n        /* \"#utility.yul\":6853:6932   */\n      tag_282\n      tag_137\n      jump\t// in\n    tag_282:\n        /* \"#utility.yul\":6815:6934   */\n    tag_281:\n        /* \"#utility.yul\":6973:6974   */\n      0x00\n        /* \"#utility.yul\":6998:7051   */\n      tag_283\n        /* \"#utility.yul\":7043:7050   */\n      dup7\n        /* \"#utility.yul\":7034:7040   */\n      dup3\n        /* \"#utility.yul\":7023:7032   */\n      dup8\n        /* \"#utility.yul\":7019:7041   */\n      add\n        /* \"#utility.yul\":6998:7051   */\n      tag_148\n      jump\t// in\n    tag_283:\n        /* \"#utility.yul\":6988:7051   */\n      swap4\n      pop\n        /* \"#utility.yul\":6944:7061   */\n      pop\n        /* \"#utility.yul\":7100:7102   */\n      0x20\n        /* \"#utility.yul\":7126:7179   */\n      tag_284\n        /* \"#utility.yul\":7171:7178   */\n      dup7\n        /* \"#utility.yul\":7162:7168   */\n      dup3\n        /* \"#utility.yul\":7151:7160   */\n      dup8\n        /* \"#utility.yul\":7147:7169   */\n      add\n        /* \"#utility.yul\":7126:7179   */\n      tag_148\n      jump\t// in\n    tag_284:\n        /* \"#utility.yul\":7116:7179   */\n      swap3\n      pop\n        /* \"#utility.yul\":7071:7189   */\n      pop\n        /* \"#utility.yul\":7228:7230   */\n      0x40\n        /* \"#utility.yul\":7254:7307   */\n      tag_285\n        /* \"#utility.yul\":7299:7306   */\n      dup7\n        /* \"#utility.yul\":7290:7296   */\n      dup3\n        /* \"#utility.yul\":7279:7288   */\n      dup8\n        /* \"#utility.yul\":7275:7297   */\n      add\n        /* \"#utility.yul\":7254:7307   */\n      tag_160\n      jump\t// in\n    tag_285:\n        /* \"#utility.yul\":7244:7307   */\n      swap2\n      pop\n        /* \"#utility.yul\":7199:7317   */\n      pop\n        /* \"#utility.yul\":6705:7324   */\n      swap3\n      pop\n      swap3\n      pop\n      swap3\n      jump\t// out\n        /* \"#utility.yul\":7330:7659   */\n    tag_24:\n        /* \"#utility.yul\":7389:7395   */\n      0x00\n        /* \"#utility.yul\":7438:7440   */\n      0x20\n        /* \"#utility.yul\":7426:7435   */\n      dup3\n        /* \"#utility.yul\":7417:7424   */\n      dup5\n        /* \"#utility.yul\":7413:7436   */\n      sub\n        /* \"#utility.yul\":7409:7441   */\n      slt\n        /* \"#utility.yul\":7406:7525   */\n      iszero\n      tag_287\n      jumpi\n        /* \"#utility.yul\":7444:7523   */\n      tag_288\n      tag_137\n      jump\t// in\n    tag_288:\n        /* \"#utility.yul\":7406:7525   */\n    tag_287:\n        /* \"#utility.yul\":7564:7565   */\n      0x00\n        /* \"#utility.yul\":7589:7642   */\n      tag_289\n        /* \"#utility.yul\":7634:7641   */\n      dup5\n        /* \"#utility.yul\":7625:7631   */\n      dup3\n        /* \"#utility.yul\":7614:7623   */\n      dup6\n        /* \"#utility.yul\":7610:7632   */\n      add\n        /* \"#utility.yul\":7589:7642   */\n      tag_148\n      jump\t// in\n    tag_289:\n        /* \"#utility.yul\":7579:7642   */\n      swap2\n      pop\n        /* \"#utility.yul\":7535:7652   */\n      pop\n        /* \"#utility.yul\":7330:7659   */\n      swap3\n      swap2\n      pop\n      pop\n      jump\t// out\n        /* \"#utility.yul\":7665:7764   */\n    tag_161:\n        /* \"#utility.yul\":7717:7723   */\n      0x00\n        /* \"#utility.yul\":7751:7756   */\n      dup2\n        /* \"#utility.yul\":7745:7757   */\n      mload\n        /* \"#utility.yul\":7735:7757   */\n      swap1\n      pop\n        /* \"#utility.yul\":7665:7764   */\n      swap2\n      swap1\n      pop\n      jump\t// out\n        /* \"#utility.yul\":7770:7939   */\n    tag_162:\n        /* \"#utility.yul\":7854:7865   */\n      0x00\n        /* \"#utility.yul\":7888:7894   */\n      dup3\n        /* \"#utility.yul\":7883:7886   */\n      dup3\n        /* \"#utility.yul\":7876:7895   */\n      mstore\n        /* \"#utility.yul\":7928:7932   */\n      0x20\n        /* \"#utility.yul\":7923:7926   */\n      dup3\n        /* \"#utility.yul\":7919:7933   */\n      add\n        /* \"#utility.yul\":7904:7933   */\n      swap1\n      pop\n        /* \"#utility.yul\":7770:7939   */\n      swap3\n      swap2\n      pop\n      pop\n      jump\t// out\n        /* \"#utility.yul\":7945:8191   */\n    tag_163:\n        /* \"#utility.yul\":8026:8027   */\n      0x00\n        /* \"#utility.yul\":8036:8149   */\n    tag_293:\n        /* \"#utility.yul\":8050:8056   */\n      dup4\n        /* \"#utility.yul\":8047:8048   */\n      dup2\n        /* \"#utility.yul\":8044:8057   */\n      lt\n        /* \"#utility.yul\":8036:8149   */\n      iszero\n      tag_295\n      jumpi\n        /* \"#utility.yul\":8135:8136   */\n      dup1\n        /* \"#utility.yul\":8130:8133   */\n      dup3\n        /* \"#utility.yul\":8126:8137   */\n      add\n        /* \"#utility.yul\":8120:8138   */\n      mload\n        /* \"#utility.yul\":8116:8117   */\n      dup2\n        /* \"#utility.yul\":8111:8114   */\n      dup5\n        /* \"#utility.yul\":8107:8118   */\n      add\n        /* \"#utility.yul\":8100:8139   */\n      mstore\n        /* \"#utility.yul\":8072:8074   */\n      0x20\n        /* \"#utility.yul\":8069:8070   */\n      dup2\n        /* \"#utility.yul\":8065:8075   */\n      add\n        /* \"#utility.yul\":8060:8075   */\n      swap1\n      pop\n        /* \"#utility.yul\":8036:8149   */\n      jump(tag_293)\n    tag_295:\n        /* \"#utility.yul\":8183:8184   */\n      0x00\n        /* \"#utility.yul\":8174:8180   */\n      dup5\n        /* \"#utility.yul\":8169:8172   */\n      dup5\n        /* \"#utility.yul\":8165:8181   */\n      add\n        /* \"#utility.yul\":8158:8185   */\n      mstore\n        /* \"#utility.yul\":8007:8191   */\n      pop\n        /* \"#utility.yul\":7945:8191   */\n      pop\n      pop\n      pop\n      jump\t// out\n        /* \"#utility.yul\":8197:8574   */\n    tag_164:\n        /* \"#utility.yul\":8285:8288   */\n      0x00\n        /* \"#utility.yul\":8313:8352   */\n      tag_297\n        /* \"#utility.yul\":8346:8351   */\n      dup3\n        /* \"#utility.yul\":8313:8352   */\n      tag_161\n      jump\t// in\n    tag_297:\n        /* \"#utility.yul\":8368:8439   */\n      tag_298\n        /* \"#utility.yul\":8432:8438   */\n      dup2\n        /* \"#utility.yul\":8427:8430   */\n      dup6\n        /* \"#utility.yul\":8368:8439   */\n      tag_162\n      jump\t// in\n    tag_298:\n        /* \"#utility.yul\":8361:8439   */\n      swap4\n      pop\n        /* \"#utility.yul\":8448:8513   */\n      tag_299\n        /* \"#utility.yul\":8506:8512   */\n      dup2\n        /* \"#utility.yul\":8501:8504   */\n      dup6\n        /* \"#utility.yul\":8494:8498   */\n      0x20\n        /* \"#utility.yul\":8487:8492   */\n      dup7\n        /* \"#utility.yul\":8483:8499   */\n      add\n        /* \"#utility.yul\":8448:8513   */\n      tag_163\n      jump\t// in\n    tag_299:\n        /* \"#utility.yul\":8538:8567   */\n      tag_300\n        /* \"#utility.yul\":8560:8566   */\n      dup2\n        /* \"#utility.yul\":8538:8567   */\n      tag_140\n      jump\t// in\n    tag_300:\n        /* \"#utility.yul\":8533:8536   */\n      dup5\n        /* \"#utility.yul\":8529:8568   */\n      add\n        /* \"#utility.yul\":8522:8568   */\n      swap2\n      pop\n        /* \"#utility.yul\":8289:8574   */\n      pop\n        /* \"#utility.yul\":8197:8574   */\n      swap3\n      swap2\n      pop\n      pop\n      jump\t// out\n        /* \"#utility.yul\":8580:9003   */\n    tag_27:\n        /* \"#utility.yul\":8721:8725   */\n      0x00\n        /* \"#utility.yul\":8759:8761   */\n      0x40\n        /* \"#utility.yul\":8748:8757   */\n      dup3\n        /* \"#utility.yul\":8744:8762   */\n      add\n        /* \"#utility.yul\":8736:8762   */\n      swap1\n      pop\n        /* \"#utility.yul\":8808:8817   */\n      dup2\n        /* \"#utility.yul\":8802:8806   */\n      dup2\n        /* \"#utility.yul\":8798:8818   */\n      sub\n        /* \"#utility.yul\":8794:8795   */\n      0x00\n        /* \"#utility.yul\":8783:8792   */\n      dup4\n        /* \"#utility.yul\":8779:8796   */\n      add\n        /* \"#utility.yul\":8772:8819   */\n      mstore\n        /* \"#utility.yul\":8836:8914   */\n      tag_302\n        /* \"#utility.yul\":8909:8913   */\n      dup2\n        /* \"#utility.yul\":8900:8906   */\n      dup6\n        /* \"#utility.yul\":8836:8914   */\n      tag_164\n      jump\t// in\n    tag_302:\n        /* \"#utility.yul\":8828:8914   */\n      swap1\n      pop\n        /* \"#utility.yul\":8924:8996   */\n      tag_303\n        /* \"#utility.yul\":8992:8994   */\n      0x20\n        /* \"#utility.yul\":8981:8990   */\n      dup4\n        /* \"#utility.yul\":8977:8995   */\n      add\n        /* \"#utility.yul\":8968:8974   */\n      dup5\n        /* \"#utility.yul\":8924:8996   */\n      tag_156\n      jump\t// in\n    tag_303:\n        /* \"#utility.yul\":8580:9003   */\n      swap4\n      swap3\n      pop\n      pop\n      pop\n      jump\t// out\n        /* \"#utility.yul\":9009:9123   */\n    tag_165:\n        /* \"#utility.yul\":9076:9082   */\n      0x00\n        /* \"#utility.yul\":9110:9115   */\n      dup2\n        /* \"#utility.yul\":9104:9116   */\n      mload\n        /* \"#utility.yul\":9094:9116   */\n      swap1\n      pop\n        /* \"#utility.yul\":9009:9123   */\n      swap2\n      swap1\n      pop\n      jump\t// out\n        /* \"#utility.yul\":9129:9313   */\n    tag_166:\n        /* \"#utility.yul\":9228:9239   */\n      0x00\n        /* \"#utility.yul\":9262:9268   */\n      dup3\n        /* \"#utility.yul\":9257:9260   */\n      dup3\n        /* \"#utility.yul\":9250:9269   */\n      mstore\n        /* \"#utility.yul\":9302:9306   */\n      0x20\n        /* \"#utility.yul\":9297:9300   */\n      dup3\n        /* \"#utility.yul\":9293:9307   */\n      add\n        /* \"#utility.yul\":9278:9307   */\n      swap1\n      pop\n        /* \"#utility.yul\":9129:9313   */\n      swap3\n      swap2\n      pop\n      pop\n      jump\t// out\n        /* \"#utility.yul\":9319:9451   */\n    tag_167:\n        /* \"#utility.yul\":9386:9390   */\n      0x00\n        /* \"#utility.yul\":9409:9412   */\n      dup2\n        /* \"#utility.yul\":9401:9412   */\n      swap1\n      pop\n        /* \"#utility.yul\":9439:9443   */\n      0x20\n        /* \"#utility.yul\":9434:9437   */\n      dup3\n        /* \"#utility.yul\":9430:9444   */\n      add\n        /* \"#utility.yul\":9422:9444   */\n      swap1\n      pop\n        /* \"#utility.yul\":9319:9451   */\n      swap2\n      swap1\n      pop\n      jump\t// out\n        /* \"#utility.yul\":9457:9565   */\n    tag_168:\n        /* \"#utility.yul\":9534:9558   */\n      tag_308\n        /* \"#utility.yul\":9552:9557   */\n      dup2\n        /* \"#utility.yul\":9534:9558   */\n      tag_146\n      jump\t// in\n    tag_308:\n        /* \"#utility.yul\":9529:9532   */\n      dup3\n        /* \"#utility.yul\":9522:9559   */\n      mstore\n        /* \"#utility.yul\":9457:9565   */\n      pop\n      pop\n      jump\t// out\n        /* \"#utility.yul\":9571:9750   */\n    tag_169:\n        /* \"#utility.yul\":9640:9650   */\n      0x00\n        /* \"#utility.yul\":9661:9707   */\n      tag_310\n        /* \"#utility.yul\":9703:9706   */\n      dup4\n        /* \"#utility.yul\":9695:9701   */\n      dup4\n        /* \"#utility.yul\":9661:9707   */\n      tag_168\n      jump\t// in\n    tag_310:\n        /* \"#utility.yul\":9739:9743   */\n      0x20\n        /* \"#utility.yul\":9734:9737   */\n      dup4\n        /* \"#utility.yul\":9730:9744   */\n      add\n        /* \"#utility.yul\":9716:9744   */\n      swap1\n      pop\n        /* \"#utility.yul\":9571:9750   */\n      swap3\n      swap2\n      pop\n      pop\n      jump\t// out\n        /* \"#utility.yul\":9756:9869   */\n    tag_170:\n        /* \"#utility.yul\":9826:9830   */\n      0x00\n        /* \"#utility.yul\":9858:9862   */\n      0x20\n        /* \"#utility.yul\":9853:9856   */\n      dup3\n        /* \"#utility.yul\":9849:9863   */\n      add\n        /* \"#utility.yul\":9841:9863   */\n      swap1\n      pop\n        /* \"#utility.yul\":9756:9869   */\n      swap2\n      swap1\n      pop\n      jump\t// out\n        /* \"#utility.yul\":9905:10637   */\n    tag_171:\n        /* \"#utility.yul\":10024:10027   */\n      0x00\n        /* \"#utility.yul\":10053:10107   */\n      tag_313\n        /* \"#utility.yul\":10101:10106   */\n      dup3\n        /* \"#utility.yul\":10053:10107   */\n      tag_165\n      jump\t// in\n    tag_313:\n        /* \"#utility.yul\":10123:10209   */\n      tag_314\n        /* \"#utility.yul\":10202:10208   */\n      dup2\n        /* \"#utility.yul\":10197:10200   */\n      dup6\n        /* \"#utility.yul\":10123:10209   */\n      tag_166\n      jump\t// in\n    tag_314:\n        /* \"#utility.yul\":10116:10209   */\n      swap4\n      pop\n        /* \"#utility.yul\":10233:10289   */\n      tag_315\n        /* \"#utility.yul\":10283:10288   */\n      dup4\n        /* \"#utility.yul\":10233:10289   */\n      tag_167\n      jump\t// in\n    tag_315:\n        /* \"#utility.yul\":10312:10319   */\n      dup1\n        /* \"#utility.yul\":10343:10344   */\n      0x00\n        /* \"#utility.yul\":10328:10612   */\n    tag_316:\n        /* \"#utility.yul\":10353:10359   */\n      dup4\n        /* \"#utility.yul\":10350:10351   */\n      dup2\n        /* \"#utility.yul\":10347:10360   */\n      lt\n        /* \"#utility.yul\":10328:10612   */\n      iszero\n      tag_318\n      jumpi\n        /* \"#utility.yul\":10429:10435   */\n      dup2\n        /* \"#utility.yul\":10423:10436   */\n      mload\n        /* \"#utility.yul\":10456:10519   */\n      tag_319\n        /* \"#utility.yul\":10515:10518   */\n      dup9\n        /* \"#utility.yul\":10500:10513   */\n      dup3\n        /* \"#utility.yul\":10456:10519   */\n      tag_169\n      jump\t// in\n    tag_319:\n        /* \"#utility.yul\":10449:10519   */\n      swap8\n      pop\n        /* \"#utility.yul\":10542:10602   */\n      tag_320\n        /* \"#utility.yul\":10595:10601   */\n      dup4\n        /* \"#utility.yul\":10542:10602   */\n      tag_170\n      jump\t// in\n    tag_320:\n        /* \"#utility.yul\":10532:10602   */\n      swap3\n      pop\n        /* \"#utility.yul\":10388:10612   */\n      pop\n        /* \"#utility.yul\":10375:10376   */\n      0x01\n        /* \"#utility.yul\":10372:10373   */\n      dup2\n        /* \"#utility.yul\":10368:10377   */\n      add\n        /* \"#utility.yul\":10363:10377   */\n      swap1\n      pop\n        /* \"#utility.yul\":10328:10612   */\n      jump(tag_316)\n    tag_318:\n        /* \"#utility.yul\":10332:10346   */\n      pop\n        /* \"#utility.yul\":10628:10631   */\n      dup6\n        /* \"#utility.yul\":10621:10631   */\n      swap4\n      pop\n        /* \"#utility.yul\":10029:10637   */\n      pop\n      pop\n      pop\n        /* \"#utility.yul\":9905:10637   */\n      swap3\n      swap2\n      pop\n      pop\n      jump\t// out\n        /* \"#utility.yul\":10643:11277   */\n    tag_32:\n        /* \"#utility.yul\":10864:10868   */\n      0x00\n        /* \"#utility.yul\":10902:10904   */\n      0x40\n        /* \"#utility.yul\":10891:10900   */\n      dup3\n        /* \"#utility.yul\":10887:10905   */\n      add\n        /* \"#utility.yul\":10879:10905   */\n      swap1\n      pop\n        /* \"#utility.yul\":10951:10960   */\n      dup2\n        /* \"#utility.yul\":10945:10949   */\n      dup2\n        /* \"#utility.yul\":10941:10961   */\n      sub\n        /* \"#utility.yul\":10937:10938   */\n      0x00\n        /* \"#utility.yul\":10926:10935   */\n      dup4\n        /* \"#utility.yul\":10922:10939   */\n      add\n        /* \"#utility.yul\":10915:10962   */\n      mstore\n        /* \"#utility.yul\":10979:11087   */\n      tag_322\n        /* \"#utility.yul\":11082:11086   */\n      dup2\n        /* \"#utility.yul\":11073:11079   */\n      dup6\n        /* \"#utility.yul\":10979:11087   */\n      tag_171\n      jump\t// in\n    tag_322:\n        /* \"#utility.yul\":10971:11087   */\n      swap1\n      pop\n        /* \"#utility.yul\":11134:11143   */\n      dup2\n        /* \"#utility.yul\":11128:11132   */\n      dup2\n        /* \"#utility.yul\":11124:11144   */\n      sub\n        /* \"#utility.yul\":11119:11121   */\n      0x20\n        /* \"#utility.yul\":11108:11117   */\n      dup4\n        /* \"#utility.yul\":11104:11122   */\n      add\n        /* \"#utility.yul\":11097:11145   */\n      mstore\n        /* \"#utility.yul\":11162:11270   */\n      tag_323\n        /* \"#utility.yul\":11265:11269   */\n      dup2\n        /* \"#utility.yul\":11256:11262   */\n      dup5\n        /* \"#utility.yul\":11162:11270   */\n      tag_171\n      jump\t// in\n    tag_323:\n        /* \"#utility.yul\":11154:11270   */\n      swap1\n      pop\n        /* \"#utility.yul\":10643:11277   */\n      swap4\n      swap3\n      pop\n      pop\n      pop\n      jump\t// out\n        /* \"#utility.yul\":11283:11401   */\n    tag_172:\n        /* \"#utility.yul\":11370:11394   */\n      tag_325\n        /* \"#utility.yul\":11388:11393   */\n      dup2\n        /* \"#utility.yul\":11370:11394   */\n      tag_158\n      jump\t// in\n    tag_325:\n        /* \"#utility.yul\":11365:11368   */\n      dup3\n        /* \"#utility.yul\":11358:11395   */\n      mstore\n        /* \"#utility.yul\":11283:11401   */\n      pop\n      pop\n      jump\t// out\n        /* \"#utility.yul\":11407:11629   */\n    tag_36:\n        /* \"#utility.yul\":11500:11504   */\n      0x00\n        /* \"#utility.yul\":11538:11540   */\n      0x20\n        /* \"#utility.yul\":11527:11536   */\n      dup3\n        /* \"#utility.yul\":11523:11541   */\n      add\n        /* \"#utility.yul\":11515:11541   */\n      swap1\n      pop\n        /* \"#utility.yul\":11551:11622   */\n      tag_327\n        /* \"#utility.yul\":11619:11620   */\n      0x00\n        /* \"#utility.yul\":11608:11617   */\n      dup4\n        /* \"#utility.yul\":11604:11621   */\n      add\n        /* \"#utility.yul\":11595:11601   */\n      dup5\n        /* \"#utility.yul\":11551:11622   */\n      tag_172\n      jump\t// in\n    tag_327:\n        /* \"#utility.yul\":11407:11629   */\n      swap3\n      swap2\n      pop\n      pop\n      jump\t// out\n        /* \"#utility.yul\":11635:12434   */\n    tag_39:\n        /* \"#utility.yul\":11722:11728   */\n      0x00\n        /* \"#utility.yul\":11730:11736   */\n      dup1\n        /* \"#utility.yul\":11738:11744   */\n      0x00\n        /* \"#utility.yul\":11787:11789   */\n      0x60\n        /* \"#utility.yul\":11775:11784   */\n      dup5\n        /* \"#utility.yul\":11766:11773   */\n      dup7\n        /* \"#utility.yul\":11762:11785   */\n      sub\n        /* \"#utility.yul\":11758:11790   */\n      slt\n        /* \"#utility.yul\":11755:11874   */\n      iszero\n      tag_329\n      jumpi\n        /* \"#utility.yul\":11793:11872   */\n      tag_330\n      tag_137\n      jump\t// in\n    tag_330:\n        /* \"#utility.yul\":11755:11874   */\n    tag_329:\n        /* \"#utility.yul\":11913:11914   */\n      0x00\n        /* \"#utility.yul\":11938:11991   */\n      tag_331\n        /* \"#utility.yul\":11983:11990   */\n      dup7\n        /* \"#utility.yul\":11974:11980   */\n      dup3\n        /* \"#utility.yul\":11963:11972   */\n      dup8\n        /* \"#utility.yul\":11959:11981   */\n      add\n        /* \"#utility.yul\":11938:11991   */\n      tag_148\n      jump\t// in\n    tag_331:\n        /* \"#utility.yul\":11928:11991   */\n      swap4\n      pop\n        /* \"#utility.yul\":11884:12001   */\n      pop\n        /* \"#utility.yul\":12040:12042   */\n      0x20\n        /* \"#utility.yul\":12066:12119   */\n      tag_332\n        /* \"#utility.yul\":12111:12118   */\n      dup7\n        /* \"#utility.yul\":12102:12108   */\n      dup3\n        /* \"#utility.yul\":12091:12100   */\n      dup8\n        /* \"#utility.yul\":12087:12109   */\n      add\n        /* \"#utility.yul\":12066:12119   */\n      tag_148\n      jump\t// in\n    tag_332:\n        /* \"#utility.yul\":12056:12119   */\n      swap3\n      pop\n        /* \"#utility.yul\":12011:12129   */\n      pop\n        /* \"#utility.yul\":12196:12198   */\n      0x40\n        /* \"#utility.yul\":12185:12194   */\n      dup5\n        /* \"#utility.yul\":12181:12199   */\n      add\n        /* \"#utility.yul\":12168:12200   */\n      calldataload\n        /* \"#utility.yul\":12227:12245   */\n      0xffffffffffffffff\n        /* \"#utility.yul\":12219:12225   */\n      dup2\n        /* \"#utility.yul\":12216:12246   */\n      gt\n        /* \"#utility.yul\":12213:12330   */\n      iszero\n      tag_333\n      jumpi\n        /* \"#utility.yul\":12249:12328   */\n      tag_334\n      tag_138\n      jump\t// in\n    tag_334:\n        /* \"#utility.yul\":12213:12330   */\n    tag_333:\n        /* \"#utility.yul\":12354:12417   */\n      tag_335\n        /* \"#utility.yul\":12409:12416   */\n      dup7\n        /* \"#utility.yul\":12400:12406   */\n      dup3\n        /* \"#utility.yul\":12389:12398   */\n      dup8\n        /* \"#utility.yul\":12385:12407   */\n      add\n        /* \"#utility.yul\":12354:12417   */\n      tag_155\n      jump\t// in\n    tag_335:\n        /* \"#utility.yul\":12344:12417   */\n      swap2\n      pop\n        /* \"#utility.yul\":12139:12427   */\n      pop\n        /* \"#utility.yul\":11635:12434   */\n      swap3\n      pop\n      swap3\n      pop\n      swap3\n      jump\t// out\n        /* \"#utility.yul\":12440:12973   */\n    tag_45:\n        /* \"#utility.yul\":12609:12613   */\n      0x00\n        /* \"#utility.yul\":12647:12649   */\n      0x60\n        /* \"#utility.yul\":12636:12645   */\n      dup3\n        /* \"#utility.yul\":12632:12650   */\n      add\n        /* \"#utility.yul\":12624:12650   */\n      swap1\n      pop\n        /* \"#utility.yul\":12660:12731   */\n      tag_337\n        /* \"#utility.yul\":12728:12729   */\n      0x00\n        /* \"#utility.yul\":12717:12726   */\n      dup4\n        /* \"#utility.yul\":12713:12730   */\n      add\n        /* \"#utility.yul\":12704:12710   */\n      dup7\n        /* \"#utility.yul\":12660:12731   */\n      tag_156\n      jump\t// in\n    tag_337:\n        /* \"#utility.yul\":12778:12787   */\n      dup2\n        /* \"#utility.yul\":12772:12776   */\n      dup2\n        /* \"#utility.yul\":12768:12788   */\n      sub\n        /* \"#utility.yul\":12763:12765   */\n      0x20\n        /* \"#utility.yul\":12752:12761   */\n      dup4\n        /* \"#utility.yul\":12748:12766   */\n      add\n        /* \"#utility.yul\":12741:12789   */\n      mstore\n        /* \"#utility.yul\":12806:12884   */\n      tag_338\n        /* \"#utility.yul\":12879:12883   */\n      dup2\n        /* \"#utility.yul\":12870:12876   */\n      dup6\n        /* \"#utility.yul\":12806:12884   */\n      tag_164\n      jump\t// in\n    tag_338:\n        /* \"#utility.yul\":12798:12884   */\n      swap1\n      pop\n        /* \"#utility.yul\":12894:12966   */\n      tag_339\n        /* \"#utility.yul\":12962:12964   */\n      0x40\n        /* \"#utility.yul\":12951:12960   */\n      dup4\n        /* \"#utility.yul\":12947:12965   */\n      add\n        /* \"#utility.yul\":12938:12944   */\n      dup5\n        /* \"#utility.yul\":12894:12966   */\n      tag_172\n      jump\t// in\n    tag_339:\n        /* \"#utility.yul\":12440:12973   */\n      swap5\n      swap4\n      pop\n      pop\n      pop\n      pop\n      jump\t// out\n        /* \"#utility.yul\":12979:13924   */\n    tag_48:\n        /* \"#utility.yul\":13075:13081   */\n      0x00\n        /* \"#utility.yul\":13083:13089   */\n      dup1\n        /* \"#utility.yul\":13091:13097   */\n      0x00\n        /* \"#utility.yul\":13099:13105   */\n      dup1\n        /* \"#utility.yul\":13148:13151   */\n      0x80\n        /* \"#utility.yul\":13136:13145   */\n      dup6\n        /* \"#utility.yul\":13127:13134   */\n      dup8\n        /* \"#utility.yul\":13123:13146   */\n      sub\n        /* \"#utility.yul\":13119:13152   */\n      slt\n        /* \"#utility.yul\":13116:13236   */\n      iszero\n      tag_341\n      jumpi\n        /* \"#utility.yul\":13155:13234   */\n      tag_342\n      tag_137\n      jump\t// in\n    tag_342:\n        /* \"#utility.yul\":13116:13236   */\n    tag_341:\n        /* \"#utility.yul\":13275:13276   */\n      0x00\n        /* \"#utility.yul\":13300:13353   */\n      tag_343\n        /* \"#utility.yul\":13345:13352   */\n      dup8\n        /* \"#utility.yul\":13336:13342   */\n      dup3\n        /* \"#utility.yul\":13325:13334   */\n      dup9\n        /* \"#utility.yul\":13321:13343   */\n      add\n        /* \"#utility.yul\":13300:13353   */\n      tag_148\n      jump\t// in\n    tag_343:\n        /* \"#utility.yul\":13290:13353   */\n      swap5\n      pop\n        /* \"#utility.yul\":13246:13363   */\n      pop\n        /* \"#utility.yul\":13402:13404   */\n      0x20\n        /* \"#utility.yul\":13428:13481   */\n      tag_344\n        /* \"#utility.yul\":13473:13480   */\n      dup8\n        /* \"#utility.yul\":13464:13470   */\n      dup3\n        /* \"#utility.yul\":13453:13462   */\n      dup9\n        /* \"#utility.yul\":13449:13471   */\n      add\n        /* \"#utility.yul\":13428:13481   */\n      tag_148\n      jump\t// in\n    tag_344:\n        /* \"#utility.yul\":13418:13481   */\n      swap4\n      pop\n        /* \"#utility.yul\":13373:13491   */\n      pop\n        /* \"#utility.yul\":13530:13532   */\n      0x40\n        /* \"#utility.yul\":13556:13609   */\n      tag_345\n        /* \"#utility.yul\":13601:13608   */\n      dup8\n        /* \"#utility.yul\":13592:13598   */\n      dup3\n        /* \"#utility.yul\":13581:13590   */\n      dup9\n        /* \"#utility.yul\":13577:13599   */\n      add\n        /* \"#utility.yul\":13556:13609   */\n      tag_160\n      jump\t// in\n    tag_345:\n        /* \"#utility.yul\":13546:13609   */\n      swap3\n      pop\n        /* \"#utility.yul\":13501:13619   */\n      pop\n        /* \"#utility.yul\":13686:13688   */\n      0x60\n        /* \"#utility.yul\":13675:13684   */\n      dup6\n        /* \"#utility.yul\":13671:13689   */\n      add\n        /* \"#utility.yul\":13658:13690   */\n      calldataload\n        /* \"#utility.yul\":13717:13735   */\n      0xffffffffffffffff\n        /* \"#utility.yul\":13709:13715   */\n      dup2\n        /* \"#utility.yul\":13706:13736   */\n      gt\n        /* \"#utility.yul\":13703:13820   */\n      iszero\n      tag_346\n      jumpi\n        /* \"#utility.yul\":13739:13818   */\n      tag_347\n      tag_138\n      jump\t// in\n    tag_347:\n        /* \"#utility.yul\":13703:13820   */\n    tag_346:\n        /* \"#utility.yul\":13844:13907   */\n      tag_348\n        /* \"#utility.yul\":13899:13906   */\n      dup8\n        /* \"#utility.yul\":13890:13896   */\n      dup3\n        /* \"#utility.yul\":13879:13888   */\n      dup9\n        /* \"#utility.yul\":13875:13897   */\n      add\n        /* \"#utility.yul\":13844:13907   */\n      tag_155\n      jump\t// in\n    tag_348:\n        /* \"#utility.yul\":13834:13907   */\n      swap2\n      pop\n        /* \"#utility.yul\":13629:13917   */\n      pop\n        /* \"#utility.yul\":12979:13924   */\n      swap3\n      swap6\n      swap2\n      swap5\n      pop\n      swap3\n      pop\n      jump\t// out\n        /* \"#utility.yul\":13930:14155   */\n    tag_173:\n        /* \"#utility.yul\":14070:14104   */\n      0x596f7520646f6e277420686176652061636365737320746f2074686973206675\n        /* \"#utility.yul\":14066:14067   */\n      0x00\n        /* \"#utility.yul\":14058:14064   */\n      dup3\n        /* \"#utility.yul\":14054:14068   */\n      add\n        /* \"#utility.yul\":14047:14105   */\n      mstore\n        /* \"#utility.yul\":14139:14147   */\n      0x6e6374696f6e0000000000000000000000000000000000000000000000000000\n        /* \"#utility.yul\":14134:14136   */\n      0x20\n        /* \"#utility.yul\":14126:14132   */\n      dup3\n        /* \"#utility.yul\":14122:14137   */\n      add\n        /* \"#utility.yul\":14115:14148   */\n      mstore\n        /* \"#utility.yul\":13930:14155   */\n      pop\n      jump\t// out\n        /* \"#utility.yul\":14161:14527   */\n    tag_174:\n        /* \"#utility.yul\":14303:14306   */\n      0x00\n        /* \"#utility.yul\":14324:14391   */\n      tag_351\n        /* \"#utility.yul\":14388:14390   */\n      0x26\n        /* \"#utility.yul\":14383:14386   */\n      dup4\n        /* \"#utility.yul\":14324:14391   */\n      tag_162\n      jump\t// in\n    tag_351:\n        /* \"#utility.yul\":14317:14391   */\n      swap2\n      pop\n        /* \"#utility.yul\":14400:14493   */\n      tag_352\n        /* \"#utility.yul\":14489:14492   */\n      dup3\n        /* \"#utility.yul\":14400:14493   */\n      tag_173\n      jump\t// in\n    tag_352:\n        /* \"#utility.yul\":14518:14520   */\n      0x40\n        /* \"#utility.yul\":14513:14516   */\n      dup3\n        /* \"#utility.yul\":14509:14521   */\n      add\n        /* \"#utility.yul\":14502:14521   */\n      swap1\n      pop\n        /* \"#utility.yul\":14161:14527   */\n      swap2\n      swap1\n      pop\n      jump\t// out\n        /* \"#utility.yul\":14533:14952   */\n    tag_53:\n        /* \"#utility.yul\":14699:14703   */\n      0x00\n        /* \"#utility.yul\":14737:14739   */\n      0x20\n        /* \"#utility.yul\":14726:14735   */\n      dup3\n        /* \"#utility.yul\":14722:14740   */\n      add\n        /* \"#utility.yul\":14714:14740   */\n      swap1\n      pop\n        /* \"#utility.yul\":14786:14795   */\n      dup2\n        /* \"#utility.yul\":14780:14784   */\n      dup2\n        /* \"#utility.yul\":14776:14796   */\n      sub\n        /* \"#utility.yul\":14772:14773   */\n      0x00\n        /* \"#utility.yul\":14761:14770   */\n      dup4\n        /* \"#utility.yul\":14757:14774   */\n      add\n        /* \"#utility.yul\":14750:14797   */\n      mstore\n        /* \"#utility.yul\":14814:14945   */\n      tag_354\n        /* \"#utility.yul\":14940:14944   */\n      dup2\n        /* \"#utility.yul\":14814:14945   */\n      tag_174\n      jump\t// in\n    tag_354:\n        /* \"#utility.yul\":14806:14945   */\n      swap1\n      pop\n        /* \"#utility.yul\":14533:14952   */\n      swap2\n      swap1\n      pop\n      jump\t// out\n        /* \"#utility.yul\":14958:15178   */\n    tag_175:\n        /* \"#utility.yul\":15098:15132   */\n      0x4e6f7420656e6f7567746820617267756d656e747320696e20746865206c6973\n        /* \"#utility.yul\":15094:15095   */\n      0x00\n        /* \"#utility.yul\":15086:15092   */\n      dup3\n        /* \"#utility.yul\":15082:15096   */\n      add\n        /* \"#utility.yul\":15075:15133   */\n      mstore\n        /* \"#utility.yul\":15167:15170   */\n      0x7400000000000000000000000000000000000000000000000000000000000000\n        /* \"#utility.yul\":15162:15164   */\n      0x20\n        /* \"#utility.yul\":15154:15160   */\n      dup3\n        /* \"#utility.yul\":15150:15165   */\n      add\n        /* \"#utility.yul\":15143:15171   */\n      mstore\n        /* \"#utility.yul\":14958:15178   */\n      pop\n      jump\t// out\n        /* \"#utility.yul\":15184:15550   */\n    tag_176:\n        /* \"#utility.yul\":15326:15329   */\n      0x00\n        /* \"#utility.yul\":15347:15414   */\n      tag_357\n        /* \"#utility.yul\":15411:15413   */\n      0x21\n        /* \"#utility.yul\":15406:15409   */\n      dup4\n        /* \"#utility.yul\":15347:15414   */\n      tag_162\n      jump\t// in\n    tag_357:\n        /* \"#utility.yul\":15340:15414   */\n      swap2\n      pop\n        /* \"#utility.yul\":15423:15516   */\n      tag_358\n        /* \"#utility.yul\":15512:15515   */\n      dup3\n        /* \"#utility.yul\":15423:15516   */\n      tag_175\n      jump\t// in\n    tag_358:\n        /* \"#utility.yul\":15541:15543   */\n      0x40\n        /* \"#utility.yul\":15536:15539   */\n      dup3\n        /* \"#utility.yul\":15532:15544   */\n      add\n        /* \"#utility.yul\":15525:15544   */\n      swap1\n      pop\n        /* \"#utility.yul\":15184:15550   */\n      swap2\n      swap1\n      pop\n      jump\t// out\n        /* \"#utility.yul\":15556:15975   */\n    tag_57:\n        /* \"#utility.yul\":15722:15726   */\n      0x00\n        /* \"#utility.yul\":15760:15762   */\n      0x20\n        /* \"#utility.yul\":15749:15758   */\n      dup3\n        /* \"#utility.yul\":15745:15763   */\n      add\n        /* \"#utility.yul\":15737:15763   */\n      swap1\n      pop\n        /* \"#utility.yul\":15809:15818   */\n      dup2\n        /* \"#utility.yul\":15803:15807   */\n      dup2\n        /* \"#utility.yul\":15799:15819   */\n      sub\n        /* \"#utility.yul\":15795:15796   */\n      0x00\n        /* \"#utility.yul\":15784:15793   */\n      dup4\n        /* \"#utility.yul\":15780:15797   */\n      add\n        /* \"#utility.yul\":15773:15820   */\n      mstore\n        /* \"#utility.yul\":15837:15968   */\n      tag_360\n        /* \"#utility.yul\":15963:15967   */\n      dup2\n        /* \"#utility.yul\":15837:15968   */\n      tag_176\n      jump\t// in\n    tag_360:\n        /* \"#utility.yul\":15829:15968   */\n      swap1\n      pop\n        /* \"#utility.yul\":15556:15975   */\n      swap2\n      swap1\n      pop\n      jump\t// out\n        /* \"#utility.yul\":15981:16161   */\n    tag_63:\n        /* \"#utility.yul\":16029:16106   */\n      0x4e487b7100000000000000000000000000000000000000000000000000000000\n        /* \"#utility.yul\":16026:16027   */\n      0x00\n        /* \"#utility.yul\":16019:16107   */\n      mstore\n        /* \"#utility.yul\":16126:16130   */\n      0x32\n        /* \"#utility.yul\":16123:16124   */\n      0x04\n        /* \"#utility.yul\":16116:16131   */\n      mstore\n        /* \"#utility.yul\":16150:16154   */\n      0x24\n        /* \"#utility.yul\":16147:16148   */\n      0x00\n        /* \"#utility.yul\":16140:16155   */\n      revert\n        /* \"#utility.yul\":16167:16387   */\n    tag_177:\n        /* \"#utility.yul\":16307:16341   */\n      0x4e6f7420656e6f75677468207175616e7469747920696e207468652073746f63\n        /* \"#utility.yul\":16303:16304   */\n      0x00\n        /* \"#utility.yul\":16295:16301   */\n      dup3\n        /* \"#utility.yul\":16291:16305   */\n      add\n        /* \"#utility.yul\":16284:16342   */\n      mstore\n        /* \"#utility.yul\":16376:16379   */\n      0x6b00000000000000000000000000000000000000000000000000000000000000\n        /* \"#utility.yul\":16371:16373   */\n      0x20\n        /* \"#utility.yul\":16363:16369   */\n      dup3\n        /* \"#utility.yul\":16359:16374   */\n      add\n        /* \"#utility.yul\":16352:16380   */\n      mstore\n        /* \"#utility.yul\":16167:16387   */\n      pop\n      jump\t// out\n        /* \"#utility.yul\":16393:16759   */\n    tag_178:\n        /* \"#utility.yul\":16535:16538   */\n      0x00\n        /* \"#utility.yul\":16556:16623   */\n      tag_364\n        /* \"#utility.yul\":16620:16622   */\n      0x21\n        /* \"#utility.yul\":16615:16618   */\n      dup4\n        /* \"#utility.yul\":16556:16623   */\n      tag_162\n      jump\t// in\n    tag_364:\n        /* \"#utility.yul\":16549:16623   */\n      swap2\n      pop\n        /* \"#utility.yul\":16632:16725   */\n      tag_365\n        /* \"#utility.yul\":16721:16724   */\n      dup3\n        /* \"#utility.yul\":16632:16725   */\n      tag_177\n      jump\t// in\n    tag_365:\n        /* \"#utility.yul\":16750:16752   */\n      0x40\n        /* \"#utility.yul\":16745:16748   */\n      dup3\n        /* \"#utility.yul\":16741:16753   */\n      add\n        /* \"#utility.yul\":16734:16753   */\n      swap1\n      pop\n        /* \"#utility.yul\":16393:16759   */\n      swap2\n      swap1\n      pop\n      jump\t// out\n        /* \"#utility.yul\":16765:17184   */\n    tag_68:\n        /* \"#utility.yul\":16931:16935   */\n      0x00\n        /* \"#utility.yul\":16969:16971   */\n      0x20\n        /* \"#utility.yul\":16958:16967   */\n      dup3\n        /* \"#utility.yul\":16954:16972   */\n      add\n        /* \"#utility.yul\":16946:16972   */\n      swap1\n      pop\n        /* \"#utility.yul\":17018:17027   */\n      dup2\n        /* \"#utility.yul\":17012:17016   */\n      dup2\n        /* \"#utility.yul\":17008:17028   */\n      sub\n        /* \"#utility.yul\":17004:17005   */\n      0x00\n        /* \"#utility.yul\":16993:17002   */\n      dup4\n        /* \"#utility.yul\":16989:17006   */\n      add\n        /* \"#utility.yul\":16982:17029   */\n      mstore\n        /* \"#utility.yul\":17046:17177   */\n      tag_367\n        /* \"#utility.yul\":17172:17176   */\n      dup2\n        /* \"#utility.yul\":17046:17177   */\n      tag_178\n      jump\t// in\n    tag_367:\n        /* \"#utility.yul\":17038:17177   */\n      swap1\n      pop\n        /* \"#utility.yul\":16765:17184   */\n      swap2\n      swap1\n      pop\n      jump\t// out\n        /* \"#utility.yul\":17190:17370   */\n    tag_179:\n        /* \"#utility.yul\":17238:17315   */\n      0x4e487b7100000000000000000000000000000000000000000000000000000000\n        /* \"#utility.yul\":17235:17236   */\n      0x00\n        /* \"#utility.yul\":17228:17316   */\n      mstore\n        /* \"#utility.yul\":17335:17339   */\n      0x11\n        /* \"#utility.yul\":17332:17333   */\n      0x04\n        /* \"#utility.yul\":17325:17340   */\n      mstore\n        /* \"#utility.yul\":17359:17363   */\n      0x24\n        /* \"#utility.yul\":17356:17357   */\n      0x00\n        /* \"#utility.yul\":17349:17364   */\n      revert\n        /* \"#utility.yul\":17376:17570   */\n    tag_74:\n        /* \"#utility.yul\":17416:17420   */\n      0x00\n        /* \"#utility.yul\":17436:17456   */\n      tag_370\n        /* \"#utility.yul\":17454:17455   */\n      dup3\n        /* \"#utility.yul\":17436:17456   */\n      tag_146\n      jump\t// in\n    tag_370:\n        /* \"#utility.yul\":17431:17456   */\n      swap2\n      pop\n        /* \"#utility.yul\":17470:17490   */\n      tag_371\n        /* \"#utility.yul\":17488:17489   */\n      dup4\n        /* \"#utility.yul\":17470:17490   */\n      tag_146\n      jump\t// in\n    tag_371:\n        /* \"#utility.yul\":17465:17490   */\n      swap3\n      pop\n        /* \"#utility.yul\":17514:17515   */\n      dup3\n        /* \"#utility.yul\":17511:17512   */\n      dup3\n        /* \"#utility.yul\":17507:17516   */\n      sub\n        /* \"#utility.yul\":17499:17516   */\n      swap1\n      pop\n        /* \"#utility.yul\":17538:17539   */\n      dup2\n        /* \"#utility.yul\":17532:17536   */\n      dup2\n        /* \"#utility.yul\":17529:17540   */\n      gt\n        /* \"#utility.yul\":17526:17563   */\n      iszero\n      tag_372\n      jumpi\n        /* \"#utility.yul\":17543:17561   */\n      tag_373\n      tag_179\n      jump\t// in\n    tag_373:\n        /* \"#utility.yul\":17526:17563   */\n    tag_372:\n        /* \"#utility.yul\":17376:17570   */\n      swap3\n      swap2\n      pop\n      pop\n      jump\t// out\n        /* \"#utility.yul\":17576:17809   */\n    tag_82:\n        /* \"#utility.yul\":17615:17618   */\n      0x00\n        /* \"#utility.yul\":17638:17662   */\n      tag_375\n        /* \"#utility.yul\":17656:17661   */\n      dup3\n        /* \"#utility.yul\":17638:17662   */\n      tag_146\n      jump\t// in\n    tag_375:\n        /* \"#utility.yul\":17629:17662   */\n      swap2\n      pop\n        /* \"#utility.yul\":17684:17750   */\n      0xffffffffffffffffffffffffffffffffffffffffffffffffffffffffffffffff\n        /* \"#utility.yul\":17677:17682   */\n      dup3\n        /* \"#utility.yul\":17674:17751   */\n      sub\n        /* \"#utility.yul\":17671:17774   */\n      tag_376\n      jumpi\n        /* \"#utility.yul\":17754:17772   */\n      tag_377\n      tag_179\n      jump\t// in\n    tag_377:\n        /* \"#utility.yul\":17671:17774   */\n    tag_376:\n        /* \"#utility.yul\":17801:17802   */\n      0x01\n        /* \"#utility.yul\":17794:17799   */\n      dup3\n        /* \"#utility.yul\":17790:17803   */\n      add\n        /* \"#utility.yul\":17783:17803   */\n      swap1\n      pop\n        /* \"#utility.yul\":17576:17809   */\n      swap2\n      swap1\n      pop\n      jump\t// out\n        /* \"#utility.yul\":17815:17995   */\n    tag_180:\n        /* \"#utility.yul\":17863:17940   */\n      0x4e487b7100000000000000000000000000000000000000000000000000000000\n        /* \"#utility.yul\":17860:17861   */\n      0x00\n        /* \"#utility.yul\":17853:17941   */\n      mstore\n        /* \"#utility.yul\":17960:17964   */\n      0x22\n        /* \"#utility.yul\":17957:17958   */\n      0x04\n        /* \"#utility.yul\":17950:17965   */\n      mstore\n        /* \"#utility.yul\":17984:17988   */\n      0x24\n        /* \"#utility.yul\":17981:17982   */\n      0x00\n        /* \"#utility.yul\":17974:17989   */\n      revert\n        /* \"#utility.yul\":18001:18321   */\n    tag_101:\n        /* \"#utility.yul\":18045:18051   */\n      0x00\n        /* \"#utility.yul\":18082:18083   */\n      0x02\n        /* \"#utility.yul\":18076:18080   */\n      dup3\n        /* \"#utility.yul\":18072:18084   */\n      div\n        /* \"#utility.yul\":18062:18084   */\n      swap1\n      pop\n        /* \"#utility.yul\":18129:18130   */\n      0x01\n        /* \"#utility.yul\":18123:18127   */\n      dup3\n        /* \"#utility.yul\":18119:18131   */\n      and\n        /* \"#utility.yul\":18150:18168   */\n      dup1\n        /* \"#utility.yul\":18140:18221   */\n      tag_380\n      jumpi\n        /* \"#utility.yul\":18206:18210   */\n      0x7f\n        /* \"#utility.yul\":18198:18204   */\n      dup3\n        /* \"#utility.yul\":18194:18211   */\n      and\n        /* \"#utility.yul\":18184:18211   */\n      swap2\n      pop\n        /* \"#utility.yul\":18140:18221   */\n    tag_380:\n        /* \"#utility.yul\":18268:18270   */\n      0x20\n        /* \"#utility.yul\":18260:18266   */\n      dup3\n        /* \"#utility.yul\":18257:18271   */\n      lt\n        /* \"#utility.yul\":18237:18255   */\n      dup2\n        /* \"#utility.yul\":18234:18272   */\n      sub\n        /* \"#utility.yul\":18231:18315   */\n      tag_381\n      jumpi\n        /* \"#utility.yul\":18287:18305   */\n      tag_382\n      tag_180\n      jump\t// in\n    tag_382:\n        /* \"#utility.yul\":18231:18315   */\n    tag_381:\n        /* \"#utility.yul\":18052:18321   */\n      pop\n        /* \"#utility.yul\":18001:18321   */\n      swap2\n      swap1\n      pop\n      jump\t// out\n        /* \"#utility.yul\":18327:18468   */\n    tag_181:\n        /* \"#utility.yul\":18376:18380   */\n      0x00\n        /* \"#utility.yul\":18399:18402   */\n      dup2\n        /* \"#utility.yul\":18391:18402   */\n      swap1\n      pop\n        /* \"#utility.yul\":18422:18425   */\n      dup2\n        /* \"#utility.yul\":18419:18420   */\n      0x00\n        /* \"#utility.yul\":18412:18426   */\n      mstore\n        /* \"#utility.yul\":18456:18460   */\n      0x20\n        /* \"#utility.yul\":18453:18454   */\n      0x00\n        /* \"#utility.yul\":18443:18461   */\n      keccak256\n        /* \"#utility.yul\":18435:18461   */\n      swap1\n      pop\n        /* \"#utility.yul\":18327:18468   */\n      swap2\n      swap1\n      pop\n      jump\t// out\n        /* \"#utility.yul\":18474:18567   */\n    tag_182:\n        /* \"#utility.yul\":18511:18517   */\n      0x00\n        /* \"#utility.yul\":18558:18560   */\n      0x20\n        /* \"#utility.yul\":18553:18555   */\n      0x1f\n        /* \"#utility.yul\":18546:18551   */\n      dup4\n        /* \"#utility.yul\":18542:18556   */\n      add\n        /* \"#utility.yul\":18538:18561   */\n      div\n        /* \"#utility.yul\":18528:18561   */\n      swap1\n      pop\n        /* \"#utility.yul\":18474:18567   */\n      swap2\n      swap1\n      pop\n      jump\t// out\n        /* \"#utility.yul\":18573:18680   */\n    tag_183:\n        /* \"#utility.yul\":18617:18625   */\n      0x00\n        /* \"#utility.yul\":18667:18672   */\n      dup3\n        /* \"#utility.yul\":18661:18665   */\n      dup3\n        /* \"#utility.yul\":18657:18673   */\n      shl\n        /* \"#utility.yul\":18636:18673   */\n      swap1\n      pop\n        /* \"#utility.yul\":18573:18680   */\n      swap3\n      swap2\n      pop\n      pop\n      jump\t// out\n        /* \"#utility.yul\":18686:19079   */\n    tag_184:\n        /* \"#utility.yul\":18755:18761   */\n      0x00\n        /* \"#utility.yul\":18805:18806   */\n      0x08\n        /* \"#utility.yul\":18793:18803   */\n      dup4\n        /* \"#utility.yul\":18789:18807   */\n      mul\n        /* \"#utility.yul\":18828:18925   */\n      tag_387\n        /* \"#utility.yul\":18858:18924   */\n      0xffffffffffffffffffffffffffffffffffffffffffffffffffffffffffffffff\n        /* \"#utility.yul\":18847:18856   */\n      dup3\n        /* \"#utility.yul\":18828:18925   */\n      tag_183\n      jump\t// in\n    tag_387:\n        /* \"#utility.yul\":18946:18985   */\n      tag_388\n        /* \"#utility.yul\":18976:18984   */\n      dup7\n        /* \"#utility.yul\":18965:18974   */\n      dup4\n        /* \"#utility.yul\":18946:18985   */\n      tag_183\n      jump\t// in\n    tag_388:\n        /* \"#utility.yul\":18934:18985   */\n      swap6\n      pop\n        /* \"#utility.yul\":19018:19022   */\n      dup1\n        /* \"#utility.yul\":19014:19023   */\n      not\n        /* \"#utility.yul\":19007:19012   */\n      dup5\n        /* \"#utility.yul\":19003:19024   */\n      and\n        /* \"#utility.yul\":18994:19024   */\n      swap4\n      pop\n        /* \"#utility.yul\":19067:19071   */\n      dup1\n        /* \"#utility.yul\":19057:19065   */\n      dup7\n        /* \"#utility.yul\":19053:19072   */\n      and\n        /* \"#utility.yul\":19046:19051   */\n      dup5\n        /* \"#utility.yul\":19043:19073   */\n      or\n        /* \"#utility.yul\":19033:19073   */\n      swap3\n      pop\n        /* \"#utility.yul\":18762:19079   */\n      pop\n      pop\n        /* \"#utility.yul\":18686:19079   */\n      swap4\n      swap3\n      pop\n      pop\n      pop\n      jump\t// out\n        /* \"#utility.yul\":19085:19145   */\n    tag_185:\n        /* \"#utility.yul\":19113:19116   */\n      0x00\n        /* \"#utility.yul\":19134:19139   */\n      dup2\n        /* \"#utility.yul\":19127:19139   */\n      swap1\n      pop\n        /* \"#utility.yul\":19085:19145   */\n      swap2\n      swap1\n      pop\n      jump\t// out\n        /* \"#utility.yul\":19151:19293   */\n    tag_186:\n        /* \"#utility.yul\":19201:19210   */\n      0x00\n        /* \"#utility.yul\":19234:19287   */\n      tag_391\n        /* \"#utility.yul\":19252:19286   */\n      tag_392\n        /* \"#utility.yul\":19261:19285   */\n      tag_393\n        /* \"#utility.yul\":19279:19284   */\n      dup5\n        /* \"#utility.yul\":19261:19285   */\n      tag_146\n      jump\t// in\n    tag_393:\n        /* \"#utility.yul\":19252:19286   */\n      tag_185\n      jump\t// in\n    tag_392:\n        /* \"#utility.yul\":19234:19287   */\n      tag_146\n      jump\t// in\n    tag_391:\n        /* \"#utility.yul\":19221:19287   */\n      swap1\n      pop\n        /* \"#utility.yul\":19151:19293   */\n      swap2\n      swap1\n      pop\n      jump\t// out\n        /* \"#utility.yul\":19299:19374   */\n    tag_187:\n        /* \"#utility.yul\":19342:19345   */\n      0x00\n        /* \"#utility.yul\":19363:19368   */\n      dup2\n        /* \"#utility.yul\":19356:19368   */\n      swap1\n      pop\n        /* \"#utility.yul\":19299:19374   */\n      swap2\n      swap1\n      pop\n      jump\t// out\n        /* \"#utility.yul\":19380:19649   */\n    tag_188:\n        /* \"#utility.yul\":19490:19529   */\n      tag_396\n        /* \"#utility.yul\":19521:19528   */\n      dup4\n        /* \"#utility.yul\":19490:19529   */\n      tag_186\n      jump\t// in\n    tag_396:\n        /* \"#utility.yul\":19551:19642   */\n      tag_397\n        /* \"#utility.yul\":19600:19641   */\n      tag_398\n        /* \"#utility.yul\":19624:19640   */\n      dup3\n        /* \"#utility.yul\":19600:19641   */\n      tag_187\n      jump\t// in\n    tag_398:\n        /* \"#utility.yul\":19592:19598   */\n      dup5\n        /* \"#utility.yul\":19585:19589   */\n      dup5\n        /* \"#utility.yul\":19579:19590   */\n      sload\n        /* \"#utility.yul\":19551:19642   */\n      tag_184\n      jump\t// in\n    tag_397:\n        /* \"#utility.yul\":19545:19549   */\n      dup3\n        /* \"#utility.yul\":19538:19643   */\n      sstore\n        /* \"#utility.yul\":19456:19649   */\n      pop\n        /* \"#utility.yul\":19380:19649   */\n      pop\n      pop\n      pop\n      jump\t// out\n        /* \"#utility.yul\":19655:19728   */\n    tag_189:\n        /* \"#utility.yul\":19700:19703   */\n      0x00\n        /* \"#utility.yul\":19655:19728   */\n      swap1\n      jump\t// out\n        /* \"#utility.yul\":19734:19923   */\n    tag_190:\n        /* \"#utility.yul\":19811:19843   */\n      tag_401\n      tag_189\n      jump\t// in\n    tag_401:\n        /* \"#utility.yul\":19852:19917   */\n      tag_402\n        /* \"#utility.yul\":19910:19916   */\n      dup2\n        /* \"#utility.yul\":19902:19908   */\n      dup5\n        /* \"#utility.yul\":19896:19900   */\n      dup5\n        /* \"#utility.yul\":19852:19917   */\n      tag_188\n      jump\t// in\n    tag_402:\n        /* \"#utility.yul\":19787:19923   */\n      pop\n        /* \"#utility.yul\":19734:19923   */\n      pop\n      pop\n      jump\t// out\n        /* \"#utility.yul\":19929:20115   */\n    tag_191:\n        /* \"#utility.yul\":19989:20109   */\n    tag_404:\n        /* \"#utility.yul\":20006:20009   */\n      dup2\n        /* \"#utility.yul\":19999:20004   */\n      dup2\n        /* \"#utility.yul\":19996:20010   */\n      lt\n        /* \"#utility.yul\":19989:20109   */\n      iszero\n      tag_406\n      jumpi\n        /* \"#utility.yul\":20060:20099   */\n      tag_407\n        /* \"#utility.yul\":20097:20098   */\n      0x00\n        /* \"#utility.yul\":20090:20095   */\n      dup3\n        /* \"#utility.yul\":20060:20099   */\n      tag_190\n      jump\t// in\n    tag_407:\n        /* \"#utility.yul\":20033:20034   */\n      0x01\n        /* \"#utility.yul\":20026:20031   */\n      dup2\n        /* \"#utility.yul\":20022:20035   */\n      add\n        /* \"#utility.yul\":20013:20035   */\n      swap1\n      pop\n        /* \"#utility.yul\":19989:20109   */\n      jump(tag_404)\n    tag_406:\n        /* \"#utility.yul\":19929:20115   */\n      pop\n      pop\n      jump\t// out\n        /* \"#utility.yul\":20121:20664   */\n    tag_192:\n        /* \"#utility.yul\":20222:20224   */\n      0x1f\n        /* \"#utility.yul\":20217:20220   */\n      dup3\n        /* \"#utility.yul\":20214:20225   */\n      gt\n        /* \"#utility.yul\":20211:20657   */\n      iszero\n      tag_409\n      jumpi\n        /* \"#utility.yul\":20256:20294   */\n      tag_410\n        /* \"#utility.yul\":20288:20293   */\n      dup2\n        /* \"#utility.yul\":20256:20294   */\n      tag_181\n      jump\t// in\n    tag_410:\n        /* \"#utility.yul\":20340:20369   */\n      tag_411\n        /* \"#utility.yul\":20358:20368   */\n      dup5\n        /* \"#utility.yul\":20340:20369   */\n      tag_182\n      jump\t// in\n    tag_411:\n        /* \"#utility.yul\":20330:20338   */\n      dup2\n        /* \"#utility.yul\":20326:20370   */\n      add\n        /* \"#utility.yul\":20523:20525   */\n      0x20\n        /* \"#utility.yul\":20511:20521   */\n      dup6\n        /* \"#utility.yul\":20508:20526   */\n      lt\n        /* \"#utility.yul\":20505:20554   */\n      iszero\n      tag_412\n      jumpi\n        /* \"#utility.yul\":20544:20552   */\n      dup2\n        /* \"#utility.yul\":20529:20552   */\n      swap1\n      pop\n        /* \"#utility.yul\":20505:20554   */\n    tag_412:\n        /* \"#utility.yul\":20567:20647   */\n      tag_413\n        /* \"#utility.yul\":20623:20645   */\n      tag_414\n        /* \"#utility.yul\":20641:20644   */\n      dup6\n        /* \"#utility.yul\":20623:20645   */\n      tag_182\n      jump\t// in\n    tag_414:\n        /* \"#utility.yul\":20613:20621   */\n      dup4\n        /* \"#utility.yul\":20609:20646   */\n      add\n        /* \"#utility.yul\":20596:20607   */\n      dup3\n        /* \"#utility.yul\":20567:20647   */\n      tag_191\n      jump\t// in\n    tag_413:\n        /* \"#utility.yul\":20226:20657   */\n      pop\n      pop\n        /* \"#utility.yul\":20211:20657   */\n    tag_409:\n        /* \"#utility.yul\":20121:20664   */\n      pop\n      pop\n      pop\n      jump\t// out\n        /* \"#utility.yul\":20670:20787   */\n    tag_193:\n        /* \"#utility.yul\":20724:20732   */\n      0x00\n        /* \"#utility.yul\":20774:20779   */\n      dup3\n        /* \"#utility.yul\":20768:20772   */\n      dup3\n        /* \"#utility.yul\":20764:20780   */\n      shr\n        /* \"#utility.yul\":20743:20780   */\n      swap1\n      pop\n        /* \"#utility.yul\":20670:20787   */\n      swap3\n      swap2\n      pop\n      pop\n      jump\t// out\n        /* \"#utility.yul\":20793:20962   */\n    tag_194:\n        /* \"#utility.yul\":20837:20843   */\n      0x00\n        /* \"#utility.yul\":20870:20921   */\n      tag_417\n        /* \"#utility.yul\":20918:20919   */\n      0x00\n        /* \"#utility.yul\":20914:20920   */\n      not\n        /* \"#utility.yul\":20906:20911   */\n      dup5\n        /* \"#utility.yul\":20903:20904   */\n      0x08\n        /* \"#utility.yul\":20899:20912   */\n      mul\n        /* \"#utility.yul\":20870:20921   */\n      tag_193\n      jump\t// in\n    tag_417:\n        /* \"#utility.yul\":20866:20922   */\n      not\n        /* \"#utility.yul\":20951:20955   */\n      dup1\n        /* \"#utility.yul\":20945:20949   */\n      dup4\n        /* \"#utility.yul\":20941:20956   */\n      and\n        /* \"#utility.yul\":20931:20956   */\n      swap2\n      pop\n        /* \"#utility.yul\":20844:20962   */\n      pop\n        /* \"#utility.yul\":20793:20962   */\n      swap3\n      swap2\n      pop\n      pop\n      jump\t// out\n        /* \"#utility.yul\":20967:21262   */\n    tag_195:\n        /* \"#utility.yul\":21043:21047   */\n      0x00\n        /* \"#utility.yul\":21189:21218   */\n      tag_419\n        /* \"#utility.yul\":21214:21217   */\n      dup4\n        /* \"#utility.yul\":21208:21212   */\n      dup4\n        /* \"#utility.yul\":21189:21218   */\n      tag_194\n      jump\t// in\n    tag_419:\n        /* \"#utility.yul\":21181:21218   */\n      swap2\n      pop\n        /* \"#utility.yul\":21251:21254   */\n      dup3\n        /* \"#utility.yul\":21248:21249   */\n      0x02\n        /* \"#utility.yul\":21244:21255   */\n      mul\n        /* \"#utility.yul\":21238:21242   */\n      dup3\n        /* \"#utility.yul\":21235:21256   */\n      or\n        /* \"#utility.yul\":21227:21256   */\n      swap1\n      pop\n        /* \"#utility.yul\":20967:21262   */\n      swap3\n      swap2\n      pop\n      pop\n      jump\t// out\n        /* \"#utility.yul\":21267:22662   */\n    tag_84:\n        /* \"#utility.yul\":21384:21421   */\n      tag_421\n        /* \"#utility.yul\":21417:21420   */\n      dup3\n        /* \"#utility.yul\":21384:21421   */\n      tag_161\n      jump\t// in\n    tag_421:\n        /* \"#utility.yul\":21486:21504   */\n      0xffffffffffffffff\n        /* \"#utility.yul\":21478:21484   */\n      dup2\n        /* \"#utility.yul\":21475:21505   */\n      gt\n        /* \"#utility.yul\":21472:21528   */\n      iszero\n      tag_422\n      jumpi\n        /* \"#utility.yul\":21508:21526   */\n      tag_423\n      tag_141\n      jump\t// in\n    tag_423:\n        /* \"#utility.yul\":21472:21528   */\n    tag_422:\n        /* \"#utility.yul\":21552:21590   */\n      tag_424\n        /* \"#utility.yul\":21584:21588   */\n      dup3\n        /* \"#utility.yul\":21578:21589   */\n      sload\n        /* \"#utility.yul\":21552:21590   */\n      tag_101\n      jump\t// in\n    tag_424:\n        /* \"#utility.yul\":21637:21704   */\n      tag_425\n        /* \"#utility.yul\":21697:21703   */\n      dup3\n        /* \"#utility.yul\":21689:21695   */\n      dup3\n        /* \"#utility.yul\":21683:21687   */\n      dup6\n        /* \"#utility.yul\":21637:21704   */\n      tag_192\n      jump\t// in\n    tag_425:\n        /* \"#utility.yul\":21731:21732   */\n      0x00\n        /* \"#utility.yul\":21755:21759   */\n      0x20\n        /* \"#utility.yul\":21742:21759   */\n      swap1\n      pop\n        /* \"#utility.yul\":21787:21789   */\n      0x1f\n        /* \"#utility.yul\":21779:21785   */\n      dup4\n        /* \"#utility.yul\":21776:21790   */\n      gt\n        /* \"#utility.yul\":21804:21805   */\n      0x01\n        /* \"#utility.yul\":21799:22417   */\n      dup2\n      eq\n      tag_427\n      jumpi\n        /* \"#utility.yul\":22461:22462   */\n      0x00\n        /* \"#utility.yul\":22478:22484   */\n      dup5\n        /* \"#utility.yul\":22475:22552   */\n      iszero\n      tag_428\n      jumpi\n        /* \"#utility.yul\":22527:22536   */\n      dup3\n        /* \"#utility.yul\":22522:22525   */\n      dup8\n        /* \"#utility.yul\":22518:22537   */\n      add\n        /* \"#utility.yul\":22512:22538   */\n      mload\n        /* \"#utility.yul\":22503:22538   */\n      swap1\n      pop\n        /* \"#utility.yul\":22475:22552   */\n    tag_428:\n        /* \"#utility.yul\":22578:22645   */\n      tag_429\n        /* \"#utility.yul\":22638:22644   */\n      dup6\n        /* \"#utility.yul\":22631:22636   */\n      dup3\n        /* \"#utility.yul\":22578:22645   */\n      tag_195\n      jump\t// in\n    tag_429:\n        /* \"#utility.yul\":22572:22576   */\n      dup7\n        /* \"#utility.yul\":22565:22646   */\n      sstore\n        /* \"#utility.yul\":22434:22656   */\n      pop\n        /* \"#utility.yul\":21769:22656   */\n      jump(tag_426)\n        /* \"#utility.yul\":21799:22417   */\n    tag_427:\n        /* \"#utility.yul\":21851:21855   */\n      0x1f\n        /* \"#utility.yul\":21847:21856   */\n      not\n        /* \"#utility.yul\":21839:21845   */\n      dup5\n        /* \"#utility.yul\":21835:21857   */\n      and\n        /* \"#utility.yul\":21885:21922   */\n      tag_430\n        /* \"#utility.yul\":21917:21921   */\n      dup7\n        /* \"#utility.yul\":21885:21922   */\n      tag_181\n      jump\t// in\n    tag_430:\n        /* \"#utility.yul\":21944:21945   */\n      0x00\n        /* \"#utility.yul\":21958:22166   */\n    tag_431:\n        /* \"#utility.yul\":21972:21979   */\n      dup3\n        /* \"#utility.yul\":21969:21970   */\n      dup2\n        /* \"#utility.yul\":21966:21980   */\n      lt\n        /* \"#utility.yul\":21958:22166   */\n      iszero\n      tag_433\n      jumpi\n        /* \"#utility.yul\":22051:22060   */\n      dup5\n        /* \"#utility.yul\":22046:22049   */\n      dup10\n        /* \"#utility.yul\":22042:22061   */\n      add\n        /* \"#utility.yul\":22036:22062   */\n      mload\n        /* \"#utility.yul\":22028:22034   */\n      dup3\n        /* \"#utility.yul\":22021:22063   */\n      sstore\n        /* \"#utility.yul\":22102:22103   */\n      0x01\n        /* \"#utility.yul\":22094:22100   */\n      dup3\n        /* \"#utility.yul\":22090:22104   */\n      add\n        /* \"#utility.yul\":22080:22104   */\n      swap2\n      pop\n        /* \"#utility.yul\":22149:22151   */\n      0x20\n        /* \"#utility.yul\":22138:22147   */\n      dup6\n        /* \"#utility.yul\":22134:22152   */\n      add\n        /* \"#utility.yul\":22121:22152   */\n      swap5\n      pop\n        /* \"#utility.yul\":21995:21999   */\n      0x20\n        /* \"#utility.yul\":21992:21993   */\n      dup2\n        /* \"#utility.yul\":21988:22000   */\n      add\n        /* \"#utility.yul\":21983:22000   */\n      swap1\n      pop\n        /* \"#utility.yul\":21958:22166   */\n      jump(tag_431)\n    tag_433:\n        /* \"#utility.yul\":22194:22200   */\n      dup7\n        /* \"#utility.yul\":22185:22192   */\n      dup4\n        /* \"#utility.yul\":22182:22201   */\n      lt\n        /* \"#utility.yul\":22179:22358   */\n      iszero\n      tag_434\n      jumpi\n        /* \"#utility.yul\":22252:22261   */\n      dup5\n        /* \"#utility.yul\":22247:22250   */\n      dup10\n        /* \"#utility.yul\":22243:22262   */\n      add\n        /* \"#utility.yul\":22237:22263   */\n      mload\n        /* \"#utility.yul\":22295:22343   */\n      tag_435\n        /* \"#utility.yul\":22337:22341   */\n      0x1f\n        /* \"#utility.yul\":22329:22335   */\n      dup10\n        /* \"#utility.yul\":22325:22342   */\n      and\n        /* \"#utility.yul\":22314:22323   */\n      dup3\n        /* \"#utility.yul\":22295:22343   */\n      tag_194\n      jump\t// in\n    tag_435:\n        /* \"#utility.yul\":22287:22293   */\n      dup4\n        /* \"#utility.yul\":22280:22344   */\n      sstore\n        /* \"#utility.yul\":22202:22358   */\n      pop\n        /* \"#utility.yul\":22179:22358   */\n    tag_434:\n        /* \"#utility.yul\":22404:22405   */\n      0x01\n        /* \"#utility.yul\":22400:22401   */\n      0x02\n        /* \"#utility.yul\":22392:22398   */\n      dup9\n        /* \"#utility.yul\":22388:22402   */\n      mul\n        /* \"#utility.yul\":22384:22406   */\n      add\n        /* \"#utility.yul\":22378:22382   */\n      dup9\n        /* \"#utility.yul\":22371:22407   */\n      sstore\n        /* \"#utility.yul\":21806:22417   */\n      pop\n      pop\n      pop\n        /* \"#utility.yul\":21769:22656   */\n    tag_426:\n      pop\n        /* \"#utility.yul\":21359:22662   */\n      pop\n      pop\n      pop\n        /* \"#utility.yul\":21267:22662   */\n      pop\n      pop\n      jump\t// out\n        /* \"#utility.yul\":22668:22859   */\n    tag_86:\n        /* \"#utility.yul\":22708:22711   */\n      0x00\n        /* \"#utility.yul\":22727:22747   */\n      tag_437\n        /* \"#utility.yul\":22745:22746   */\n      dup3\n        /* \"#utility.yul\":22727:22747   */\n      tag_146\n      jump\t// in\n    tag_437:\n        /* \"#utility.yul\":22722:22747   */\n      swap2\n      pop\n        /* \"#utility.yul\":22761:22781   */\n      tag_438\n        /* \"#utility.yul\":22779:22780   */\n      dup4\n        /* \"#utility.yul\":22761:22781   */\n      tag_146\n      jump\t// in\n    tag_438:\n        /* \"#utility.yul\":22756:22781   */\n      swap3\n      pop\n        /* \"#utility.yul\":22804:22805   */\n      dup3\n        /* \"#utility.yul\":22801:22802   */\n      dup3\n        /* \"#utility.yul\":22797:22806   */\n      add\n        /* \"#utility.yul\":22790:22806   */\n      swap1\n      pop\n        /* \"#utility.yul\":22825:22828   */\n      dup1\n        /* \"#utility.yul\":22822:22823   */\n      dup3\n        /* \"#utility.yul\":22819:22829   */\n      gt\n        /* \"#utility.yul\":22816:22852   */\n      iszero\n      tag_439\n      jumpi\n        /* \"#utility.yul\":22832:22850   */\n      tag_440\n      tag_179\n      jump\t// in\n    tag_440:\n        /* \"#utility.yul\":22816:22852   */\n    tag_439:\n        /* \"#utility.yul\":22668:22859   */\n      swap3\n      swap2\n      pop\n      pop\n      jump\t// out\n        /* \"#utility.yul\":22889:23720   */\n    tag_196:\n        /* \"#utility.yul\":22974:22977   */\n      0x00\n        /* \"#utility.yul\":23011:23016   */\n      dup2\n        /* \"#utility.yul\":23005:23017   */\n      sload\n        /* \"#utility.yul\":23040:23076   */\n      tag_442\n        /* \"#utility.yul\":23066:23075   */\n      dup2\n        /* \"#utility.yul\":23040:23076   */\n      tag_101\n      jump\t// in\n    tag_442:\n        /* \"#utility.yul\":23092:23163   */\n      tag_443\n        /* \"#utility.yul\":23156:23162   */\n      dup2\n        /* \"#utility.yul\":23151:23154   */\n      dup7\n        /* \"#utility.yul\":23092:23163   */\n      tag_162\n      jump\t// in\n    tag_443:\n        /* \"#utility.yul\":23085:23163   */\n      swap5\n      pop\n        /* \"#utility.yul\":23194:23195   */\n      0x01\n        /* \"#utility.yul\":23183:23192   */\n      dup3\n        /* \"#utility.yul\":23179:23196   */\n      and\n        /* \"#utility.yul\":23210:23211   */\n      0x00\n        /* \"#utility.yul\":23205:23369   */\n      dup2\n      eq\n      tag_445\n      jumpi\n        /* \"#utility.yul\":23383:23384   */\n      0x01\n        /* \"#utility.yul\":23378:23714   */\n      dup2\n      eq\n      tag_446\n      jumpi\n        /* \"#utility.yul\":23172:23714   */\n      jump(tag_444)\n        /* \"#utility.yul\":23205:23369   */\n    tag_445:\n        /* \"#utility.yul\":23289:23293   */\n      0xff\n        /* \"#utility.yul\":23285:23294   */\n      not\n        /* \"#utility.yul\":23274:23283   */\n      dup4\n        /* \"#utility.yul\":23270:23295   */\n      and\n        /* \"#utility.yul\":23265:23268   */\n      dup7\n        /* \"#utility.yul\":23258:23296   */\n      mstore\n        /* \"#utility.yul\":23349:23355   */\n      dup2\n        /* \"#utility.yul\":23342:23356   */\n      iszero\n        /* \"#utility.yul\":23335:23357   */\n      iszero\n        /* \"#utility.yul\":23329:23333   */\n      0x20\n        /* \"#utility.yul\":23325:23358   */\n      mul\n        /* \"#utility.yul\":23320:23323   */\n      dup7\n        /* \"#utility.yul\":23316:23359   */\n      add\n        /* \"#utility.yul\":23309:23359   */\n      swap4\n      pop\n        /* \"#utility.yul\":23205:23369   */\n      jump(tag_444)\n        /* \"#utility.yul\":23378:23714   */\n    tag_446:\n        /* \"#utility.yul\":23445:23483   */\n      tag_447\n        /* \"#utility.yul\":23477:23482   */\n      dup6\n        /* \"#utility.yul\":23445:23483   */\n      tag_181\n      jump\t// in\n    tag_447:\n        /* \"#utility.yul\":23505:23506   */\n      0x00\n        /* \"#utility.yul\":23519:23673   */\n    tag_448:\n        /* \"#utility.yul\":23533:23539   */\n      dup4\n        /* \"#utility.yul\":23530:23531   */\n      dup2\n        /* \"#utility.yul\":23527:23540   */\n      lt\n        /* \"#utility.yul\":23519:23673   */\n      iszero\n      tag_450\n      jumpi\n        /* \"#utility.yul\":23607:23614   */\n      dup2\n        /* \"#utility.yul\":23601:23615   */\n      sload\n        /* \"#utility.yul\":23597:23598   */\n      dup2\n        /* \"#utility.yul\":23592:23595   */\n      dup10\n        /* \"#utility.yul\":23588:23599   */\n      add\n        /* \"#utility.yul\":23581:23616   */\n      mstore\n        /* \"#utility.yul\":23657:23658   */\n      0x01\n        /* \"#utility.yul\":23648:23655   */\n      dup3\n        /* \"#utility.yul\":23644:23659   */\n      add\n        /* \"#utility.yul\":23633:23659   */\n      swap2\n      pop\n        /* \"#utility.yul\":23555:23559   */\n      0x20\n        /* \"#utility.yul\":23552:23553   */\n      dup2\n        /* \"#utility.yul\":23548:23560   */\n      add\n        /* \"#utility.yul\":23543:23560   */\n      swap1\n      pop\n        /* \"#utility.yul\":23519:23673   */\n      jump(tag_448)\n    tag_450:\n        /* \"#utility.yul\":23702:23703   */\n      dup1\n        /* \"#utility.yul\":23697:23700   */\n      dup9\n        /* \"#utility.yul\":23693:23704   */\n      add\n        /* \"#utility.yul\":23686:23704   */\n      swap6\n      pop\n        /* \"#utility.yul\":23385:23714   */\n      pop\n      pop\n        /* \"#utility.yul\":23172:23714   */\n    tag_444:\n      pop\n        /* \"#utility.yul\":22978:23720   */\n      pop\n      pop\n        /* \"#utility.yul\":22889:23720   */\n      swap3\n      swap2\n      pop\n      pop\n      jump\t// out\n        /* \"#utility.yul\":23726:24364   */\n    tag_96:\n        /* \"#utility.yul\":23920:23924   */\n      0x00\n        /* \"#utility.yul\":23958:23961   */\n      0x80\n        /* \"#utility.yul\":23947:23956   */\n      dup3\n        /* \"#utility.yul\":23943:23962   */\n      add\n        /* \"#utility.yul\":23935:23962   */\n      swap1\n      pop\n        /* \"#utility.yul\":23972:24043   */\n      tag_452\n        /* \"#utility.yul\":24040:24041   */\n      0x00\n        /* \"#utility.yul\":24029:24038   */\n      dup4\n        /* \"#utility.yul\":24025:24042   */\n      add\n        /* \"#utility.yul\":24016:24022   */\n      dup8\n        /* \"#utility.yul\":23972:24043   */\n      tag_156\n      jump\t// in\n    tag_452:\n        /* \"#utility.yul\":24053:24125   */\n      tag_453\n        /* \"#utility.yul\":24121:24123   */\n      0x20\n        /* \"#utility.yul\":24110:24119   */\n      dup4\n        /* \"#utility.yul\":24106:24124   */\n      add\n        /* \"#utility.yul\":24097:24103   */\n      dup7\n        /* \"#utility.yul\":24053:24125   */\n      tag_156\n      jump\t// in\n    tag_453:\n        /* \"#utility.yul\":24135:24207   */\n      tag_454\n        /* \"#utility.yul\":24203:24205   */\n      0x40\n        /* \"#utility.yul\":24192:24201   */\n      dup4\n        /* \"#utility.yul\":24188:24206   */\n      add\n        /* \"#utility.yul\":24179:24185   */\n      dup6\n        /* \"#utility.yul\":24135:24207   */\n      tag_172\n      jump\t// in\n    tag_454:\n        /* \"#utility.yul\":24254:24263   */\n      dup2\n        /* \"#utility.yul\":24248:24252   */\n      dup2\n        /* \"#utility.yul\":24244:24264   */\n      sub\n        /* \"#utility.yul\":24239:24241   */\n      0x60\n        /* \"#utility.yul\":24228:24237   */\n      dup4\n        /* \"#utility.yul\":24224:24242   */\n      add\n        /* \"#utility.yul\":24217:24265   */\n      mstore\n        /* \"#utility.yul\":24282:24357   */\n      tag_455\n        /* \"#utility.yul\":24352:24356   */\n      dup2\n        /* \"#utility.yul\":24343:24349   */\n      dup5\n        /* \"#utility.yul\":24282:24357   */\n      tag_196\n      jump\t// in\n    tag_455:\n        /* \"#utility.yul\":24274:24357   */\n      swap1\n      pop\n        /* \"#utility.yul\":23726:24364   */\n      swap6\n      swap5\n      pop\n      pop\n      pop\n      pop\n      pop\n      jump\t// out\n        /* \"#utility.yul\":24370:24543   */\n    tag_197:\n        /* \"#utility.yul\":24510:24535   */\n      0x5468697320696420697320616c72656164792075736564000000000000000000\n        /* \"#utility.yul\":24506:24507   */\n      0x00\n        /* \"#utility.yul\":24498:24504   */\n      dup3\n        /* \"#utility.yul\":24494:24508   */\n      add\n        /* \"#utility.yul\":24487:24536   */\n      mstore\n        /* \"#utility.yul\":24370:24543   */\n      pop\n      jump\t// out\n        /* \"#utility.yul\":24549:24915   */\n    tag_198:\n        /* \"#utility.yul\":24691:24694   */\n      0x00\n        /* \"#utility.yul\":24712:24779   */\n      tag_458\n        /* \"#utility.yul\":24776:24778   */\n      0x17\n        /* \"#utility.yul\":24771:24774   */\n      dup4\n        /* \"#utility.yul\":24712:24779   */\n      tag_162\n      jump\t// in\n    tag_458:\n        /* \"#utility.yul\":24705:24779   */\n      swap2\n      pop\n        /* \"#utility.yul\":24788:24881   */\n      tag_459\n        /* \"#utility.yul\":24877:24880   */\n      dup3\n        /* \"#utility.yul\":24788:24881   */\n      tag_197\n      jump\t// in\n    tag_459:\n        /* \"#utility.yul\":24906:24908   */\n      0x20\n        /* \"#utility.yul\":24901:24904   */\n      dup3\n        /* \"#utility.yul\":24897:24909   */\n      add\n        /* \"#utility.yul\":24890:24909   */\n      swap1\n      pop\n        /* \"#utility.yul\":24549:24915   */\n      swap2\n      swap1\n      pop\n      jump\t// out\n        /* \"#utility.yul\":24921:25340   */\n    tag_117:\n        /* \"#utility.yul\":25087:25091   */\n      0x00\n        /* \"#utility.yul\":25125:25127   */\n      0x20\n        /* \"#utility.yul\":25114:25123   */\n      dup3\n        /* \"#utility.yul\":25110:25128   */\n      add\n        /* \"#utility.yul\":25102:25128   */\n      swap1\n      pop\n        /* \"#utility.yul\":25174:25183   */\n      dup2\n        /* \"#utility.yul\":25168:25172   */\n      dup2\n        /* \"#utility.yul\":25164:25184   */\n      sub\n        /* \"#utility.yul\":25160:25161   */\n      0x00\n        /* \"#utility.yul\":25149:25158   */\n      dup4\n        /* \"#utility.yul\":25145:25162   */\n      add\n        /* \"#utility.yul\":25138:25185   */\n      mstore\n        /* \"#utility.yul\":25202:25333   */\n      tag_461\n        /* \"#utility.yul\":25328:25332   */\n      dup2\n        /* \"#utility.yul\":25202:25333   */\n      tag_198\n      jump\t// in\n    tag_461:\n        /* \"#utility.yul\":25194:25333   */\n      swap1\n      pop\n        /* \"#utility.yul\":24921:25340   */\n      swap2\n      swap1\n      pop\n      jump\t// out\n        /* \"#utility.yul\":25346:25436   */\n    tag_199:\n        /* \"#utility.yul\":25380:25387   */\n      0x00\n        /* \"#utility.yul\":25423:25428   */\n      dup2\n        /* \"#utility.yul\":25416:25429   */\n      iszero\n        /* \"#utility.yul\":25409:25430   */\n      iszero\n        /* \"#utility.yul\":25398:25430   */\n      swap1\n      pop\n        /* \"#utility.yul\":25346:25436   */\n      swap2\n      swap1\n      pop\n      jump\t// out\n        /* \"#utility.yul\":25442:25558   */\n    tag_200:\n        /* \"#utility.yul\":25512:25533   */\n      tag_464\n        /* \"#utility.yul\":25527:25532   */\n      dup2\n        /* \"#utility.yul\":25512:25533   */\n      tag_199\n      jump\t// in\n    tag_464:\n        /* \"#utility.yul\":25505:25510   */\n      dup2\n        /* \"#utility.yul\":25502:25534   */\n      eq\n        /* \"#utility.yul\":25492:25552   */\n      tag_465\n      jumpi\n        /* \"#utility.yul\":25548:25549   */\n      0x00\n        /* \"#utility.yul\":25545:25546   */\n      dup1\n        /* \"#utility.yul\":25538:25550   */\n      revert\n        /* \"#utility.yul\":25492:25552   */\n    tag_465:\n        /* \"#utility.yul\":25442:25558   */\n      pop\n      jump\t// out\n        /* \"#utility.yul\":25564:25701   */\n    tag_201:\n        /* \"#utility.yul\":25618:25623   */\n      0x00\n        /* \"#utility.yul\":25649:25655   */\n      dup2\n        /* \"#utility.yul\":25643:25656   */\n      mload\n        /* \"#utility.yul\":25634:25656   */\n      swap1\n      pop\n        /* \"#utility.yul\":25665:25695   */\n      tag_467\n        /* \"#utility.yul\":25689:25694   */\n      dup2\n        /* \"#utility.yul\":25665:25695   */\n      tag_200\n      jump\t// in\n    tag_467:\n        /* \"#utility.yul\":25564:25701   */\n      swap3\n      swap2\n      pop\n      pop\n      jump\t// out\n        /* \"#utility.yul\":25707:26052   */\n    tag_129:\n        /* \"#utility.yul\":25774:25780   */\n      0x00\n        /* \"#utility.yul\":25823:25825   */\n      0x20\n        /* \"#utility.yul\":25811:25820   */\n      dup3\n        /* \"#utility.yul\":25802:25809   */\n      dup5\n        /* \"#utility.yul\":25798:25821   */\n      sub\n        /* \"#utility.yul\":25794:25826   */\n      slt\n        /* \"#utility.yul\":25791:25910   */\n      iszero\n      tag_469\n      jumpi\n        /* \"#utility.yul\":25829:25908   */\n      tag_470\n      tag_137\n      jump\t// in\n    tag_470:\n        /* \"#utility.yul\":25791:25910   */\n    tag_469:\n        /* \"#utility.yul\":25949:25950   */\n      0x00\n        /* \"#utility.yul\":25974:26035   */\n      tag_471\n        /* \"#utility.yul\":26027:26034   */\n      dup5\n        /* \"#utility.yul\":26018:26024   */\n      dup3\n        /* \"#utility.yul\":26007:26016   */\n      dup6\n        /* \"#utility.yul\":26003:26025   */\n      add\n        /* \"#utility.yul\":25974:26035   */\n      tag_201\n      jump\t// in\n    tag_471:\n        /* \"#utility.yul\":25964:26035   */\n      swap2\n      pop\n        /* \"#utility.yul\":25920:26045   */\n      pop\n        /* \"#utility.yul\":25707:26052   */\n      swap3\n      swap2\n      pop\n      pop\n      jump\t// out\n\n    auxdata: 0xa26469706673582212205e3695154224d544a2a8e98c253641465906af8d98cdde00e1945f7f25b8cb2f64736f6c63430008100033\n}\n","bytecode":{"linkReferences":{},"object":"60806040523480156200001157600080fd5b5060405162001c3b38038062001c3b833981810160405281019062000037919062000133565b816000806101000a81548173ffffffffffffffffffffffffffffffffffffffff021916908373ffffffffffffffffffffffffffffffffffffffff16021790555080600160006101000a81548173ffffffffffffffffffffffffffffffffffffffff021916908373ffffffffffffffffffffffffffffffffffffffff1602179055506103e860048190555050506200017a565b600080fd5b600073ffffffffffffffffffffffffffffffffffffffff82169050919050565b6000620000fb82620000ce565b9050919050565b6200010d81620000ee565b81146200011957600080fd5b50565b6000815190506200012d8162000102565b92915050565b600080604083850312156200014d576200014c620000c9565b5b60006200015d858286016200011c565b925050602062000170858286016200011c565b9150509250929050565b611ab1806200018a6000396000f3fe608060405234801561001057600080fd5b50600436106100885760003560e01c8063c45a01551161005b578063c45a01551461013b578063d6d81e3014610159578063ddef9ea114610175578063facf65fd146101a757610088565b80634011dcb61461008d578063763d2a3e146100bd5780639149bdf2146100d957806396c49f051461010a575b600080fd5b6100a760048036038101906100a29190610e77565b6101c3565b6040516100b49190610f41565b60405180910390f35b6100d760048036038101906100d29190610fba565b610498565b005b6100f360048036038101906100ee919061100d565b610619565b6040516101019291906110b9565b60405180910390f35b610124600480360381019061011f919061100d565b6106c5565b6040516101329291906111a7565b60405180910390f35b6101436107a1565b60405161015091906111ed565b60405180910390f35b610173600480360381019061016e9190611208565b6107c5565b005b61018f600480360381019061018a919061100d565b61095f565b60405161019e93929190611277565b60405180910390f35b6101c160048036038101906101bc91906112b5565b610a31565b005b60008060009054906101000a900473ffffffffffffffffffffffffffffffffffffffff1673ffffffffffffffffffffffffffffffffffffffff163373ffffffffffffffffffffffffffffffffffffffff1614610254576040517f08c379a000000000000000000000000000000000000000000000000000000000815260040161024b906113aa565b60405180910390fd5b8351855114610298576040517f08c379a000000000000000000000000000000000000000000000000000000000815260040161028f9061143c565b60405180910390fd5b6000600360006004548152602001908152602001600020905060005b8651811015610448578581815181106102d0576102cf61145c565b5b6020026020010151600260008984815181106102ef576102ee61145c565b5b6020026020010151815260200190815260200160002060000154101561034a576040517f08c379a0000000000000000000000000000000000000000000000000000000008152600401610341906114fd565b60405180910390fd5b85818151811061035d5761035c61145c565b5b60200260200101516002600089848151811061037c5761037b61145c565b5b6020026020010151815260200190815260200160002060000160008282546103a4919061154c565b92505081905550816000018782815181106103c2576103c161145c565b5b60200260200101519080600181540180825580915050600190039060005260206000200160009091909190915055816001018682815181106104075761040661145c565b5b60200260200101519080600181540180825580915050600190039060005260206000200160009091909190915055808061044090611580565b9150506102b4565b508381600301819055508281600201908161046391906117d4565b5060016004600082825461047791906118a6565b92505081905550600160045461048d919061154c565b915050949350505050565b60008054906101000a900473ffffffffffffffffffffffffffffffffffffffff1673ffffffffffffffffffffffffffffffffffffffff163373ffffffffffffffffffffffffffffffffffffffff1614610526576040517f08c379a000000000000000000000000000000000000000000000000000000000815260040161051d906113aa565b60405180910390fd5b60006003600085815260200190815260200160002090508281600301541015610584576040517f08c379a000000000000000000000000000000000000000000000000000000000815260040161057b906114fd565b60405180910390fd5b82816003016000828254610598919061154c565b925050819055508173ffffffffffffffffffffffffffffffffffffffff1663facf65fd858530856002016040518563ffffffff1660e01b81526004016105e1949392919061195e565b600060405180830381600087803b1580156105fb57600080fd5b505af115801561060f573d6000803e3d6000fd5b5050505050505050565b600360205280600052604060002060009150905080600201805461063c906115f7565b80601f0160208091040260200160405190810160405280929190818152602001828054610668906115f7565b80156106b55780601f1061068a576101008083540402835291602001916106b5565b820191906000526020600020905b81548152906001019060200180831161069857829003601f168201915b5050505050908060030154905082565b60608060036000848152602001908152602001600020600001600360008581526020019081526020016000206001018180548060200260200160405190810160405280929190818152602001828054801561073f57602002820191906000526020600020905b81548152602001906001019080831161072b575b505050505091508080548060200260200160405190810160405280929190818152602001828054801561079157602002820191906000526020600020905b81548152602001906001019080831161077d575b5050505050905091509150915091565b60008054906101000a900473ffffffffffffffffffffffffffffffffffffffff1681565b60008054906101000a900473ffffffffffffffffffffffffffffffffffffffff1673ffffffffffffffffffffffffffffffffffffffff163373ffffffffffffffffffffffffffffffffffffffff1614610853576040517f08c379a000000000000000000000000000000000000000000000000000000000815260040161084a906113aa565b60405180910390fd5b60006002600085815260200190815260200160002060000154146108ac576040517f08c379a00000000000000000000000000000000000000000000000000000000081526004016108a3906119f6565b60405180910390fd5b60405180606001604052808381526020018281526020013073ffffffffffffffffffffffffffffffffffffffff168152506002600085815260200190815260200160002060008201518160000155602082015181600101908161090f91906117d4565b5060408201518160020160006101000a81548173ffffffffffffffffffffffffffffffffffffffff021916908373ffffffffffffffffffffffffffffffffffffffff160217905550905050505050565b6002602052806000526040600020600091509050806000015490806001018054610988906115f7565b80601f01602080910402602001604051908101604052809291908181526020018280546109b4906115f7565b8015610a015780601f106109d657610100808354040283529160200191610a01565b820191906000526020600020905b8154815290600101906020018083116109e457829003601f168201915b5050505050908060020160009054906101000a900473ffffffffffffffffffffffffffffffffffffffff16905083565b6000600160009054906101000a900473ffffffffffffffffffffffffffffffffffffffff1690508073ffffffffffffffffffffffffffffffffffffffff1663fab52689326040518263ffffffff1660e01b8152600401610a9191906111ed565b602060405180830381865afa158015610aae573d6000803e3d6000fd5b505050506040513d601f19601f82011682018060405250810190610ad29190611a4e565b610b11576040517f08c379a0000000000000000000000000000000000000000000000000000000008152600401610b08906113aa565b60405180910390fd5b6000600260008781526020019081526020016000206000015414610b6a576040517f08c379a0000000000000000000000000000000000000000000000000000000008152600401610b61906119f6565b60405180910390fd5b60405180606001604052808581526020018381526020018473ffffffffffffffffffffffffffffffffffffffff1681525060026000878152602001908152602001600020600082015181600001556020820151816001019081610bcd91906117d4565b5060408201518160020160006101000a81548173ffffffffffffffffffffffffffffffffffffffff021916908373ffffffffffffffffffffffffffffffffffffffff1602179055509050505050505050565b6000604051905090565b600080fd5b600080fd5b600080fd5b6000601f19601f8301169050919050565b7f4e487b7100000000000000000000000000000000000000000000000000000000600052604160045260246000fd5b610c8182610c38565b810181811067ffffffffffffffff82111715610ca057610c9f610c49565b5b80604052505050565b6000610cb3610c1f565b9050610cbf8282610c78565b919050565b600067ffffffffffffffff821115610cdf57610cde610c49565b5b602082029050602081019050919050565b600080fd5b6000819050919050565b610d0881610cf5565b8114610d1357600080fd5b50565b600081359050610d2581610cff565b92915050565b6000610d3e610d3984610cc4565b610ca9565b90508083825260208201905060208402830185811115610d6157610d60610cf0565b5b835b81811015610d8a5780610d768882610d16565b845260208401935050602081019050610d63565b5050509392505050565b600082601f830112610da957610da8610c33565b5b8135610db9848260208601610d2b565b91505092915050565b600080fd5b600067ffffffffffffffff821115610de257610de1610c49565b5b610deb82610c38565b9050602081019050919050565b82818337600083830152505050565b6000610e1a610e1584610dc7565b610ca9565b905082815260208101848484011115610e3657610e35610dc2565b5b610e41848285610df8565b509392505050565b600082601f830112610e5e57610e5d610c33565b5b8135610e6e848260208601610e07565b91505092915050565b60008060008060808587031215610e9157610e90610c29565b5b600085013567ffffffffffffffff811115610eaf57610eae610c2e565b5b610ebb87828801610d94565b945050602085013567ffffffffffffffff811115610edc57610edb610c2e565b5b610ee887828801610d94565b9350506040610ef987828801610d16565b925050606085013567ffffffffffffffff811115610f1a57610f19610c2e565b5b610f2687828801610e49565b91505092959194509250565b610f3b81610cf5565b82525050565b6000602082019050610f566000830184610f32565b92915050565b600073ffffffffffffffffffffffffffffffffffffffff82169050919050565b6000610f8782610f5c565b9050919050565b610f9781610f7c565b8114610fa257600080fd5b50565b600081359050610fb481610f8e565b92915050565b600080600060608486031215610fd357610fd2610c29565b5b6000610fe186828701610d16565b9350506020610ff286828701610d16565b925050604061100386828701610fa5565b9150509250925092565b60006020828403121561102357611022610c29565b5b600061103184828501610d16565b91505092915050565b600081519050919050565b600082825260208201905092915050565b60005b83811015611074578082015181840152602081019050611059565b60008484015250505050565b600061108b8261103a565b6110958185611045565b93506110a5818560208601611056565b6110ae81610c38565b840191505092915050565b600060408201905081810360008301526110d38185611080565b90506110e26020830184610f32565b9392505050565b600081519050919050565b600082825260208201905092915050565b6000819050602082019050919050565b61111e81610cf5565b82525050565b60006111308383611115565b60208301905092915050565b6000602082019050919050565b6000611154826110e9565b61115e81856110f4565b935061116983611105565b8060005b8381101561119a5781516111818882611124565b975061118c8361113c565b92505060018101905061116d565b5085935050505092915050565b600060408201905081810360008301526111c18185611149565b905081810360208301526111d58184611149565b90509392505050565b6111e781610f7c565b82525050565b600060208201905061120260008301846111de565b92915050565b60008060006060848603121561122157611220610c29565b5b600061122f86828701610d16565b935050602061124086828701610d16565b925050604084013567ffffffffffffffff81111561126157611260610c2e565b5b61126d86828701610e49565b9150509250925092565b600060608201905061128c6000830186610f32565b818103602083015261129e8185611080565b90506112ad60408301846111de565b949350505050565b600080600080608085870312156112cf576112ce610c29565b5b60006112dd87828801610d16565b94505060206112ee87828801610d16565b93505060406112ff87828801610fa5565b925050606085013567ffffffffffffffff8111156113205761131f610c2e565b5b61132c87828801610e49565b91505092959194509250565b7f596f7520646f6e277420686176652061636365737320746f207468697320667560008201527f6e6374696f6e0000000000000000000000000000000000000000000000000000602082015250565b6000611394602683611045565b915061139f82611338565b604082019050919050565b600060208201905081810360008301526113c381611387565b9050919050565b7f4e6f7420656e6f7567746820617267756d656e747320696e20746865206c697360008201527f7400000000000000000000000000000000000000000000000000000000000000602082015250565b6000611426602183611045565b9150611431826113ca565b604082019050919050565b6000602082019050818103600083015261145581611419565b9050919050565b7f4e487b7100000000000000000000000000000000000000000000000000000000600052603260045260246000fd5b7f4e6f7420656e6f75677468207175616e7469747920696e207468652073746f6360008201527f6b00000000000000000000000000000000000000000000000000000000000000602082015250565b60006114e7602183611045565b91506114f28261148b565b604082019050919050565b60006020820190508181036000830152611516816114da565b9050919050565b7f4e487b7100000000000000000000000000000000000000000000000000000000600052601160045260246000fd5b600061155782610cf5565b915061156283610cf5565b925082820390508181111561157a5761157961151d565b5b92915050565b600061158b82610cf5565b91507fffffffffffffffffffffffffffffffffffffffffffffffffffffffffffffffff82036115bd576115bc61151d565b5b600182019050919050565b7f4e487b7100000000000000000000000000000000000000000000000000000000600052602260045260246000fd5b6000600282049050600182168061160f57607f821691505b602082108103611622576116216115c8565b5b50919050565b60008190508160005260206000209050919050565b60006020601f8301049050919050565b600082821b905092915050565b60006008830261168a7fffffffffffffffffffffffffffffffffffffffffffffffffffffffffffffffff8261164d565b611694868361164d565b95508019841693508086168417925050509392505050565b6000819050919050565b60006116d16116cc6116c784610cf5565b6116ac565b610cf5565b9050919050565b6000819050919050565b6116eb836116b6565b6116ff6116f7826116d8565b84845461165a565b825550505050565b600090565b611714611707565b61171f8184846116e2565b505050565b5b818110156117435761173860008261170c565b600181019050611725565b5050565b601f8211156117885761175981611628565b6117628461163d565b81016020851015611771578190505b61178561177d8561163d565b830182611724565b50505b505050565b600082821c905092915050565b60006117ab6000198460080261178d565b1980831691505092915050565b60006117c4838361179a565b9150826002028217905092915050565b6117dd8261103a565b67ffffffffffffffff8111156117f6576117f5610c49565b5b61180082546115f7565b61180b828285611747565b600060209050601f83116001811461183e576000841561182c578287015190505b61183685826117b8565b86555061189e565b601f19841661184c86611628565b60005b828110156118745784890151825560018201915060208501945060208101905061184f565b86831015611891578489015161188d601f89168261179a565b8355505b6001600288020188555050505b505050505050565b60006118b182610cf5565b91506118bc83610cf5565b92508282019050808211156118d4576118d361151d565b5b92915050565b600081546118e7816115f7565b6118f18186611045565b9450600182166000811461190c576001811461192257611955565b60ff198316865281151560200286019350611955565b61192b85611628565b60005b8381101561194d5781548189015260018201915060208101905061192e565b808801955050505b50505092915050565b60006080820190506119736000830187610f32565b6119806020830186610f32565b61198d60408301856111de565b818103606083015261199f81846118da565b905095945050505050565b7f5468697320696420697320616c72656164792075736564000000000000000000600082015250565b60006119e0601783611045565b91506119eb826119aa565b602082019050919050565b60006020820190508181036000830152611a0f816119d3565b9050919050565b60008115159050919050565b611a2b81611a16565b8114611a3657600080fd5b50565b600081519050611a4881611a22565b92915050565b600060208284031215611a6457611a63610c29565b5b6000611a7284828501611a39565b9150509291505056fea26469706673582212205e3695154224d544a2a8e98c253641465906af8d98cdde00e1945f7f25b8cb2f64736f6c63430008100033","opcodes":"PUSH1 0x80 PUSH1 0x40 MSTORE CALLVALUE DUP1 ISZERO PUSH3 0x11 JUMPI PUSH1 0x0 DUP1 REVERT JUMPDEST POP PUSH1 0x40 MLOAD PUSH3 0x1C3B CODESIZE SUB DUP1 PUSH3 0x1C3B DUP4 CODECOPY DUP2 DUP2 ADD PUSH1 0x40 MSTORE DUP2 ADD SWAP1 PUSH3 0x37 SWAP2 SWAP1 PUSH3 0x133 JUMP JUMPDEST DUP2 PUSH1 0x0 DUP1 PUSH2 0x100 EXP DUP2 SLOAD DUP2 PUSH20 0xFFFFFFFFFFFFFFFFFFFFFFFFFFFFFFFFFFFFFFFF MUL NOT AND SWAP1 DUP4 PUSH20 0xFFFFFFFFFFFFFFFFFFFFFFFFFFFFFFFFFFFFFFFF AND MUL OR SWAP1 SSTORE POP DUP1 PUSH1 0x1 PUSH1 0x0 PUSH2 0x100 EXP DUP2 SLOAD DUP2 PUSH20 0xFFFFFFFFFFFFFFFFFFFFFFFFFFFFFFFFFFFFFFFF MUL NOT AND SWAP1 DUP4 PUSH20 0xFFFFFFFFFFFFFFFFFFFFFFFFFFFFFFFFFFFFFFFF AND MUL OR SWAP1 SSTORE POP PUSH2 0x3E8 PUSH1 0x4 DUP2 SWAP1 SSTORE POP POP POP PUSH3 0x17A JUMP JUMPDEST PUSH1 0x0 DUP1 REVERT JUMPDEST PUSH1 0x0 PUSH20 0xFFFFFFFFFFFFFFFFFFFFFFFFFFFFFFFFFFFFFFFF DUP3 AND SWAP1 POP SWAP2 SWAP1 POP JUMP JUMPDEST PUSH1 0x0 PUSH3 0xFB DUP3 PUSH3 0xCE JUMP JUMPDEST SWAP1 POP SWAP2 SWAP1 POP JUMP JUMPDEST PUSH3 0x10D DUP2 PUSH3 0xEE JUMP JUMPDEST DUP2 EQ PUSH3 0x119 JUMPI PUSH1 0x0 DUP1 REVERT JUMPDEST POP JUMP JUMPDEST PUSH1 0x0 DUP2 MLOAD SWAP1 POP PUSH3 0x12D DUP2 PUSH3 0x102 JUMP JUMPDEST SWAP3 SWAP2 POP POP JUMP JUMPDEST PUSH1 0x0 DUP1 PUSH1 0x40 DUP4 DUP6 SUB SLT ISZERO PUSH3 0x14D JUMPI PUSH3 0x14C PUSH3 0xC9 JUMP JUMPDEST JUMPDEST PUSH1 0x0 PUSH3 0x15D DUP6 DUP3 DUP7 ADD PUSH3 0x11C JUMP JUMPDEST SWAP3 POP POP PUSH1 0x20 PUSH3 0x170 DUP6 DUP3 DUP7 ADD PUSH3 0x11C JUMP JUMPDEST SWAP2 POP POP SWAP3 POP SWAP3 SWAP1 POP JUMP JUMPDEST PUSH2 0x1AB1 DUP1 PUSH3 0x18A PUSH1 0x0 CODECOPY PUSH1 0x0 RETURN INVALID PUSH1 0x80 PUSH1 0x40 MSTORE CALLVALUE DUP1 ISZERO PUSH2 0x10 JUMPI PUSH1 0x0 DUP1 REVERT JUMPDEST POP PUSH1 0x4 CALLDATASIZE LT PUSH2 0x88 JUMPI PUSH1 0x0 CALLDATALOAD PUSH1 0xE0 SHR DUP1 PUSH4 0xC45A0155 GT PUSH2 0x5B JUMPI DUP1 PUSH4 0xC45A0155 EQ PUSH2 0x13B JUMPI DUP1 PUSH4 0xD6D81E30 EQ PUSH2 0x159 JUMPI DUP1 PUSH4 0xDDEF9EA1 EQ PUSH2 0x175 JUMPI DUP1 PUSH4 0xFACF65FD EQ PUSH2 0x1A7 JUMPI PUSH2 0x88 JUMP JUMPDEST DUP1 PUSH4 0x4011DCB6 EQ PUSH2 0x8D JUMPI DUP1 PUSH4 0x763D2A3E EQ PUSH2 0xBD JUMPI DUP1 PUSH4 0x9149BDF2 EQ PUSH2 0xD9 JUMPI DUP1 PUSH4 0x96C49F05 EQ PUSH2 0x10A JUMPI JUMPDEST PUSH1 0x0 DUP1 REVERT JUMPDEST PUSH2 0xA7 PUSH1 0x4 DUP1 CALLDATASIZE SUB DUP2 ADD SWAP1 PUSH2 0xA2 SWAP2 SWAP1 PUSH2 0xE77 JUMP JUMPDEST PUSH2 0x1C3 JUMP JUMPDEST PUSH1 0x40 MLOAD PUSH2 0xB4 SWAP2 SWAP1 PUSH2 0xF41 JUMP JUMPDEST PUSH1 0x40 MLOAD DUP1 SWAP2 SUB SWAP1 RETURN JUMPDEST PUSH2 0xD7 PUSH1 0x4 DUP1 CALLDATASIZE SUB DUP2 ADD SWAP1 PUSH2 0xD2 SWAP2 SWAP1 PUSH2 0xFBA JUMP JUMPDEST PUSH2 0x498 JUMP JUMPDEST STOP JUMPDEST PUSH2 0xF3 PUSH1 0x4 DUP1 CALLDATASIZE SUB DUP2 ADD SWAP1 PUSH2 0xEE SWAP2 SWAP1 PUSH2 0x100D JUMP JUMPDEST PUSH2 0x619 JUMP JUMPDEST PUSH1 0x40 MLOAD PUSH2 0x101 SWAP3 SWAP2 SWAP1 PUSH2 0x10B9 JUMP JUMPDEST PUSH1 0x40 MLOAD DUP1 SWAP2 SUB SWAP1 RETURN JUMPDEST PUSH2 0x124 PUSH1 0x4 DUP1 CALLDATASIZE SUB DUP2 ADD SWAP1 PUSH2 0x11F SWAP2 SWAP1 PUSH2 0x100D JUMP JUMPDEST PUSH2 0x6C5 JUMP JUMPDEST PUSH1 0x40 MLOAD PUSH2 0x132 SWAP3 SWAP2 SWAP1 PUSH2 0x11A7 JUMP JUMPDEST PUSH1 0x40 MLOAD DUP1 SWAP2 SUB SWAP1 RETURN JUMPDEST PUSH2 0x143 PUSH2 0x7A1 JUMP JUMPDEST PUSH1 0x40 MLOAD PUSH2 0x150 SWAP2 SWAP1 PUSH2 0x11ED JUMP JUMPDEST PUSH1 0x40 MLOAD DUP1 SWAP2 SUB SWAP1 RETURN JUMPDEST PUSH2 0x173 PUSH1 0x4 DUP1 CALLDATASIZE SUB DUP2 ADD SWAP1 PUSH2 0x16E SWAP2 SWAP1 PUSH2 0x1208 JUMP JUMPDEST PUSH2 0x7C5 JUMP JUMPDEST STOP JUMPDEST PUSH2 0x18F PUSH1 0x4 DUP1 CALLDATASIZE SUB DUP2 ADD SWAP1 PUSH2 0x18A SWAP2 SWAP1 PUSH2 0x100D JUMP JUMPDEST PUSH2 0x95F JUMP JUMPDEST PUSH1 0x40 MLOAD PUSH2 0x19E SWAP4 SWAP3 SWAP2 SWAP1 PUSH2 0x1277 JUMP JUMPDEST PUSH1 0x40 MLOAD DUP1 SWAP2 SUB SWAP1 RETURN JUMPDEST PUSH2 0x1C1 PUSH1 0x4 DUP1 CALLDATASIZE SUB DUP2 ADD SWAP1 PUSH2 0x1BC SWAP2 SWAP1 PUSH2 0x12B5 JUMP JUMPDEST PUSH2 0xA31 JUMP JUMPDEST STOP JUMPDEST PUSH1 0x0 DUP1 PUSH1 0x0 SWAP1 SLOAD SWAP1 PUSH2 0x100 EXP SWAP1 DIV PUSH20 0xFFFFFFFFFFFFFFFFFFFFFFFFFFFFFFFFFFFFFFFF AND PUSH20 0xFFFFFFFFFFFFFFFFFFFFFFFFFFFFFFFFFFFFFFFF AND CALLER PUSH20 0xFFFFFFFFFFFFFFFFFFFFFFFFFFFFFFFFFFFFFFFF AND EQ PUSH2 0x254 JUMPI PUSH1 0x40 MLOAD PUSH32 0x8C379A000000000000000000000000000000000000000000000000000000000 DUP2 MSTORE PUSH1 0x4 ADD PUSH2 0x24B SWAP1 PUSH2 0x13AA JUMP JUMPDEST PUSH1 0x40 MLOAD DUP1 SWAP2 SUB SWAP1 REVERT JUMPDEST DUP4 MLOAD DUP6 MLOAD EQ PUSH2 0x298 JUMPI PUSH1 0x40 MLOAD PUSH32 0x8C379A000000000000000000000000000000000000000000000000000000000 DUP2 MSTORE PUSH1 0x4 ADD PUSH2 0x28F SWAP1 PUSH2 0x143C JUMP JUMPDEST PUSH1 0x40 MLOAD DUP1 SWAP2 SUB SWAP1 REVERT JUMPDEST PUSH1 0x0 PUSH1 0x3 PUSH1 0x0 PUSH1 0x4 SLOAD DUP2 MSTORE PUSH1 0x20 ADD SWAP1 DUP2 MSTORE PUSH1 0x20 ADD PUSH1 0x0 KECCAK256 SWAP1 POP PUSH1 0x0 JUMPDEST DUP7 MLOAD DUP2 LT ISZERO PUSH2 0x448 JUMPI DUP6 DUP2 DUP2 MLOAD DUP2 LT PUSH2 0x2D0 JUMPI PUSH2 0x2CF PUSH2 0x145C JUMP JUMPDEST JUMPDEST PUSH1 0x20 MUL PUSH1 0x20 ADD ADD MLOAD PUSH1 0x2 PUSH1 0x0 DUP10 DUP5 DUP2 MLOAD DUP2 LT PUSH2 0x2EF JUMPI PUSH2 0x2EE PUSH2 0x145C JUMP JUMPDEST JUMPDEST PUSH1 0x20 MUL PUSH1 0x20 ADD ADD MLOAD DUP2 MSTORE PUSH1 0x20 ADD SWAP1 DUP2 MSTORE PUSH1 0x20 ADD PUSH1 0x0 KECCAK256 PUSH1 0x0 ADD SLOAD LT ISZERO PUSH2 0x34A JUMPI PUSH1 0x40 MLOAD PUSH32 0x8C379A000000000000000000000000000000000000000000000000000000000 DUP2 MSTORE PUSH1 0x4 ADD PUSH2 0x341 SWAP1 PUSH2 0x14FD JUMP JUMPDEST PUSH1 0x40 MLOAD DUP1 SWAP2 SUB SWAP1 REVERT JUMPDEST DUP6 DUP2 DUP2 MLOAD DUP2 LT PUSH2 0x35D JUMPI PUSH2 0x35C PUSH2 0x145C JUMP JUMPDEST JUMPDEST PUSH1 0x20 MUL PUSH1 0x20 ADD ADD MLOAD PUSH1 0x2 PUSH1 0x0 DUP10 DUP5 DUP2 MLOAD DUP2 LT PUSH2 0x37C JUMPI PUSH2 0x37B PUSH2 0x145C JUMP JUMPDEST JUMPDEST PUSH1 0x20 MUL PUSH1 0x20 ADD ADD MLOAD DUP2 MSTORE PUSH1 0x20 ADD SWAP1 DUP2 MSTORE PUSH1 0x20 ADD PUSH1 0x0 KECCAK256 PUSH1 0x0 ADD PUSH1 0x0 DUP3 DUP3 SLOAD PUSH2 0x3A4 SWAP2 SWAP1 PUSH2 0x154C JUMP JUMPDEST SWAP3 POP POP DUP2 SWAP1 SSTORE POP DUP2 PUSH1 0x0 ADD DUP8 DUP3 DUP2 MLOAD DUP2 LT PUSH2 0x3C2 JUMPI PUSH2 0x3C1 PUSH2 0x145C JUMP JUMPDEST JUMPDEST PUSH1 0x20 MUL PUSH1 0x20 ADD ADD MLOAD SWAP1 DUP1 PUSH1 0x1 DUP2 SLOAD ADD DUP1 DUP3 SSTORE DUP1 SWAP2 POP POP PUSH1 0x1 SWAP1 SUB SWAP1 PUSH1 0x0 MSTORE PUSH1 0x20 PUSH1 0x0 KECCAK256 ADD PUSH1 0x0 SWAP1 SWAP2 SWAP1 SWAP2 SWAP1 SWAP2 POP SSTORE DUP2 PUSH1 0x1 ADD DUP7 DUP3 DUP2 MLOAD DUP2 LT PUSH2 0x407 JUMPI PUSH2 0x406 PUSH2 0x145C JUMP JUMPDEST JUMPDEST PUSH1 0x20 MUL PUSH1 0x20 ADD ADD MLOAD SWAP1 DUP1 PUSH1 0x1 DUP2 SLOAD ADD DUP1 DUP3 SSTORE DUP1 SWAP2 POP POP PUSH1 0x1 SWAP1 SUB SWAP1 PUSH1 0x0 MSTORE PUSH1 0x20 PUSH1 0x0 KECCAK256 ADD PUSH1 0x0 SWAP1 SWAP2 SWAP1 SWAP2 SWAP1 SWAP2 POP SSTORE DUP1 DUP1 PUSH2 0x440 SWAP1 PUSH2 0x1580 JUMP JUMPDEST SWAP2 POP POP PUSH2 0x2B4 JUMP JUMPDEST POP DUP4 DUP2 PUSH1 0x3 ADD DUP2 SWAP1 SSTORE POP DUP3 DUP2 PUSH1 0x2 ADD SWAP1 DUP2 PUSH2 0x463 SWAP2 SWAP1 PUSH2 0x17D4 JUMP JUMPDEST POP PUSH1 0x1 PUSH1 0x4 PUSH1 0x0 DUP3 DUP3 SLOAD PUSH2 0x477 SWAP2 SWAP1 PUSH2 0x18A6 JUMP JUMPDEST SWAP3 POP POP DUP2 SWAP1 SSTORE POP PUSH1 0x1 PUSH1 0x4 SLOAD PUSH2 0x48D SWAP2 SWAP1 PUSH2 0x154C JUMP JUMPDEST SWAP2 POP POP SWAP5 SWAP4 POP POP POP POP JUMP JUMPDEST PUSH1 0x0 DUP1 SLOAD SWAP1 PUSH2 0x100 EXP SWAP1 DIV PUSH20 0xFFFFFFFFFFFFFFFFFFFFFFFFFFFFFFFFFFFFFFFF AND PUSH20 0xFFFFFFFFFFFFFFFFFFFFFFFFFFFFFFFFFFFFFFFF AND CALLER PUSH20 0xFFFFFFFFFFFFFFFFFFFFFFFFFFFFFFFFFFFFFFFF AND EQ PUSH2 0x526 JUMPI PUSH1 0x40 MLOAD PUSH32 0x8C379A000000000000000000000000000000000000000000000000000000000 DUP2 MSTORE PUSH1 0x4 ADD PUSH2 0x51D SWAP1 PUSH2 0x13AA JUMP JUMPDEST PUSH1 0x40 MLOAD DUP1 SWAP2 SUB SWAP1 REVERT JUMPDEST PUSH1 0x0 PUSH1 0x3 PUSH1 0x0 DUP6 DUP2 MSTORE PUSH1 0x20 ADD SWAP1 DUP2 MSTORE PUSH1 0x20 ADD PUSH1 0x0 KECCAK256 SWAP1 POP DUP3 DUP2 PUSH1 0x3 ADD SLOAD LT ISZERO PUSH2 0x584 JUMPI PUSH1 0x40 MLOAD PUSH32 0x8C379A000000000000000000000000000000000000000000000000000000000 DUP2 MSTORE PUSH1 0x4 ADD PUSH2 0x57B SWAP1 PUSH2 0x14FD JUMP JUMPDEST PUSH1 0x40 MLOAD DUP1 SWAP2 SUB SWAP1 REVERT JUMPDEST DUP3 DUP2 PUSH1 0x3 ADD PUSH1 0x0 DUP3 DUP3 SLOAD PUSH2 0x598 SWAP2 SWAP1 PUSH2 0x154C JUMP JUMPDEST SWAP3 POP POP DUP2 SWAP1 SSTORE POP DUP2 PUSH20 0xFFFFFFFFFFFFFFFFFFFFFFFFFFFFFFFFFFFFFFFF AND PUSH4 0xFACF65FD DUP6 DUP6 ADDRESS DUP6 PUSH1 0x2 ADD PUSH1 0x40 MLOAD DUP6 PUSH4 0xFFFFFFFF AND PUSH1 0xE0 SHL DUP2 MSTORE PUSH1 0x4 ADD PUSH2 0x5E1 SWAP5 SWAP4 SWAP3 SWAP2 SWAP1 PUSH2 0x195E JUMP JUMPDEST PUSH1 0x0 PUSH1 0x40 MLOAD DUP1 DUP4 SUB DUP2 PUSH1 0x0 DUP8 DUP1 EXTCODESIZE ISZERO DUP1 ISZERO PUSH2 0x5FB JUMPI PUSH1 0x0 DUP1 REVERT JUMPDEST POP GAS CALL ISZERO DUP1 ISZERO PUSH2 0x60F JUMPI RETURNDATASIZE PUSH1 0x0 DUP1 RETURNDATACOPY RETURNDATASIZE PUSH1 0x0 REVERT JUMPDEST POP POP POP POP POP POP POP POP JUMP JUMPDEST PUSH1 0x3 PUSH1 0x20 MSTORE DUP1 PUSH1 0x0 MSTORE PUSH1 0x40 PUSH1 0x0 KECCAK256 PUSH1 0x0 SWAP2 POP SWAP1 POP DUP1 PUSH1 0x2 ADD DUP1 SLOAD PUSH2 0x63C SWAP1 PUSH2 0x15F7 JUMP JUMPDEST DUP1 PUSH1 0x1F ADD PUSH1 0x20 DUP1 SWAP2 DIV MUL PUSH1 0x20 ADD PUSH1 0x40 MLOAD SWAP1 DUP2 ADD PUSH1 0x40 MSTORE DUP1 SWAP3 SWAP2 SWAP1 DUP2 DUP2 MSTORE PUSH1 0x20 ADD DUP3 DUP1 SLOAD PUSH2 0x668 SWAP1 PUSH2 0x15F7 JUMP JUMPDEST DUP1 ISZERO PUSH2 0x6B5 JUMPI DUP1 PUSH1 0x1F LT PUSH2 0x68A JUMPI PUSH2 0x100 DUP1 DUP4 SLOAD DIV MUL DUP4 MSTORE SWAP2 PUSH1 0x20 ADD SWAP2 PUSH2 0x6B5 JUMP JUMPDEST DUP3 ADD SWAP2 SWAP1 PUSH1 0x0 MSTORE PUSH1 0x20 PUSH1 0x0 KECCAK256 SWAP1 JUMPDEST DUP2 SLOAD DUP2 MSTORE SWAP1 PUSH1 0x1 ADD SWAP1 PUSH1 0x20 ADD DUP1 DUP4 GT PUSH2 0x698 JUMPI DUP3 SWAP1 SUB PUSH1 0x1F AND DUP3 ADD SWAP2 JUMPDEST POP POP POP POP POP SWAP1 DUP1 PUSH1 0x3 ADD SLOAD SWAP1 POP DUP3 JUMP JUMPDEST PUSH1 0x60 DUP1 PUSH1 0x3 PUSH1 0x0 DUP5 DUP2 MSTORE PUSH1 0x20 ADD SWAP1 DUP2 MSTORE PUSH1 0x20 ADD PUSH1 0x0 KECCAK256 PUSH1 0x0 ADD PUSH1 0x3 PUSH1 0x0 DUP6 DUP2 MSTORE PUSH1 0x20 ADD SWAP1 DUP2 MSTORE PUSH1 0x20 ADD PUSH1 0x0 KECCAK256 PUSH1 0x1 ADD DUP2 DUP1 SLOAD DUP1 PUSH1 0x20 MUL PUSH1 0x20 ADD PUSH1 0x40 MLOAD SWAP1 DUP2 ADD PUSH1 0x40 MSTORE DUP1 SWAP3 SWAP2 SWAP1 DUP2 DUP2 MSTORE PUSH1 0x20 ADD DUP3 DUP1 SLOAD DUP1 ISZERO PUSH2 0x73F JUMPI PUSH1 0x20 MUL DUP3 ADD SWAP2 SWAP1 PUSH1 0x0 MSTORE PUSH1 0x20 PUSH1 0x0 KECCAK256 SWAP1 JUMPDEST DUP2 SLOAD DUP2 MSTORE PUSH1 0x20 ADD SWAP1 PUSH1 0x1 ADD SWAP1 DUP1 DUP4 GT PUSH2 0x72B JUMPI JUMPDEST POP POP POP POP POP SWAP2 POP DUP1 DUP1 SLOAD DUP1 PUSH1 0x20 MUL PUSH1 0x20 ADD PUSH1 0x40 MLOAD SWAP1 DUP2 ADD PUSH1 0x40 MSTORE DUP1 SWAP3 SWAP2 SWAP1 DUP2 DUP2 MSTORE PUSH1 0x20 ADD DUP3 DUP1 SLOAD DUP1 ISZERO PUSH2 0x791 JUMPI PUSH1 0x20 MUL DUP3 ADD SWAP2 SWAP1 PUSH1 0x0 MSTORE PUSH1 0x20 PUSH1 0x0 KECCAK256 SWAP1 JUMPDEST DUP2 SLOAD DUP2 MSTORE PUSH1 0x20 ADD SWAP1 PUSH1 0x1 ADD SWAP1 DUP1 DUP4 GT PUSH2 0x77D JUMPI JUMPDEST POP POP POP POP POP SWAP1 POP SWAP2 POP SWAP2 POP SWAP2 POP SWAP2 JUMP JUMPDEST PUSH1 0x0 DUP1 SLOAD SWAP1 PUSH2 0x100 EXP SWAP1 DIV PUSH20 0xFFFFFFFFFFFFFFFFFFFFFFFFFFFFFFFFFFFFFFFF AND DUP2 JUMP JUMPDEST PUSH1 0x0 DUP1 SLOAD SWAP1 PUSH2 0x100 EXP SWAP1 DIV PUSH20 0xFFFFFFFFFFFFFFFFFFFFFFFFFFFFFFFFFFFFFFFF AND PUSH20 0xFFFFFFFFFFFFFFFFFFFFFFFFFFFFFFFFFFFFFFFF AND CALLER PUSH20 0xFFFFFFFFFFFFFFFFFFFFFFFFFFFFFFFFFFFFFFFF AND EQ PUSH2 0x853 JUMPI PUSH1 0x40 MLOAD PUSH32 0x8C379A000000000000000000000000000000000000000000000000000000000 DUP2 MSTORE PUSH1 0x4 ADD PUSH2 0x84A SWAP1 PUSH2 0x13AA JUMP JUMPDEST PUSH1 0x40 MLOAD DUP1 SWAP2 SUB SWAP1 REVERT JUMPDEST PUSH1 0x0 PUSH1 0x2 PUSH1 0x0 DUP6 DUP2 MSTORE PUSH1 0x20 ADD SWAP1 DUP2 MSTORE PUSH1 0x20 ADD PUSH1 0x0 KECCAK256 PUSH1 0x0 ADD SLOAD EQ PUSH2 0x8AC JUMPI PUSH1 0x40 MLOAD PUSH32 0x8C379A000000000000000000000000000000000000000000000000000000000 DUP2 MSTORE PUSH1 0x4 ADD PUSH2 0x8A3 SWAP1 PUSH2 0x19F6 JUMP JUMPDEST PUSH1 0x40 MLOAD DUP1 SWAP2 SUB SWAP1 REVERT JUMPDEST PUSH1 0x40 MLOAD DUP1 PUSH1 0x60 ADD PUSH1 0x40 MSTORE DUP1 DUP4 DUP2 MSTORE PUSH1 0x20 ADD DUP3 DUP2 MSTORE PUSH1 0x20 ADD ADDRESS PUSH20 0xFFFFFFFFFFFFFFFFFFFFFFFFFFFFFFFFFFFFFFFF AND DUP2 MSTORE POP PUSH1 0x2 PUSH1 0x0 DUP6 DUP2 MSTORE PUSH1 0x20 ADD SWAP1 DUP2 MSTORE PUSH1 0x20 ADD PUSH1 0x0 KECCAK256 PUSH1 0x0 DUP3 ADD MLOAD DUP2 PUSH1 0x0 ADD SSTORE PUSH1 0x20 DUP3 ADD MLOAD DUP2 PUSH1 0x1 ADD SWAP1 DUP2 PUSH2 0x90F SWAP2 SWAP1 PUSH2 0x17D4 JUMP JUMPDEST POP PUSH1 0x40 DUP3 ADD MLOAD DUP2 PUSH1 0x2 ADD PUSH1 0x0 PUSH2 0x100 EXP DUP2 SLOAD DUP2 PUSH20 0xFFFFFFFFFFFFFFFFFFFFFFFFFFFFFFFFFFFFFFFF MUL NOT AND SWAP1 DUP4 PUSH20 0xFFFFFFFFFFFFFFFFFFFFFFFFFFFFFFFFFFFFFFFF AND MUL OR SWAP1 SSTORE POP SWAP1 POP POP POP POP POP JUMP JUMPDEST PUSH1 0x2 PUSH1 0x20 MSTORE DUP1 PUSH1 0x0 MSTORE PUSH1 0x40 PUSH1 0x0 KECCAK256 PUSH1 0x0 SWAP2 POP SWAP1 POP DUP1 PUSH1 0x0 ADD SLOAD SWAP1 DUP1 PUSH1 0x1 ADD DUP1 SLOAD PUSH2 0x988 SWAP1 PUSH2 0x15F7 JUMP JUMPDEST DUP1 PUSH1 0x1F ADD PUSH1 0x20 DUP1 SWAP2 DIV MUL PUSH1 0x20 ADD PUSH1 0x40 MLOAD SWAP1 DUP2 ADD PUSH1 0x40 MSTORE DUP1 SWAP3 SWAP2 SWAP1 DUP2 DUP2 MSTORE PUSH1 0x20 ADD DUP3 DUP1 SLOAD PUSH2 0x9B4 SWAP1 PUSH2 0x15F7 JUMP JUMPDEST DUP1 ISZERO PUSH2 0xA01 JUMPI DUP1 PUSH1 0x1F LT PUSH2 0x9D6 JUMPI PUSH2 0x100 DUP1 DUP4 SLOAD DIV MUL DUP4 MSTORE SWAP2 PUSH1 0x20 ADD SWAP2 PUSH2 0xA01 JUMP JUMPDEST DUP3 ADD SWAP2 SWAP1 PUSH1 0x0 MSTORE PUSH1 0x20 PUSH1 0x0 KECCAK256 SWAP1 JUMPDEST DUP2 SLOAD DUP2 MSTORE SWAP1 PUSH1 0x1 ADD SWAP1 PUSH1 0x20 ADD DUP1 DUP4 GT PUSH2 0x9E4 JUMPI DUP3 SWAP1 SUB PUSH1 0x1F AND DUP3 ADD SWAP2 JUMPDEST POP POP POP POP POP SWAP1 DUP1 PUSH1 0x2 ADD PUSH1 0x0 SWAP1 SLOAD SWAP1 PUSH2 0x100 EXP SWAP1 DIV PUSH20 0xFFFFFFFFFFFFFFFFFFFFFFFFFFFFFFFFFFFFFFFF AND SWAP1 POP DUP4 JUMP JUMPDEST PUSH1 0x0 PUSH1 0x1 PUSH1 0x0 SWAP1 SLOAD SWAP1 PUSH2 0x100 EXP SWAP1 DIV PUSH20 0xFFFFFFFFFFFFFFFFFFFFFFFFFFFFFFFFFFFFFFFF AND SWAP1 POP DUP1 PUSH20 0xFFFFFFFFFFFFFFFFFFFFFFFFFFFFFFFFFFFFFFFF AND PUSH4 0xFAB52689 ORIGIN PUSH1 0x40 MLOAD DUP3 PUSH4 0xFFFFFFFF AND PUSH1 0xE0 SHL DUP2 MSTORE PUSH1 0x4 ADD PUSH2 0xA91 SWAP2 SWAP1 PUSH2 0x11ED JUMP JUMPDEST PUSH1 0x20 PUSH1 0x40 MLOAD DUP1 DUP4 SUB DUP2 DUP7 GAS STATICCALL ISZERO DUP1 ISZERO PUSH2 0xAAE JUMPI RETURNDATASIZE PUSH1 0x0 DUP1 RETURNDATACOPY RETURNDATASIZE PUSH1 0x0 REVERT JUMPDEST POP POP POP POP PUSH1 0x40 MLOAD RETURNDATASIZE PUSH1 0x1F NOT PUSH1 0x1F DUP3 ADD AND DUP3 ADD DUP1 PUSH1 0x40 MSTORE POP DUP2 ADD SWAP1 PUSH2 0xAD2 SWAP2 SWAP1 PUSH2 0x1A4E JUMP JUMPDEST PUSH2 0xB11 JUMPI PUSH1 0x40 MLOAD PUSH32 0x8C379A000000000000000000000000000000000000000000000000000000000 DUP2 MSTORE PUSH1 0x4 ADD PUSH2 0xB08 SWAP1 PUSH2 0x13AA JUMP JUMPDEST PUSH1 0x40 MLOAD DUP1 SWAP2 SUB SWAP1 REVERT JUMPDEST PUSH1 0x0 PUSH1 0x2 PUSH1 0x0 DUP8 DUP2 MSTORE PUSH1 0x20 ADD SWAP1 DUP2 MSTORE PUSH1 0x20 ADD PUSH1 0x0 KECCAK256 PUSH1 0x0 ADD SLOAD EQ PUSH2 0xB6A JUMPI PUSH1 0x40 MLOAD PUSH32 0x8C379A000000000000000000000000000000000000000000000000000000000 DUP2 MSTORE PUSH1 0x4 ADD PUSH2 0xB61 SWAP1 PUSH2 0x19F6 JUMP JUMPDEST PUSH1 0x40 MLOAD DUP1 SWAP2 SUB SWAP1 REVERT JUMPDEST PUSH1 0x40 MLOAD DUP1 PUSH1 0x60 ADD PUSH1 0x40 MSTORE DUP1 DUP6 DUP2 MSTORE PUSH1 0x20 ADD DUP4 DUP2 MSTORE PUSH1 0x20 ADD DUP5 PUSH20 0xFFFFFFFFFFFFFFFFFFFFFFFFFFFFFFFFFFFFFFFF AND DUP2 MSTORE POP PUSH1 0x2 PUSH1 0x0 DUP8 DUP2 MSTORE PUSH1 0x20 ADD SWAP1 DUP2 MSTORE PUSH1 0x20 ADD PUSH1 0x0 KECCAK256 PUSH1 0x0 DUP3 ADD MLOAD DUP2 PUSH1 0x0 ADD SSTORE PUSH1 0x20 DUP3 ADD MLOAD DUP2 PUSH1 0x1 ADD SWAP1 DUP2 PUSH2 0xBCD SWAP2 SWAP1 PUSH2 0x17D4 JUMP JUMPDEST POP PUSH1 0x40 DUP3 ADD MLOAD DUP2 PUSH1 0x2 ADD PUSH1 0x0 PUSH2 0x100 EXP DUP2 SLOAD DUP2 PUSH20 0xFFFFFFFFFFFFFFFFFFFFFFFFFFFFFFFFFFFFFFFF MUL NOT AND SWAP1 DUP4 PUSH20 0xFFFFFFFFFFFFFFFFFFFFFFFFFFFFFFFFFFFFFFFF AND MUL OR SWAP1 SSTORE POP SWAP1 POP POP POP POP POP POP POP JUMP JUMPDEST PUSH1 0x0 PUSH1 0x40 MLOAD SWAP1 POP SWAP1 JUMP JUMPDEST PUSH1 0x0 DUP1 REVERT JUMPDEST PUSH1 0x0 DUP1 REVERT JUMPDEST PUSH1 0x0 DUP1 REVERT JUMPDEST PUSH1 0x0 PUSH1 0x1F NOT PUSH1 0x1F DUP4 ADD AND SWAP1 POP SWAP2 SWAP1 POP JUMP JUMPDEST PUSH32 0x4E487B7100000000000000000000000000000000000000000000000000000000 PUSH1 0x0 MSTORE PUSH1 0x41 PUSH1 0x4 MSTORE PUSH1 0x24 PUSH1 0x0 REVERT JUMPDEST PUSH2 0xC81 DUP3 PUSH2 0xC38 JUMP JUMPDEST DUP2 ADD DUP2 DUP2 LT PUSH8 0xFFFFFFFFFFFFFFFF DUP3 GT OR ISZERO PUSH2 0xCA0 JUMPI PUSH2 0xC9F PUSH2 0xC49 JUMP JUMPDEST JUMPDEST DUP1 PUSH1 0x40 MSTORE POP POP POP JUMP JUMPDEST PUSH1 0x0 PUSH2 0xCB3 PUSH2 0xC1F JUMP JUMPDEST SWAP1 POP PUSH2 0xCBF DUP3 DUP3 PUSH2 0xC78 JUMP JUMPDEST SWAP2 SWAP1 POP JUMP JUMPDEST PUSH1 0x0 PUSH8 0xFFFFFFFFFFFFFFFF DUP3 GT ISZERO PUSH2 0xCDF JUMPI PUSH2 0xCDE PUSH2 0xC49 JUMP JUMPDEST JUMPDEST PUSH1 0x20 DUP3 MUL SWAP1 POP PUSH1 0x20 DUP2 ADD SWAP1 POP SWAP2 SWAP1 POP JUMP JUMPDEST PUSH1 0x0 DUP1 REVERT JUMPDEST PUSH1 0x0 DUP2 SWAP1 POP SWAP2 SWAP1 POP JUMP JUMPDEST PUSH2 0xD08 DUP2 PUSH2 0xCF5 JUMP JUMPDEST DUP2 EQ PUSH2 0xD13 JUMPI PUSH1 0x0 DUP1 REVERT JUMPDEST POP JUMP JUMPDEST PUSH1 0x0 DUP2 CALLDATALOAD SWAP1 POP PUSH2 0xD25 DUP2 PUSH2 0xCFF JUMP JUMPDEST SWAP3 SWAP2 POP POP JUMP JUMPDEST PUSH1 0x0 PUSH2 0xD3E PUSH2 0xD39 DUP5 PUSH2 0xCC4 JUMP JUMPDEST PUSH2 0xCA9 JUMP JUMPDEST SWAP1 POP DUP1 DUP4 DUP3 MSTORE PUSH1 0x20 DUP3 ADD SWAP1 POP PUSH1 0x20 DUP5 MUL DUP4 ADD DUP6 DUP2 GT ISZERO PUSH2 0xD61 JUMPI PUSH2 0xD60 PUSH2 0xCF0 JUMP JUMPDEST JUMPDEST DUP4 JUMPDEST DUP2 DUP2 LT ISZERO PUSH2 0xD8A JUMPI DUP1 PUSH2 0xD76 DUP9 DUP3 PUSH2 0xD16 JUMP JUMPDEST DUP5 MSTORE PUSH1 0x20 DUP5 ADD SWAP4 POP POP PUSH1 0x20 DUP2 ADD SWAP1 POP PUSH2 0xD63 JUMP JUMPDEST POP POP POP SWAP4 SWAP3 POP POP POP JUMP JUMPDEST PUSH1 0x0 DUP3 PUSH1 0x1F DUP4 ADD SLT PUSH2 0xDA9 JUMPI PUSH2 0xDA8 PUSH2 0xC33 JUMP JUMPDEST JUMPDEST DUP2 CALLDATALOAD PUSH2 0xDB9 DUP5 DUP3 PUSH1 0x20 DUP7 ADD PUSH2 0xD2B JUMP JUMPDEST SWAP2 POP POP SWAP3 SWAP2 POP POP JUMP JUMPDEST PUSH1 0x0 DUP1 REVERT JUMPDEST PUSH1 0x0 PUSH8 0xFFFFFFFFFFFFFFFF DUP3 GT ISZERO PUSH2 0xDE2 JUMPI PUSH2 0xDE1 PUSH2 0xC49 JUMP JUMPDEST JUMPDEST PUSH2 0xDEB DUP3 PUSH2 0xC38 JUMP JUMPDEST SWAP1 POP PUSH1 0x20 DUP2 ADD SWAP1 POP SWAP2 SWAP1 POP JUMP JUMPDEST DUP3 DUP2 DUP4 CALLDATACOPY PUSH1 0x0 DUP4 DUP4 ADD MSTORE POP POP POP JUMP JUMPDEST PUSH1 0x0 PUSH2 0xE1A PUSH2 0xE15 DUP5 PUSH2 0xDC7 JUMP JUMPDEST PUSH2 0xCA9 JUMP JUMPDEST SWAP1 POP DUP3 DUP2 MSTORE PUSH1 0x20 DUP2 ADD DUP5 DUP5 DUP5 ADD GT ISZERO PUSH2 0xE36 JUMPI PUSH2 0xE35 PUSH2 0xDC2 JUMP JUMPDEST JUMPDEST PUSH2 0xE41 DUP5 DUP3 DUP6 PUSH2 0xDF8 JUMP JUMPDEST POP SWAP4 SWAP3 POP POP POP JUMP JUMPDEST PUSH1 0x0 DUP3 PUSH1 0x1F DUP4 ADD SLT PUSH2 0xE5E JUMPI PUSH2 0xE5D PUSH2 0xC33 JUMP JUMPDEST JUMPDEST DUP2 CALLDATALOAD PUSH2 0xE6E DUP5 DUP3 PUSH1 0x20 DUP7 ADD PUSH2 0xE07 JUMP JUMPDEST SWAP2 POP POP SWAP3 SWAP2 POP POP JUMP JUMPDEST PUSH1 0x0 DUP1 PUSH1 0x0 DUP1 PUSH1 0x80 DUP6 DUP8 SUB SLT ISZERO PUSH2 0xE91 JUMPI PUSH2 0xE90 PUSH2 0xC29 JUMP JUMPDEST JUMPDEST PUSH1 0x0 DUP6 ADD CALLDATALOAD PUSH8 0xFFFFFFFFFFFFFFFF DUP2 GT ISZERO PUSH2 0xEAF JUMPI PUSH2 0xEAE PUSH2 0xC2E JUMP JUMPDEST JUMPDEST PUSH2 0xEBB DUP8 DUP3 DUP9 ADD PUSH2 0xD94 JUMP JUMPDEST SWAP5 POP POP PUSH1 0x20 DUP6 ADD CALLDATALOAD PUSH8 0xFFFFFFFFFFFFFFFF DUP2 GT ISZERO PUSH2 0xEDC JUMPI PUSH2 0xEDB PUSH2 0xC2E JUMP JUMPDEST JUMPDEST PUSH2 0xEE8 DUP8 DUP3 DUP9 ADD PUSH2 0xD94 JUMP JUMPDEST SWAP4 POP POP PUSH1 0x40 PUSH2 0xEF9 DUP8 DUP3 DUP9 ADD PUSH2 0xD16 JUMP JUMPDEST SWAP3 POP POP PUSH1 0x60 DUP6 ADD CALLDATALOAD PUSH8 0xFFFFFFFFFFFFFFFF DUP2 GT ISZERO PUSH2 0xF1A JUMPI PUSH2 0xF19 PUSH2 0xC2E JUMP JUMPDEST JUMPDEST PUSH2 0xF26 DUP8 DUP3 DUP9 ADD PUSH2 0xE49 JUMP JUMPDEST SWAP2 POP POP SWAP3 SWAP6 SWAP2 SWAP5 POP SWAP3 POP JUMP JUMPDEST PUSH2 0xF3B DUP2 PUSH2 0xCF5 JUMP JUMPDEST DUP3 MSTORE POP POP JUMP JUMPDEST PUSH1 0x0 PUSH1 0x20 DUP3 ADD SWAP1 POP PUSH2 0xF56 PUSH1 0x0 DUP4 ADD DUP5 PUSH2 0xF32 JUMP JUMPDEST SWAP3 SWAP2 POP POP JUMP JUMPDEST PUSH1 0x0 PUSH20 0xFFFFFFFFFFFFFFFFFFFFFFFFFFFFFFFFFFFFFFFF DUP3 AND SWAP1 POP SWAP2 SWAP1 POP JUMP JUMPDEST PUSH1 0x0 PUSH2 0xF87 DUP3 PUSH2 0xF5C JUMP JUMPDEST SWAP1 POP SWAP2 SWAP1 POP JUMP JUMPDEST PUSH2 0xF97 DUP2 PUSH2 0xF7C JUMP JUMPDEST DUP2 EQ PUSH2 0xFA2 JUMPI PUSH1 0x0 DUP1 REVERT JUMPDEST POP JUMP JUMPDEST PUSH1 0x0 DUP2 CALLDATALOAD SWAP1 POP PUSH2 0xFB4 DUP2 PUSH2 0xF8E JUMP JUMPDEST SWAP3 SWAP2 POP POP JUMP JUMPDEST PUSH1 0x0 DUP1 PUSH1 0x0 PUSH1 0x60 DUP5 DUP7 SUB SLT ISZERO PUSH2 0xFD3 JUMPI PUSH2 0xFD2 PUSH2 0xC29 JUMP JUMPDEST JUMPDEST PUSH1 0x0 PUSH2 0xFE1 DUP7 DUP3 DUP8 ADD PUSH2 0xD16 JUMP JUMPDEST SWAP4 POP POP PUSH1 0x20 PUSH2 0xFF2 DUP7 DUP3 DUP8 ADD PUSH2 0xD16 JUMP JUMPDEST SWAP3 POP POP PUSH1 0x40 PUSH2 0x1003 DUP7 DUP3 DUP8 ADD PUSH2 0xFA5 JUMP JUMPDEST SWAP2 POP POP SWAP3 POP SWAP3 POP SWAP3 JUMP JUMPDEST PUSH1 0x0 PUSH1 0x20 DUP3 DUP5 SUB SLT ISZERO PUSH2 0x1023 JUMPI PUSH2 0x1022 PUSH2 0xC29 JUMP JUMPDEST JUMPDEST PUSH1 0x0 PUSH2 0x1031 DUP5 DUP3 DUP6 ADD PUSH2 0xD16 JUMP JUMPDEST SWAP2 POP POP SWAP3 SWAP2 POP POP JUMP JUMPDEST PUSH1 0x0 DUP2 MLOAD SWAP1 POP SWAP2 SWAP1 POP JUMP JUMPDEST PUSH1 0x0 DUP3 DUP3 MSTORE PUSH1 0x20 DUP3 ADD SWAP1 POP SWAP3 SWAP2 POP POP JUMP JUMPDEST PUSH1 0x0 JUMPDEST DUP4 DUP2 LT ISZERO PUSH2 0x1074 JUMPI DUP1 DUP3 ADD MLOAD DUP2 DUP5 ADD MSTORE PUSH1 0x20 DUP2 ADD SWAP1 POP PUSH2 0x1059 JUMP JUMPDEST PUSH1 0x0 DUP5 DUP5 ADD MSTORE POP POP POP POP JUMP JUMPDEST PUSH1 0x0 PUSH2 0x108B DUP3 PUSH2 0x103A JUMP JUMPDEST PUSH2 0x1095 DUP2 DUP6 PUSH2 0x1045 JUMP JUMPDEST SWAP4 POP PUSH2 0x10A5 DUP2 DUP6 PUSH1 0x20 DUP7 ADD PUSH2 0x1056 JUMP JUMPDEST PUSH2 0x10AE DUP2 PUSH2 0xC38 JUMP JUMPDEST DUP5 ADD SWAP2 POP POP SWAP3 SWAP2 POP POP JUMP JUMPDEST PUSH1 0x0 PUSH1 0x40 DUP3 ADD SWAP1 POP DUP2 DUP2 SUB PUSH1 0x0 DUP4 ADD MSTORE PUSH2 0x10D3 DUP2 DUP6 PUSH2 0x1080 JUMP JUMPDEST SWAP1 POP PUSH2 0x10E2 PUSH1 0x20 DUP4 ADD DUP5 PUSH2 0xF32 JUMP JUMPDEST SWAP4 SWAP3 POP POP POP JUMP JUMPDEST PUSH1 0x0 DUP2 MLOAD SWAP1 POP SWAP2 SWAP1 POP JUMP JUMPDEST PUSH1 0x0 DUP3 DUP3 MSTORE PUSH1 0x20 DUP3 ADD SWAP1 POP SWAP3 SWAP2 POP POP JUMP JUMPDEST PUSH1 0x0 DUP2 SWAP1 POP PUSH1 0x20 DUP3 ADD SWAP1 POP SWAP2 SWAP1 POP JUMP JUMPDEST PUSH2 0x111E DUP2 PUSH2 0xCF5 JUMP JUMPDEST DUP3 MSTORE POP POP JUMP JUMPDEST PUSH1 0x0 PUSH2 0x1130 DUP4 DUP4 PUSH2 0x1115 JUMP JUMPDEST PUSH1 0x20 DUP4 ADD SWAP1 POP SWAP3 SWAP2 POP POP JUMP JUMPDEST PUSH1 0x0 PUSH1 0x20 DUP3 ADD SWAP1 POP SWAP2 SWAP1 POP JUMP JUMPDEST PUSH1 0x0 PUSH2 0x1154 DUP3 PUSH2 0x10E9 JUMP JUMPDEST PUSH2 0x115E DUP2 DUP6 PUSH2 0x10F4 JUMP JUMPDEST SWAP4 POP PUSH2 0x1169 DUP4 PUSH2 0x1105 JUMP JUMPDEST DUP1 PUSH1 0x0 JUMPDEST DUP4 DUP2 LT ISZERO PUSH2 0x119A JUMPI DUP2 MLOAD PUSH2 0x1181 DUP9 DUP3 PUSH2 0x1124 JUMP JUMPDEST SWAP8 POP PUSH2 0x118C DUP4 PUSH2 0x113C JUMP JUMPDEST SWAP3 POP POP PUSH1 0x1 DUP2 ADD SWAP1 POP PUSH2 0x116D JUMP JUMPDEST POP DUP6 SWAP4 POP POP POP POP SWAP3 SWAP2 POP POP JUMP JUMPDEST PUSH1 0x0 PUSH1 0x40 DUP3 ADD SWAP1 POP DUP2 DUP2 SUB PUSH1 0x0 DUP4 ADD MSTORE PUSH2 0x11C1 DUP2 DUP6 PUSH2 0x1149 JUMP JUMPDEST SWAP1 POP DUP2 DUP2 SUB PUSH1 0x20 DUP4 ADD MSTORE PUSH2 0x11D5 DUP2 DUP5 PUSH2 0x1149 JUMP JUMPDEST SWAP1 POP SWAP4 SWAP3 POP POP POP JUMP JUMPDEST PUSH2 0x11E7 DUP2 PUSH2 0xF7C JUMP JUMPDEST DUP3 MSTORE POP POP JUMP JUMPDEST PUSH1 0x0 PUSH1 0x20 DUP3 ADD SWAP1 POP PUSH2 0x1202 PUSH1 0x0 DUP4 ADD DUP5 PUSH2 0x11DE JUMP JUMPDEST SWAP3 SWAP2 POP POP JUMP JUMPDEST PUSH1 0x0 DUP1 PUSH1 0x0 PUSH1 0x60 DUP5 DUP7 SUB SLT ISZERO PUSH2 0x1221 JUMPI PUSH2 0x1220 PUSH2 0xC29 JUMP JUMPDEST JUMPDEST PUSH1 0x0 PUSH2 0x122F DUP7 DUP3 DUP8 ADD PUSH2 0xD16 JUMP JUMPDEST SWAP4 POP POP PUSH1 0x20 PUSH2 0x1240 DUP7 DUP3 DUP8 ADD PUSH2 0xD16 JUMP JUMPDEST SWAP3 POP POP PUSH1 0x40 DUP5 ADD CALLDATALOAD PUSH8 0xFFFFFFFFFFFFFFFF DUP2 GT ISZERO PUSH2 0x1261 JUMPI PUSH2 0x1260 PUSH2 0xC2E JUMP JUMPDEST JUMPDEST PUSH2 0x126D DUP7 DUP3 DUP8 ADD PUSH2 0xE49 JUMP JUMPDEST SWAP2 POP POP SWAP3 POP SWAP3 POP SWAP3 JUMP JUMPDEST PUSH1 0x0 PUSH1 0x60 DUP3 ADD SWAP1 POP PUSH2 0x128C PUSH1 0x0 DUP4 ADD DUP7 PUSH2 0xF32 JUMP JUMPDEST DUP2 DUP2 SUB PUSH1 0x20 DUP4 ADD MSTORE PUSH2 0x129E DUP2 DUP6 PUSH2 0x1080 JUMP JUMPDEST SWAP1 POP PUSH2 0x12AD PUSH1 0x40 DUP4 ADD DUP5 PUSH2 0x11DE JUMP JUMPDEST SWAP5 SWAP4 POP POP POP POP JUMP JUMPDEST PUSH1 0x0 DUP1 PUSH1 0x0 DUP1 PUSH1 0x80 DUP6 DUP8 SUB SLT ISZERO PUSH2 0x12CF JUMPI PUSH2 0x12CE PUSH2 0xC29 JUMP JUMPDEST JUMPDEST PUSH1 0x0 PUSH2 0x12DD DUP8 DUP3 DUP9 ADD PUSH2 0xD16 JUMP JUMPDEST SWAP5 POP POP PUSH1 0x20 PUSH2 0x12EE DUP8 DUP3 DUP9 ADD PUSH2 0xD16 JUMP JUMPDEST SWAP4 POP POP PUSH1 0x40 PUSH2 0x12FF DUP8 DUP3 DUP9 ADD PUSH2 0xFA5 JUMP JUMPDEST SWAP3 POP POP PUSH1 0x60 DUP6 ADD CALLDATALOAD PUSH8 0xFFFFFFFFFFFFFFFF DUP2 GT ISZERO PUSH2 0x1320 JUMPI PUSH2 0x131F PUSH2 0xC2E JUMP JUMPDEST JUMPDEST PUSH2 0x132C DUP8 DUP3 DUP9 ADD PUSH2 0xE49 JUMP JUMPDEST SWAP2 POP POP SWAP3 SWAP6 SWAP2 SWAP5 POP SWAP3 POP JUMP JUMPDEST PUSH32 0x596F7520646F6E277420686176652061636365737320746F2074686973206675 PUSH1 0x0 DUP3 ADD MSTORE PUSH32 0x6E6374696F6E0000000000000000000000000000000000000000000000000000 PUSH1 0x20 DUP3 ADD MSTORE POP JUMP JUMPDEST PUSH1 0x0 PUSH2 0x1394 PUSH1 0x26 DUP4 PUSH2 0x1045 JUMP JUMPDEST SWAP2 POP PUSH2 0x139F DUP3 PUSH2 0x1338 JUMP JUMPDEST PUSH1 0x40 DUP3 ADD SWAP1 POP SWAP2 SWAP1 POP JUMP JUMPDEST PUSH1 0x0 PUSH1 0x20 DUP3 ADD SWAP1 POP DUP2 DUP2 SUB PUSH1 0x0 DUP4 ADD MSTORE PUSH2 0x13C3 DUP2 PUSH2 0x1387 JUMP JUMPDEST SWAP1 POP SWAP2 SWAP1 POP JUMP JUMPDEST PUSH32 0x4E6F7420656E6F7567746820617267756D656E747320696E20746865206C6973 PUSH1 0x0 DUP3 ADD MSTORE PUSH32 0x7400000000000000000000000000000000000000000000000000000000000000 PUSH1 0x20 DUP3 ADD MSTORE POP JUMP JUMPDEST PUSH1 0x0 PUSH2 0x1426 PUSH1 0x21 DUP4 PUSH2 0x1045 JUMP JUMPDEST SWAP2 POP PUSH2 0x1431 DUP3 PUSH2 0x13CA JUMP JUMPDEST PUSH1 0x40 DUP3 ADD SWAP1 POP SWAP2 SWAP1 POP JUMP JUMPDEST PUSH1 0x0 PUSH1 0x20 DUP3 ADD SWAP1 POP DUP2 DUP2 SUB PUSH1 0x0 DUP4 ADD MSTORE PUSH2 0x1455 DUP2 PUSH2 0x1419 JUMP JUMPDEST SWAP1 POP SWAP2 SWAP1 POP JUMP JUMPDEST PUSH32 0x4E487B7100000000000000000000000000000000000000000000000000000000 PUSH1 0x0 MSTORE PUSH1 0x32 PUSH1 0x4 MSTORE PUSH1 0x24 PUSH1 0x0 REVERT JUMPDEST PUSH32 0x4E6F7420656E6F75677468207175616E7469747920696E207468652073746F63 PUSH1 0x0 DUP3 ADD MSTORE PUSH32 0x6B00000000000000000000000000000000000000000000000000000000000000 PUSH1 0x20 DUP3 ADD MSTORE POP JUMP JUMPDEST PUSH1 0x0 PUSH2 0x14E7 PUSH1 0x21 DUP4 PUSH2 0x1045 JUMP JUMPDEST SWAP2 POP PUSH2 0x14F2 DUP3 PUSH2 0x148B JUMP JUMPDEST PUSH1 0x40 DUP3 ADD SWAP1 POP SWAP2 SWAP1 POP JUMP JUMPDEST PUSH1 0x0 PUSH1 0x20 DUP3 ADD SWAP1 POP DUP2 DUP2 SUB PUSH1 0x0 DUP4 ADD MSTORE PUSH2 0x1516 DUP2 PUSH2 0x14DA JUMP JUMPDEST SWAP1 POP SWAP2 SWAP1 POP JUMP JUMPDEST PUSH32 0x4E487B7100000000000000000000000000000000000000000000000000000000 PUSH1 0x0 MSTORE PUSH1 0x11 PUSH1 0x4 MSTORE PUSH1 0x24 PUSH1 0x0 REVERT JUMPDEST PUSH1 0x0 PUSH2 0x1557 DUP3 PUSH2 0xCF5 JUMP JUMPDEST SWAP2 POP PUSH2 0x1562 DUP4 PUSH2 0xCF5 JUMP JUMPDEST SWAP3 POP DUP3 DUP3 SUB SWAP1 POP DUP2 DUP2 GT ISZERO PUSH2 0x157A JUMPI PUSH2 0x1579 PUSH2 0x151D JUMP JUMPDEST JUMPDEST SWAP3 SWAP2 POP POP JUMP JUMPDEST PUSH1 0x0 PUSH2 0x158B DUP3 PUSH2 0xCF5 JUMP JUMPDEST SWAP2 POP PUSH32 0xFFFFFFFFFFFFFFFFFFFFFFFFFFFFFFFFFFFFFFFFFFFFFFFFFFFFFFFFFFFFFFFF DUP3 SUB PUSH2 0x15BD JUMPI PUSH2 0x15BC PUSH2 0x151D JUMP JUMPDEST JUMPDEST PUSH1 0x1 DUP3 ADD SWAP1 POP SWAP2 SWAP1 POP JUMP JUMPDEST PUSH32 0x4E487B7100000000000000000000000000000000000000000000000000000000 PUSH1 0x0 MSTORE PUSH1 0x22 PUSH1 0x4 MSTORE PUSH1 0x24 PUSH1 0x0 REVERT JUMPDEST PUSH1 0x0 PUSH1 0x2 DUP3 DIV SWAP1 POP PUSH1 0x1 DUP3 AND DUP1 PUSH2 0x160F JUMPI PUSH1 0x7F DUP3 AND SWAP2 POP JUMPDEST PUSH1 0x20 DUP3 LT DUP2 SUB PUSH2 0x1622 JUMPI PUSH2 0x1621 PUSH2 0x15C8 JUMP JUMPDEST JUMPDEST POP SWAP2 SWAP1 POP JUMP JUMPDEST PUSH1 0x0 DUP2 SWAP1 POP DUP2 PUSH1 0x0 MSTORE PUSH1 0x20 PUSH1 0x0 KECCAK256 SWAP1 POP SWAP2 SWAP1 POP JUMP JUMPDEST PUSH1 0x0 PUSH1 0x20 PUSH1 0x1F DUP4 ADD DIV SWAP1 POP SWAP2 SWAP1 POP JUMP JUMPDEST PUSH1 0x0 DUP3 DUP3 SHL SWAP1 POP SWAP3 SWAP2 POP POP JUMP JUMPDEST PUSH1 0x0 PUSH1 0x8 DUP4 MUL PUSH2 0x168A PUSH32 0xFFFFFFFFFFFFFFFFFFFFFFFFFFFFFFFFFFFFFFFFFFFFFFFFFFFFFFFFFFFFFFFF DUP3 PUSH2 0x164D JUMP JUMPDEST PUSH2 0x1694 DUP7 DUP4 PUSH2 0x164D JUMP JUMPDEST SWAP6 POP DUP1 NOT DUP5 AND SWAP4 POP DUP1 DUP7 AND DUP5 OR SWAP3 POP POP POP SWAP4 SWAP3 POP POP POP JUMP JUMPDEST PUSH1 0x0 DUP2 SWAP1 POP SWAP2 SWAP1 POP JUMP JUMPDEST PUSH1 0x0 PUSH2 0x16D1 PUSH2 0x16CC PUSH2 0x16C7 DUP5 PUSH2 0xCF5 JUMP JUMPDEST PUSH2 0x16AC JUMP JUMPDEST PUSH2 0xCF5 JUMP JUMPDEST SWAP1 POP SWAP2 SWAP1 POP JUMP JUMPDEST PUSH1 0x0 DUP2 SWAP1 POP SWAP2 SWAP1 POP JUMP JUMPDEST PUSH2 0x16EB DUP4 PUSH2 0x16B6 JUMP JUMPDEST PUSH2 0x16FF PUSH2 0x16F7 DUP3 PUSH2 0x16D8 JUMP JUMPDEST DUP5 DUP5 SLOAD PUSH2 0x165A JUMP JUMPDEST DUP3 SSTORE POP POP POP POP JUMP JUMPDEST PUSH1 0x0 SWAP1 JUMP JUMPDEST PUSH2 0x1714 PUSH2 0x1707 JUMP JUMPDEST PUSH2 0x171F DUP2 DUP5 DUP5 PUSH2 0x16E2 JUMP JUMPDEST POP POP POP JUMP JUMPDEST JUMPDEST DUP2 DUP2 LT ISZERO PUSH2 0x1743 JUMPI PUSH2 0x1738 PUSH1 0x0 DUP3 PUSH2 0x170C JUMP JUMPDEST PUSH1 0x1 DUP2 ADD SWAP1 POP PUSH2 0x1725 JUMP JUMPDEST POP POP JUMP JUMPDEST PUSH1 0x1F DUP3 GT ISZERO PUSH2 0x1788 JUMPI PUSH2 0x1759 DUP2 PUSH2 0x1628 JUMP JUMPDEST PUSH2 0x1762 DUP5 PUSH2 0x163D JUMP JUMPDEST DUP2 ADD PUSH1 0x20 DUP6 LT ISZERO PUSH2 0x1771 JUMPI DUP2 SWAP1 POP JUMPDEST PUSH2 0x1785 PUSH2 0x177D DUP6 PUSH2 0x163D JUMP JUMPDEST DUP4 ADD DUP3 PUSH2 0x1724 JUMP JUMPDEST POP POP JUMPDEST POP POP POP JUMP JUMPDEST PUSH1 0x0 DUP3 DUP3 SHR SWAP1 POP SWAP3 SWAP2 POP POP JUMP JUMPDEST PUSH1 0x0 PUSH2 0x17AB PUSH1 0x0 NOT DUP5 PUSH1 0x8 MUL PUSH2 0x178D JUMP JUMPDEST NOT DUP1 DUP4 AND SWAP2 POP POP SWAP3 SWAP2 POP POP JUMP JUMPDEST PUSH1 0x0 PUSH2 0x17C4 DUP4 DUP4 PUSH2 0x179A JUMP JUMPDEST SWAP2 POP DUP3 PUSH1 0x2 MUL DUP3 OR SWAP1 POP SWAP3 SWAP2 POP POP JUMP JUMPDEST PUSH2 0x17DD DUP3 PUSH2 0x103A JUMP JUMPDEST PUSH8 0xFFFFFFFFFFFFFFFF DUP2 GT ISZERO PUSH2 0x17F6 JUMPI PUSH2 0x17F5 PUSH2 0xC49 JUMP JUMPDEST JUMPDEST PUSH2 0x1800 DUP3 SLOAD PUSH2 0x15F7 JUMP JUMPDEST PUSH2 0x180B DUP3 DUP3 DUP6 PUSH2 0x1747 JUMP JUMPDEST PUSH1 0x0 PUSH1 0x20 SWAP1 POP PUSH1 0x1F DUP4 GT PUSH1 0x1 DUP2 EQ PUSH2 0x183E JUMPI PUSH1 0x0 DUP5 ISZERO PUSH2 0x182C JUMPI DUP3 DUP8 ADD MLOAD SWAP1 POP JUMPDEST PUSH2 0x1836 DUP6 DUP3 PUSH2 0x17B8 JUMP JUMPDEST DUP7 SSTORE POP PUSH2 0x189E JUMP JUMPDEST PUSH1 0x1F NOT DUP5 AND PUSH2 0x184C DUP7 PUSH2 0x1628 JUMP JUMPDEST PUSH1 0x0 JUMPDEST DUP3 DUP2 LT ISZERO PUSH2 0x1874 JUMPI DUP5 DUP10 ADD MLOAD DUP3 SSTORE PUSH1 0x1 DUP3 ADD SWAP2 POP PUSH1 0x20 DUP6 ADD SWAP5 POP PUSH1 0x20 DUP2 ADD SWAP1 POP PUSH2 0x184F JUMP JUMPDEST DUP7 DUP4 LT ISZERO PUSH2 0x1891 JUMPI DUP5 DUP10 ADD MLOAD PUSH2 0x188D PUSH1 0x1F DUP10 AND DUP3 PUSH2 0x179A JUMP JUMPDEST DUP4 SSTORE POP JUMPDEST PUSH1 0x1 PUSH1 0x2 DUP9 MUL ADD DUP9 SSTORE POP POP POP JUMPDEST POP POP POP POP POP POP JUMP JUMPDEST PUSH1 0x0 PUSH2 0x18B1 DUP3 PUSH2 0xCF5 JUMP JUMPDEST SWAP2 POP PUSH2 0x18BC DUP4 PUSH2 0xCF5 JUMP JUMPDEST SWAP3 POP DUP3 DUP3 ADD SWAP1 POP DUP1 DUP3 GT ISZERO PUSH2 0x18D4 JUMPI PUSH2 0x18D3 PUSH2 0x151D JUMP JUMPDEST JUMPDEST SWAP3 SWAP2 POP POP JUMP JUMPDEST PUSH1 0x0 DUP2 SLOAD PUSH2 0x18E7 DUP2 PUSH2 0x15F7 JUMP JUMPDEST PUSH2 0x18F1 DUP2 DUP7 PUSH2 0x1045 JUMP JUMPDEST SWAP5 POP PUSH1 0x1 DUP3 AND PUSH1 0x0 DUP2 EQ PUSH2 0x190C JUMPI PUSH1 0x1 DUP2 EQ PUSH2 0x1922 JUMPI PUSH2 0x1955 JUMP JUMPDEST PUSH1 0xFF NOT DUP4 AND DUP7 MSTORE DUP2 ISZERO ISZERO PUSH1 0x20 MUL DUP7 ADD SWAP4 POP PUSH2 0x1955 JUMP JUMPDEST PUSH2 0x192B DUP6 PUSH2 0x1628 JUMP JUMPDEST PUSH1 0x0 JUMPDEST DUP4 DUP2 LT ISZERO PUSH2 0x194D JUMPI DUP2 SLOAD DUP2 DUP10 ADD MSTORE PUSH1 0x1 DUP3 ADD SWAP2 POP PUSH1 0x20 DUP2 ADD SWAP1 POP PUSH2 0x192E JUMP JUMPDEST DUP1 DUP9 ADD SWAP6 POP POP POP JUMPDEST POP POP POP SWAP3 SWAP2 POP POP JUMP JUMPDEST PUSH1 0x0 PUSH1 0x80 DUP3 ADD SWAP1 POP PUSH2 0x1973 PUSH1 0x0 DUP4 ADD DUP8 PUSH2 0xF32 JUMP JUMPDEST PUSH2 0x1980 PUSH1 0x20 DUP4 ADD DUP7 PUSH2 0xF32 JUMP JUMPDEST PUSH2 0x198D PUSH1 0x40 DUP4 ADD DUP6 PUSH2 0x11DE JUMP JUMPDEST DUP2 DUP2 SUB PUSH1 0x60 DUP4 ADD MSTORE PUSH2 0x199F DUP2 DUP5 PUSH2 0x18DA JUMP JUMPDEST SWAP1 POP SWAP6 SWAP5 POP POP POP POP POP JUMP JUMPDEST PUSH32 0x5468697320696420697320616C72656164792075736564000000000000000000 PUSH1 0x0 DUP3 ADD MSTORE POP JUMP JUMPDEST PUSH1 0x0 PUSH2 0x19E0 PUSH1 0x17 DUP4 PUSH2 0x1045 JUMP JUMPDEST SWAP2 POP PUSH2 0x19EB DUP3 PUSH2 0x19AA JUMP JUMPDEST PUSH1 0x20 DUP3 ADD SWAP1 POP SWAP2 SWAP1 POP JUMP JUMPDEST PUSH1 0x0 PUSH1 0x20 DUP3 ADD SWAP1 POP DUP2 DUP2 SUB PUSH1 0x0 DUP4 ADD MSTORE PUSH2 0x1A0F DUP2 PUSH2 0x19D3 JUMP JUMPDEST SWAP1 POP SWAP2 SWAP1 POP JUMP JUMPDEST PUSH1 0x0 DUP2 ISZERO ISZERO SWAP1 POP SWAP2 SWAP1 POP JUMP JUMPDEST PUSH2 0x1A2B DUP2 PUSH2 0x1A16 JUMP JUMPDEST DUP2 EQ PUSH2 0x1A36 JUMPI PUSH1 0x0 DUP1 REVERT JUMPDEST POP JUMP JUMPDEST PUSH1 0x0 DUP2 MLOAD SWAP1 POP PUSH2 0x1A48 DUP2 PUSH2 0x1A22 JUMP JUMPDEST SWAP3 SWAP2 POP POP JUMP JUMPDEST PUSH1 0x0 PUSH1 0x20 DUP3 DUP5 SUB SLT ISZERO PUSH2 0x1A64 JUMPI PUSH2 0x1A63 PUSH2 0xC29 JUMP JUMPDEST JUMPDEST PUSH1 0x0 PUSH2 0x1A72 DUP5 DUP3 DUP6 ADD PUSH2 0x1A39 JUMP JUMPDEST SWAP2 POP POP SWAP3 SWAP2 POP POP JUMP INVALID LOG2 PUSH5 0x6970667358 0x22 SLT KECCAK256 0x5E CALLDATASIZE SWAP6 ISZERO TIMESTAMP 0x24 0xD5 DIFFICULTY LOG2 0xA8 0xE9 DUP13 0x25 CALLDATASIZE COINBASE CHAINID MSIZE MOD 0xAF DUP14 SWAP9 0xCD 0xDE STOP 0xE1 SWAP5 0x5F PUSH32 0x25B8CB2F64736F6C634300081000330000000000000000000000000000000000 "},"gasEstimates":{"creation":{"codeDepositCost":"1366600","executionCost":"infinite","totalCost":"infinite"},"external":{"addInput(uint256,uint256,address,string)":"infinite","addOutput(uint256[],uint256[],uint256,string)":"infinite","addResource(uint256,uint256,string)":"infinite","factory()":"2511","getOutputItem(uint256)":"infinite","inputs(uint256)":"infinite","outputs(uint256)":"infinite","sendOutput(uint256,uint256,address)":"infinite"}},"methodIdentifiers":{"addInput(uint256,uint256,address,string)":"facf65fd","addOutput(uint256[],uint256[],uint256,string)":"4011dcb6","addResource(uint256,uint256,string)":"d6d81e30","factory()":"c45a0155","getOutputItem(uint256)":"96c49f05","inputs(uint256)":"ddef9ea1","outputs(uint256)":"9149bdf2","sendOutput(uint256,uint256,address)":"763d2a3e"}},"storageLayout":{"storage":[{"astId":90,"contract":"Process.sol:Process","label":"factory","offset":0,"slot":"0","type":"t_address"},{"astId":92,"contract":"Process.sol:Process","label":"process_tracking","offset":0,"slot":"1","type":"t_address"},{"astId":97,"contract":"Process.sol:Process","label":"inputs","offset":0,"slot":"2","type":"t_mapping(t_uint256,t_struct(Information)77_storage)"},{"astId":102,"contract":"Process.sol:Process","label":"outputs","offset":0,"slot":"3","type":"t_mapping(t_uint256,t_struct(Output)88_storage)"},{"astId":104,"contract":"Process.sol:Process","label":"id","offset":0,"slot":"4","type":"t_uint256"}],"types":{"t_address":{"encoding":"inplace","label":"address","numberOfBytes":"20"},"t_array(t_uint256)dyn_storage":{"base":"t_uint256","encoding":"dynamic_array","label":"uint256[]","numberOfBytes":"32"},"t_mapping(t_uint256,t_struct(Information)77_storage)":{"encoding":"mapping","key":"t_uint256","label":"mapping(uint256 => struct Process.Information)","numberOfBytes":"32","value":"t_struct(Information)77_storage"},"t_mapping(t_uint256,t_struct(Output)88_storage)":{"encoding":"mapping","key":"t_uint256","label":"mapping(uint256 => struct Process.Output)","numberOfBytes":"32","value":"t_struct(Output)88_storage"},"t_string_storage":{"encoding":"bytes","label":"string","numberOfBytes":"32"},"t_struct(Information)77_storage":{"encoding":"inplace","label":"struct Process.Information","members":[{"astId":72,"contract":"Process.sol:Process","label":"quantity","offset":0,"slot":"0","type":"t_uint256"},{"astId":74,"contract":"Process.sol:Process","label":"name","offset":0,"slot":"1","type":"t_string_storage"},{"astId":76,"contract":"Process.sol:Process","label":"origin","offset":0,"slot":"2","type":"t_address"}],"numberOfBytes":"96"},"t_struct(Output)88_storage":{"encoding":"inplace","label":"struct Process.Output","members":[{"astId":80,"contract":"Process.sol:Process","label":"inputs","offset":0,"slot":"0","type":"t_array(t_uint256)dyn_storage"},{"astId":83,"contract":"Process.sol:Process","label":"inputsQuantities","offset":0,"slot":"1","type":"t_array(t_uint256)dyn_storage"},{"astId":85,"contract":"Process.sol:Process","label":"name","offset":0,"slot":"2","type":"t_string_storage"},{"astId":87,"contract":"Process.sol:Process","label":"quantity","offset":0,"slot":"3","type":"t_uint256"}],"numberOfBytes":"128"},"t_uint256":{"encoding":"inplace","label":"uint256","numberOfBytes":"32"}}},"userdoc":{"kind":"user","methods":{},"version":1}}